{"abi":[{"type":"function","name":"EVM_EXTRA_ARGS_V1_TAG","inputs":[],"outputs":[{"name":"","type":"bytes4","internalType":"bytes4"}],"stateMutability":"view"},{"type":"function","name":"EVM_EXTRA_ARGS_V2_TAG","inputs":[],"outputs":[{"name":"","type":"bytes4","internalType":"bytes4"}],"stateMutability":"view"}],"bytecode":{"object":"0x60ad6032600b8282823980515f1a607314602657634e487b7160e01b5f525f60045260245ffd5b305f52607381538281f3fe7300000000000000000000000000000000000000003014608060405260043610603c575f3560e01c80633ab8c0d01460405780638113c57814606a575b5f5ffd5b604d6397a657c960e01b81565b6040516001600160e01b0319909116815260200160405180910390f35b604d630181dcf160e41b8156fea26469706673582212209820a35d068f48729450cbd97b8380c51d60470d490f0e6c1b2521de61166a6064736f6c634300081e0033","linkReferences":{}},"methodIdentifiers":{"EVM_EXTRA_ARGS_V1_TAG()":"3ab8c0d0","EVM_EXTRA_ARGS_V2_TAG()":"8113c578"},"id":3}