{"abi":[{"type":"constructor","inputs":[{"name":"_positionManager","type":"address","internalType":"address"}],"stateMutability":"nonpayable"},{"type":"function","name":"POSITION_MANAGER","inputs":[],"outputs":[{"name":"","type":"address","internalType":"contract PositionManager"}],"stateMutability":"view"},{"type":"function","name":"PROTOCOL_ASSET","inputs":[],"outputs":[{"name":"","type":"address","internalType":"contract IERC20"}],"stateMutability":"view"},{"type":"function","name":"VAULT","inputs":[],"outputs":[{"name":"","type":"address","internalType":"contract PerpsVault"}],"stateMutability":"view"},{"type":"function","name":"batchLiquidate","inputs":[{"name":"_traders","type":"address[]","internalType":"address[]"},{"name":"_tokens","type":"address[]","internalType":"address[]"}],"outputs":[],"stateMutability":"nonpayable"},{"type":"function","name":"canLiquidate","inputs":[],"outputs":[{"name":"","type":"bool","internalType":"bool"}],"stateMutability":"view"},{"type":"function","name":"claimStuckRewards","inputs":[],"outputs":[],"stateMutability":"nonpayable"},{"type":"function","name":"getMaxBatchSize","inputs":[],"outputs":[{"name":"","type":"uint256","internalType":"uint256"}],"stateMutability":"view"},{"type":"function","name":"getPendingRewards","inputs":[],"outputs":[{"name":"","type":"uint256","internalType":"uint256"}],"stateMutability":"view"},{"type":"function","name":"maxBatchSize","inputs":[],"outputs":[{"name":"","type":"uint256","internalType":"uint256"}],"stateMutability":"view"},{"type":"function","name":"owner","inputs":[],"outputs":[{"name":"","type":"address","internalType":"address"}],"stateMutability":"view"},{"type":"function","name":"renounceOwnership","inputs":[],"outputs":[],"stateMutability":"nonpayable"},{"type":"function","name":"rescueTokens","inputs":[{"name":"_token","type":"address","internalType":"address"},{"name":"_amount","type":"uint256","internalType":"uint256"}],"outputs":[],"stateMutability":"nonpayable"},{"type":"function","name":"setMaxBatchSize","inputs":[{"name":"_newSize","type":"uint256","internalType":"uint256"}],"outputs":[],"stateMutability":"nonpayable"},{"type":"function","name":"transferOwnership","inputs":[{"name":"newOwner","type":"address","internalType":"address"}],"outputs":[],"stateMutability":"nonpayable"},{"type":"event","name":"BatchLiquidationExecuted","inputs":[{"name":"totalAttempted","type":"uint256","indexed":false,"internalType":"uint256"},{"name":"totalSuccessful","type":"uint256","indexed":false,"internalType":"uint256"}],"anonymous":false},{"type":"event","name":"LiquidationFailed","inputs":[{"name":"trader","type":"address","indexed":true,"internalType":"address"},{"name":"token","type":"address","indexed":true,"internalType":"address"},{"name":"reason","type":"string","indexed":false,"internalType":"string"}],"anonymous":false},{"type":"event","name":"MaxBatchSizeUpdated","inputs":[{"name":"newSize","type":"uint256","indexed":false,"internalType":"uint256"}],"anonymous":false},{"type":"event","name":"OwnershipTransferred","inputs":[{"name":"previousOwner","type":"address","indexed":true,"internalType":"address"},{"name":"newOwner","type":"address","indexed":true,"internalType":"address"}],"anonymous":false},{"type":"event","name":"RewardsClaimed","inputs":[{"name":"keeper","type":"address","indexed":true,"internalType":"address"},{"name":"amount","type":"uint256","indexed":false,"internalType":"uint256"}],"anonymous":false},{"type":"event","name":"TokensRescued","inputs":[{"name":"token","type":"address","indexed":true,"internalType":"address"},{"name":"to","type":"address","indexed":true,"internalType":"address"},{"name":"amount","type":"uint256","indexed":false,"internalType":"uint256"}],"anonymous":false},{"type":"error","name":"InvalidAddress","inputs":[]},{"type":"error","name":"InvalidBatchSize","inputs":[]},{"type":"error","name":"InvalidParameter","inputs":[]},{"type":"error","name":"OwnableInvalidOwner","inputs":[{"name":"owner","type":"address","internalType":"address"}]},{"type":"error","name":"OwnableUnauthorizedAccount","inputs":[{"name":"account","type":"address","internalType":"address"}]},{"type":"error","name":"ReentrancyGuardReentrantCall","inputs":[]},{"type":"error","name":"SafeERC20FailedOperation","inputs":[{"name":"token","type":"address","internalType":"address"}]},{"type":"error","name":"ZeroAmount","inputs":[]}],"bytecode":{"object":"0x60e060405234801561000f575f5ffd5b5060405161156638038061156683398101604081905261002e916101fc565b338061005357604051631e4fbdf760e01b81525f600482015260240160405180910390fd5b61005c81610196565b5060017f9b779b17422d0df92223018b32b4d1fa46e071723d6817e2486d003becc55f00556001600160a01b0381166100a85760405163e6c4247b60e01b815260040160405180910390fd5b6001600160a01b03811660808190526040805163411557d160e01b8152905163411557d1916004808201926020929091908290030181865afa1580156100f0573d5f5f3e3d5ffd5b505050506040513d601f19601f8201168201806040525081019061011491906101fc565b6001600160a01b031660a081905260408051634800d97f60e01b81529051634800d97f916004808201926020929091908290030181865afa15801561015b573d5f5f3e3d5ffd5b505050506040513d601f19601f8201168201806040525081019061017f91906101fc565b6001600160a01b031660c05250601460015561021e565b5f80546001600160a01b038381166001600160a01b0319831681178455604051919092169283917f8be0079c531659141344cd1fd0a4f28419497f9722a3daafe3b4186f6b6457e09190a35050565b6001600160a01b03811681146101f9575f5ffd5b50565b5f6020828403121561020c575f5ffd5b8151610217816101e5565b9392505050565b60805160a05160c0516112bd6102a95f395f81816101b30152818161068b01528181610a7301528181610b0b01528181610cff0152610d8501525f818161015e015281816107f9015281816108950152818161096f015281816109fe01528181610bfa0152610c8901525f818160ee015281816103680152818161047a015261077101526112bd5ff3fe608060405234801561000f575f5ffd5b50600436106100e5575f3560e01c8063790ed4fc11610088578063d9621f9e11610063578063d9621f9e146101fd578063e7c00f6e14610205578063f2fde38b1461020d578063f7f4b90e14610220575f5ffd5b8063790ed4fc146101ae5780638da5cb5b146101d5578063cd13ee77146101e5575f5ffd5b8063411557d1116100c3578063411557d11461015957806349af2985146101805780635737619814610193578063715018a6146101a6575f5ffd5b80631bea83fe146100e95780632913daa01461012d5780632b26a6bf14610144575b5f5ffd5b6101107f000000000000000000000000000000000000000000000000000000000000000081565b6040516001600160a01b0390911681526020015b60405180910390f35b61013660015481565b604051908152602001610124565b610157610152366004610f00565b610228565b005b6101107f000000000000000000000000000000000000000000000000000000000000000081565b61015761018e366004610f5f565b61028b565b6101576101a1366004610fe6565b61063a565b61015761075b565b6101107f000000000000000000000000000000000000000000000000000000000000000081565b5f546001600160a01b0316610110565b6101ed61076e565b6040519015158152602001610124565b61013661087e565b600154610136565b61015761021b36600461100e565b610906565b610157610948565b610230610b99565b805f0361025057604051631f2a200560e01b815260040160405180910390fd5b60018190556040518181527f25076f5d56ad1441963ac802aaa2f7a64f6ac48af52f929a5be59810a74d71d49060200160405180910390a150565b610293610bc5565b8281146102b357604051630309cb8760e51b815260040160405180910390fd5b8215806102c1575060015483115b156102df57604051637862e95960e01b815260040160405180910390fd5b5f805b848110156105d5575f8686838181106102fd576102fd61102e565b9050602002016020810190610312919061100e565b90505f8585848181106103275761032761102e565b905060200201602081019061033c919061100e565b604051630b33dc1960e41b81526001600160a01b03848116600483015280831660248301529192505f917f0000000000000000000000000000000000000000000000000000000000000000169063b33dc1909060440160e060405180830381865afa1580156103ad573d5f5f3e3d5ffd5b505050506040513d601f19601f820116820180604052508101906103d191906110bc565b9050806080015161045357816001600160a01b0316836001600160a01b03167f1affef5d897fcaf2dc45bf5d421bc7d65cb624bd79d29a85a2671f6a73670258604051610443906020808252601190820152702837b9b4ba34b7b7103737ba1037b832b760791b604082015260600190565b60405180910390a35050506105cd565b6040516386b9d81f60e01b81526001600160a01b03848116600483015283811660248301527f000000000000000000000000000000000000000000000000000000000000000016906386b9d81f906044015f604051808303815f87803b1580156104bb575f5ffd5b505af19250505080156104cc575060015b6105bb576104d8611142565b806308c379a00361054857506104ec61115a565b806104f7575061054a565b826001600160a01b0316846001600160a01b03167f1affef5d897fcaf2dc45bf5d421bc7d65cb624bd79d29a85a2671f6a736702588360405161053a91906111de565b60405180910390a3506105c9565b505b816001600160a01b0316836001600160a01b03167f1affef5d897fcaf2dc45bf5d421bc7d65cb624bd79d29a85a2671f6a736702586040516105ae906020808252600e908201526d155b9adb9bdddb881c995d995c9d60921b604082015260600190565b60405180910390a36105c9565b846105c581611213565b9550505b5050505b6001016102e2565b5060408051858152602081018390527f21a7335fafa511b660c19727b70ebd4b8cb3fcc6ee8cfeaeccb9b4687bfc346b910160405180910390a1801561061d5761061d610be3565b5061063460015f5160206112685f395f51905f5255565b50505050565b610642610b99565b6001600160a01b0382166106695760405163e6c4247b60e01b815260040160405180910390fd5b805f0361068957604051631f2a200560e01b815260040160405180910390fd5b7f00000000000000000000000000000000000000000000000000000000000000006001600160a01b0316826001600160a01b0316036106db57604051630309cb8760e51b815260040160405180910390fd5b6107006106ef5f546001600160a01b031690565b6001600160a01b0384169083610de6565b5f546001600160a01b03166001600160a01b0316826001600160a01b03167f77023e19c7343ad491fd706c36335ca0e738340a91f29b1fd81e2673d44896c48360405161074f91815260200190565b60405180910390a35050565b610763610b99565b61076c5f610e20565b565b5f7f00000000000000000000000000000000000000000000000000000000000000006001600160a01b0316635c975abb6040518163ffffffff1660e01b8152600401602060405180830381865afa1580156107cb573d5f5f3e3d5ffd5b505050506040513d601f19601f820116820180604052508101906107ef9190611237565b15801561087957507f00000000000000000000000000000000000000000000000000000000000000006001600160a01b0316635c975abb6040518163ffffffff1660e01b8152600401602060405180830381865afa158015610853573d5f5f3e3d5ffd5b505050506040513d601f19601f820116820180604052508101906108779190611237565b155b905090565b60405163067419a560e11b81523060048201525f907f00000000000000000000000000000000000000000000000000000000000000006001600160a01b031690630ce8334a90602401602060405180830381865afa1580156108e2573d5f5f3e3d5ffd5b505050506040513d601f19601f820116820180604052508101906108799190611250565b61090e610b99565b6001600160a01b03811661093c57604051631e4fbdf760e01b81525f60048201526024015b60405180910390fd5b61094581610e20565b50565b610950610bc5565b610958610b99565b60405163067419a560e11b81523060048201525f907f00000000000000000000000000000000000000000000000000000000000000006001600160a01b031690630ce8334a90602401602060405180830381865afa1580156109bc573d5f5f3e3d5ffd5b505050506040513d601f19601f820116820180604052508101906109e09190611250565b90508015610b8257604051632e1a7d4d60e01b8152600481018290527f00000000000000000000000000000000000000000000000000000000000000006001600160a01b031690632e1a7d4d906024015f604051808303815f87803b158015610a47575f5ffd5b505af1158015610a59573d5f5f3e3d5ffd5b50506040516370a0823160e01b81523060048201525f92507f00000000000000000000000000000000000000000000000000000000000000006001600160a01b031691506370a0823190602401602060405180830381865afa158015610ac1573d5f5f3e3d5ffd5b505050506040513d601f19601f82011682018060405250810190610ae59190611250565b90508015610b8057610b32610b015f546001600160a01b031690565b6001600160a01b037f0000000000000000000000000000000000000000000000000000000000000000169083610de6565b5f546001600160a01b03166001600160a01b03167ffc30cddea38e2bf4d6ea7d3f9ed3b6ad7f176419f4963bd81318067a4aee73fe82604051610b7791815260200190565b60405180910390a25b505b5061076c60015f5160206112685f395f51905f5255565b5f546001600160a01b0316331461076c5760405163118cdaa760e01b8152336004820152602401610933565b610bcd610e6f565b60025f5160206112685f395f51905f5255565b90565b60405163067419a560e11b81523060048201525f907f00000000000000000000000000000000000000000000000000000000000000006001600160a01b031690630ce8334a90602401602060405180830381865afa158015610c47573d5f5f3e3d5ffd5b505050506040513d601f19601f82011682018060405250810190610c6b9190611250565b9050801561094557604051632e1a7d4d60e01b8152600481018290527f00000000000000000000000000000000000000000000000000000000000000006001600160a01b031690632e1a7d4d906024015f604051808303815f87803b158015610cd2575f5ffd5b505af1925050508015610ce3575060015b15610945576040516370a0823160e01b81523060048201525f907f00000000000000000000000000000000000000000000000000000000000000006001600160a01b0316906370a0823190602401602060405180830381865afa158015610d4c573d5f5f3e3d5ffd5b505050506040513d601f19601f82011682018060405250810190610d709190611250565b90508015610de257610dac6001600160a01b037f0000000000000000000000000000000000000000000000000000000000000000163383610de6565b60405181815233907ffc30cddea38e2bf4d6ea7d3f9ed3b6ad7f176419f4963bd81318067a4aee73fe9060200160405180910390a25b5050565b610df38383836001610e9e565b610e1b57604051635274afe760e01b81526001600160a01b0384166004820152602401610933565b505050565b5f80546001600160a01b038381166001600160a01b0319831681178455604051919092169283917f8be0079c531659141344cd1fd0a4f28419497f9722a3daafe3b4186f6b6457e09190a35050565b5f5160206112685f395f51905f525460020361076c57604051633ee5aeb560e01b815260040160405180910390fd5b60405163a9059cbb60e01b5f8181526001600160a01b038616600452602485905291602083604481808b5af1925060015f51148316610ef4578383151615610ee8573d5f823e3d81fd5b5f873b113d1516831692505b60405250949350505050565b5f60208284031215610f10575f5ffd5b5035919050565b5f5f83601f840112610f27575f5ffd5b50813567ffffffffffffffff811115610f3e575f5ffd5b6020830191508360208260051b8501011115610f58575f5ffd5b9250929050565b5f5f5f5f60408587031215610f72575f5ffd5b843567ffffffffffffffff811115610f88575f5ffd5b610f9487828801610f17565b909550935050602085013567ffffffffffffffff811115610fb3575f5ffd5b610fbf87828801610f17565b95989497509550505050565b80356001600160a01b0381168114610fe1575f5ffd5b919050565b5f5f60408385031215610ff7575f5ffd5b61100083610fcb565b946020939093013593505050565b5f6020828403121561101e575f5ffd5b61102782610fcb565b9392505050565b634e487b7160e01b5f52603260045260245ffd5b60e0810181811067ffffffffffffffff8211171561106e57634e487b7160e01b5f52604160045260245ffd5b60405250565b601f8201601f1916810167ffffffffffffffff811182821017156110a657634e487b7160e01b5f52604160045260245ffd5b6040525050565b80518015158114610fe1575f5ffd5b5f60e08284031280156110cd575f5ffd5b506040516110da81611042565b8251815260208084015190820152604080840151908201526110fe606084016110ad565b606082015261110f608084016110ad565b608082015261112060a084016110ad565b60a082015260c083015160028110611136575f5ffd5b60c08201529392505050565b5f60033d1115610be05760045f5f3e505f5160e01c90565b5f60443d10156111675790565b6040513d600319016004823e80513d602482011167ffffffffffffffff8211171561119157505090565b808201805167ffffffffffffffff8111156111ad575050505090565b3d84016003190182820160200111156111c7575050505090565b6111d660208285010185611074565b509392505050565b602081525f82518060208401528060208501604085015e5f604082850101526040601f19601f83011684010191505092915050565b5f6001820161123057634e487b7160e01b5f52601160045260245ffd5b5060010190565b5f60208284031215611247575f5ffd5b611027826110ad565b5f60208284031215611260575f5ffd5b505191905056fe9b779b17422d0df92223018b32b4d1fa46e071723d6817e2486d003becc55f00a2646970667358221220a8071153fe6e7283ca5939afdd7d4b48c8f9de5d4e47623734b305817c3303d164736f6c634300081e0033","linkReferences":{}},"methodIdentifiers":{"POSITION_MANAGER()":"1bea83fe","PROTOCOL_ASSET()":"790ed4fc","VAULT()":"411557d1","batchLiquidate(address[],address[])":"49af2985","canLiquidate()":"cd13ee77","claimStuckRewards()":"f7f4b90e","getMaxBatchSize()":"e7c00f6e","getPendingRewards()":"d9621f9e","maxBatchSize()":"2913daa0","owner()":"8da5cb5b","renounceOwnership()":"715018a6","rescueTokens(address,uint256)":"57376198","setMaxBatchSize(uint256)":"2b26a6bf","transferOwnership(address)":"f2fde38b"},"id":63}