{"abi":[{"type":"constructor","inputs":[{"name":"_initialSupply","type":"uint256","internalType":"uint256"}],"stateMutability":"nonpayable"},{"type":"function","name":"FAUCET_AMOUNT","inputs":[],"outputs":[{"name":"","type":"uint256","internalType":"uint256"}],"stateMutability":"view"},{"type":"function","name":"FAUCET_COOLDOWN","inputs":[],"outputs":[{"name":"","type":"uint256","internalType":"uint256"}],"stateMutability":"view"},{"type":"function","name":"allowance","inputs":[{"name":"owner","type":"address","internalType":"address"},{"name":"spender","type":"address","internalType":"address"}],"outputs":[{"name":"","type":"uint256","internalType":"uint256"}],"stateMutability":"view"},{"type":"function","name":"approve","inputs":[{"name":"spender","type":"address","internalType":"address"},{"name":"value","type":"uint256","internalType":"uint256"}],"outputs":[{"name":"","type":"bool","internalType":"bool"}],"stateMutability":"nonpayable"},{"type":"function","name":"balanceOf","inputs":[{"name":"account","type":"address","internalType":"address"}],"outputs":[{"name":"","type":"uint256","internalType":"uint256"}],"stateMutability":"view"},{"type":"function","name":"decimals","inputs":[],"outputs":[{"name":"","type":"uint8","internalType":"uint8"}],"stateMutability":"pure"},{"type":"function","name":"faucet","inputs":[],"outputs":[],"stateMutability":"nonpayable"},{"type":"function","name":"lastFaucetClaim","inputs":[{"name":"","type":"address","internalType":"address"}],"outputs":[{"name":"","type":"uint256","internalType":"uint256"}],"stateMutability":"view"},{"type":"function","name":"mint","inputs":[{"name":"_to","type":"address","internalType":"address"},{"name":"_amount","type":"uint256","internalType":"uint256"}],"outputs":[],"stateMutability":"nonpayable"},{"type":"function","name":"name","inputs":[],"outputs":[{"name":"","type":"string","internalType":"string"}],"stateMutability":"view"},{"type":"function","name":"owner","inputs":[],"outputs":[{"name":"","type":"address","internalType":"address"}],"stateMutability":"view"},{"type":"function","name":"renounceOwnership","inputs":[],"outputs":[],"stateMutability":"nonpayable"},{"type":"function","name":"symbol","inputs":[],"outputs":[{"name":"","type":"string","internalType":"string"}],"stateMutability":"view"},{"type":"function","name":"totalSupply","inputs":[],"outputs":[{"name":"","type":"uint256","internalType":"uint256"}],"stateMutability":"view"},{"type":"function","name":"transfer","inputs":[{"name":"to","type":"address","internalType":"address"},{"name":"value","type":"uint256","internalType":"uint256"}],"outputs":[{"name":"","type":"bool","internalType":"bool"}],"stateMutability":"nonpayable"},{"type":"function","name":"transferFrom","inputs":[{"name":"from","type":"address","internalType":"address"},{"name":"to","type":"address","internalType":"address"},{"name":"value","type":"uint256","internalType":"uint256"}],"outputs":[{"name":"","type":"bool","internalType":"bool"}],"stateMutability":"nonpayable"},{"type":"function","name":"transferOwnership","inputs":[{"name":"newOwner","type":"address","internalType":"address"}],"outputs":[],"stateMutability":"nonpayable"},{"type":"event","name":"Approval","inputs":[{"name":"owner","type":"address","indexed":true,"internalType":"address"},{"name":"spender","type":"address","indexed":true,"internalType":"address"},{"name":"value","type":"uint256","indexed":false,"internalType":"uint256"}],"anonymous":false},{"type":"event","name":"FaucetClaimed","inputs":[{"name":"user","type":"address","indexed":true,"internalType":"address"},{"name":"amount","type":"uint256","indexed":false,"internalType":"uint256"}],"anonymous":false},{"type":"event","name":"OwnershipTransferred","inputs":[{"name":"previousOwner","type":"address","indexed":true,"internalType":"address"},{"name":"newOwner","type":"address","indexed":true,"internalType":"address"}],"anonymous":false},{"type":"event","name":"Transfer","inputs":[{"name":"from","type":"address","indexed":true,"internalType":"address"},{"name":"to","type":"address","indexed":true,"internalType":"address"},{"name":"value","type":"uint256","indexed":false,"internalType":"uint256"}],"anonymous":false},{"type":"error","name":"ERC20InsufficientAllowance","inputs":[{"name":"spender","type":"address","internalType":"address"},{"name":"allowance","type":"uint256","internalType":"uint256"},{"name":"needed","type":"uint256","internalType":"uint256"}]},{"type":"error","name":"ERC20InsufficientBalance","inputs":[{"name":"sender","type":"address","internalType":"address"},{"name":"balance","type":"uint256","internalType":"uint256"},{"name":"needed","type":"uint256","internalType":"uint256"}]},{"type":"error","name":"ERC20InvalidApprover","inputs":[{"name":"approver","type":"address","internalType":"address"}]},{"type":"error","name":"ERC20InvalidReceiver","inputs":[{"name":"receiver","type":"address","internalType":"address"}]},{"type":"error","name":"ERC20InvalidSender","inputs":[{"name":"sender","type":"address","internalType":"address"}]},{"type":"error","name":"ERC20InvalidSpender","inputs":[{"name":"spender","type":"address","internalType":"address"}]},{"type":"error","name":"OwnableInvalidOwner","inputs":[{"name":"owner","type":"address","internalType":"address"}]},{"type":"error","name":"OwnableUnauthorizedAccount","inputs":[{"name":"account","type":"address","internalType":"address"}]}],"bytecode":{"object":"0x608060405234801561000f575f5ffd5b50604051610e15380380610e1583398101604081905261002e9161029e565b336040518060400160405280601281526020017126b7b1b5902bb930b83832b21022ba3432b960711b815250604051806040016040528060048152602001630ae8aa8960e31b8152508160039081610086919061034d565b506004610093828261034d565b5050506001600160a01b0381166100c457604051631e4fbdf760e01b81525f60048201526024015b60405180910390fd5b6100cd816100ef565b506100e9336100e483670de0b6b3a764000061041b565b610140565b5061044b565b600580546001600160a01b038381166001600160a01b0319831681179093556040519116919082907f8be0079c531659141344cd1fd0a4f28419497f9722a3daafe3b4186f6b6457e0905f90a35050565b6001600160a01b0382166101695760405163ec442f0560e01b81525f60048201526024016100bb565b6101745f8383610178565b5050565b6001600160a01b0383166101a2578060025f8282546101979190610438565b909155506102129050565b6001600160a01b0383165f90815260208190526040902054818110156101f45760405163391434e360e21b81526001600160a01b038516600482015260248101829052604481018390526064016100bb565b6001600160a01b0384165f9081526020819052604090209082900390555b6001600160a01b03821661022e5760028054829003905561024c565b6001600160a01b0382165f9081526020819052604090208054820190555b816001600160a01b0316836001600160a01b03167fddf252ad1be2c89b69c2b068fc378daa952ba7f163c4a11628f55a4df523b3ef8360405161029191815260200190565b60405180910390a3505050565b5f602082840312156102ae575f5ffd5b5051919050565b634e487b7160e01b5f52604160045260245ffd5b600181811c908216806102dd57607f821691505b6020821081036102fb57634e487b7160e01b5f52602260045260245ffd5b50919050565b601f82111561034857805f5260205f20601f840160051c810160208510156103265750805b601f840160051c820191505b81811015610345575f8155600101610332565b50505b505050565b81516001600160401b03811115610366576103666102b5565b61037a8161037484546102c9565b84610301565b6020601f8211600181146103ac575f83156103955750848201515b5f19600385901b1c1916600184901b178455610345565b5f84815260208120601f198516915b828110156103db57878501518255602094850194600190920191016103bb565b50848210156103f857868401515f19600387901b60f8161c191681555b50505050600190811b01905550565b634e487b7160e01b5f52601160045260245ffd5b808202811582820484141761043257610432610407565b92915050565b8082018082111561043257610432610407565b6109bd806104585f395ff3fe608060405234801561000f575f5ffd5b5060043610610106575f3560e01c8063766976401161009e57806395d89b411161006e57806395d89b4114610217578063a9059cbb1461021f578063dd62ed3e14610232578063de5f72fd1461026a578063f2fde38b14610272575f5ffd5b806376697640146101c45780637d1d5d19146101d35780638a877205146101dd5780638da5cb5b146101fc575f5ffd5b8063313ce567116100d9578063313ce5671461017057806340c10f191461017f57806370a0823114610194578063715018a6146101bc575f5ffd5b806306fdde031461010a578063095ea7b31461012857806318160ddd1461014b57806323b872dd1461015d575b5f5ffd5b610112610285565b60405161011f919061082d565b60405180910390f35b61013b61013636600461087d565b610315565b604051901515815260200161011f565b6002545b60405190815260200161011f565b61013b61016b3660046108a5565b61032e565b6040516012815260200161011f565b61019261018d36600461087d565b610351565b005b61014f6101a23660046108df565b6001600160a01b03165f9081526020819052604090205490565b610192610367565b61014f678ac7230489e8000081565b61014f6201518081565b61014f6101eb3660046108df565b60066020525f908152604090205481565b6005546040516001600160a01b03909116815260200161011f565b61011261037a565b61013b61022d36600461087d565b610389565b61014f6102403660046108ff565b6001600160a01b039182165f90815260016020908152604080832093909416825291909152205490565b610192610396565b6101926102803660046108df565b61045b565b60606003805461029490610930565b80601f01602080910402602001604051908101604052809291908181526020018280546102c090610930565b801561030b5780601f106102e25761010080835404028352916020019161030b565b820191905f5260205f20905b8154815290600101906020018083116102ee57829003601f168201915b5050505050905090565b5f33610322818585610498565b60019150505b92915050565b5f3361033b8582856104aa565b610346858585610526565b506001949350505050565b610359610583565b61036382826105b0565b5050565b61036f610583565b6103785f6105e4565b565b60606004805461029490610930565b5f33610322818585610526565b335f908152600660205260409020546103b3906201518090610968565b4210156103f95760405162461bcd60e51b815260206004820152600f60248201526e436f6f6c646f776e2061637469766560881b60448201526064015b60405180910390fd5b335f81815260066020526040902042905561041c90678ac7230489e800006105b0565b604051678ac7230489e80000815233907f5d4f415c63cd8a5874d9d291cdd64cec37e5dc236d90d659c958d109d78074b39060200160405180910390a2565b610463610583565b6001600160a01b03811661048c57604051631e4fbdf760e01b81525f60048201526024016103f0565b610495816105e4565b50565b6104a58383836001610635565b505050565b6001600160a01b038381165f908152600160209081526040808320938616835292905220545f19811015610520578181101561051257604051637dc7a0d960e11b81526001600160a01b038416600482015260248101829052604481018390526064016103f0565b61052084848484035f610635565b50505050565b6001600160a01b03831661054f57604051634b637e8f60e11b81525f60048201526024016103f0565b6001600160a01b0382166105785760405163ec442f0560e01b81525f60048201526024016103f0565b6104a5838383610707565b6005546001600160a01b031633146103785760405163118cdaa760e01b81523360048201526024016103f0565b6001600160a01b0382166105d95760405163ec442f0560e01b81525f60048201526024016103f0565b6103635f8383610707565b600580546001600160a01b038381166001600160a01b0319831681179093556040519116919082907f8be0079c531659141344cd1fd0a4f28419497f9722a3daafe3b4186f6b6457e0905f90a35050565b6001600160a01b03841661065e5760405163e602df0560e01b81525f60048201526024016103f0565b6001600160a01b03831661068757604051634a1406b160e11b81525f60048201526024016103f0565b6001600160a01b038085165f908152600160209081526040808320938716835292905220829055801561052057826001600160a01b0316846001600160a01b03167f8c5be1e5ebec7d5bd14f71427d1e84f3dd0314c0f7b2291e5b200ac8c7c3b925846040516106f991815260200190565b60405180910390a350505050565b6001600160a01b038316610731578060025f8282546107269190610968565b909155506107a19050565b6001600160a01b0383165f90815260208190526040902054818110156107835760405163391434e360e21b81526001600160a01b038516600482015260248101829052604481018390526064016103f0565b6001600160a01b0384165f9081526020819052604090209082900390555b6001600160a01b0382166107bd576002805482900390556107db565b6001600160a01b0382165f9081526020819052604090208054820190555b816001600160a01b0316836001600160a01b03167fddf252ad1be2c89b69c2b068fc378daa952ba7f163c4a11628f55a4df523b3ef8360405161082091815260200190565b60405180910390a3505050565b602081525f82518060208401528060208501604085015e5f604082850101526040601f19601f83011684010191505092915050565b80356001600160a01b0381168114610878575f5ffd5b919050565b5f5f6040838503121561088e575f5ffd5b61089783610862565b946020939093013593505050565b5f5f5f606084860312156108b7575f5ffd5b6108c084610862565b92506108ce60208501610862565b929592945050506040919091013590565b5f602082840312156108ef575f5ffd5b6108f882610862565b9392505050565b5f5f60408385031215610910575f5ffd5b61091983610862565b915061092760208401610862565b90509250929050565b600181811c9082168061094457607f821691505b60208210810361096257634e487b7160e01b5f52602260045260245ffd5b50919050565b8082018082111561032857634e487b7160e01b5f52601160045260245ffdfea264697066735822122065bf969a99c2cbd92646bae6331e5c4b7cb6bd29519a25042f5ce754d03b619564736f6c634300081e0033","linkReferences":{}},"methodIdentifiers":{"FAUCET_AMOUNT()":"76697640","FAUCET_COOLDOWN()":"7d1d5d19","allowance(address,address)":"dd62ed3e","approve(address,uint256)":"095ea7b3","balanceOf(address)":"70a08231","decimals()":"313ce567","faucet()":"de5f72fd","lastFaucetClaim(address)":"8a877205","mint(address,uint256)":"40c10f19","name()":"06fdde03","owner()":"8da5cb5b","renounceOwnership()":"715018a6","symbol()":"95d89b41","totalSupply()":"18160ddd","transfer(address,uint256)":"a9059cbb","transferFrom(address,address,uint256)":"23b872dd","transferOwnership(address)":"f2fde38b"},"id":8}