{"abi":[{"type":"constructor","inputs":[{"name":"_desc","type":"string","internalType":"string"},{"name":"_decimals","type":"uint8","internalType":"uint8"},{"name":"_initialPrice","type":"int256","internalType":"int256"}],"stateMutability":"nonpayable"},{"type":"function","name":"decimals","inputs":[],"outputs":[{"name":"","type":"uint8","internalType":"uint8"}],"stateMutability":"view"},{"type":"function","name":"decimalsValue","inputs":[],"outputs":[{"name":"","type":"uint8","internalType":"uint8"}],"stateMutability":"view"},{"type":"function","name":"description","inputs":[],"outputs":[{"name":"","type":"string","internalType":"string"}],"stateMutability":"view"},{"type":"function","name":"getPrice","inputs":[],"outputs":[{"name":"","type":"int256","internalType":"int256"}],"stateMutability":"view"},{"type":"function","name":"getRoundData","inputs":[{"name":"_rid","type":"uint80","internalType":"uint80"}],"outputs":[{"name":"","type":"uint80","internalType":"uint80"},{"name":"","type":"int256","internalType":"int256"},{"name":"","type":"uint256","internalType":"uint256"},{"name":"","type":"uint256","internalType":"uint256"},{"name":"","type":"uint80","internalType":"uint80"}],"stateMutability":"view"},{"type":"function","name":"latestRoundData","inputs":[],"outputs":[{"name":"","type":"uint80","internalType":"uint80"},{"name":"","type":"int256","internalType":"int256"},{"name":"","type":"uint256","internalType":"uint256"},{"name":"","type":"uint256","internalType":"uint256"},{"name":"","type":"uint80","internalType":"uint80"}],"stateMutability":"view"},{"type":"function","name":"owner","inputs":[],"outputs":[{"name":"","type":"address","internalType":"address"}],"stateMutability":"view"},{"type":"function","name":"renounceOwnership","inputs":[],"outputs":[],"stateMutability":"nonpayable"},{"type":"function","name":"transferOwnership","inputs":[{"name":"newOwner","type":"address","internalType":"address"}],"outputs":[],"stateMutability":"nonpayable"},{"type":"function","name":"updatePrice","inputs":[{"name":"_newPrice","type":"int256","internalType":"int256"}],"outputs":[],"stateMutability":"nonpayable"},{"type":"event","name":"OwnershipTransferred","inputs":[{"name":"previousOwner","type":"address","indexed":true,"internalType":"address"},{"name":"newOwner","type":"address","indexed":true,"internalType":"address"}],"anonymous":false},{"type":"event","name":"PriceUpdated","inputs":[{"name":"roundId","type":"uint80","indexed":false,"internalType":"uint80"},{"name":"answer","type":"int256","indexed":false,"internalType":"int256"},{"name":"updatedAt","type":"uint256","indexed":false,"internalType":"uint256"}],"anonymous":false},{"type":"error","name":"OwnableInvalidOwner","inputs":[{"name":"owner","type":"address","internalType":"address"}]},{"type":"error","name":"OwnableUnauthorizedAccount","inputs":[{"name":"account","type":"address","internalType":"address"}]}],"bytecode":{"object":"0x60a060405234801561000f575f5ffd5b5060405161092b38038061092b83398101604081905261002e91610121565b338061005357604051631e4fbdf760e01b81525f600482015260240160405180910390fd5b61005c816100a9565b5060016100698482610271565b5060ff909116608052600280546001600160501b03199081166001908117909255600392909255426004819055600555600680549092161790555061032b565b5f80546001600160a01b038381166001600160a01b0319831681178455604051919092169283917f8be0079c531659141344cd1fd0a4f28419497f9722a3daafe3b4186f6b6457e09190a35050565b634e487b7160e01b5f52604160045260245ffd5b805160ff8116811461011c575f5ffd5b919050565b5f5f5f60608486031215610133575f5ffd5b83516001600160401b03811115610148575f5ffd5b8401601f81018613610158575f5ffd5b80516001600160401b03811115610171576101716100f8565b604051601f8201601f19908116603f011681016001600160401b038111828210171561019f5761019f6100f8565b6040528181528282016020018810156101b6575f5ffd5b8160208401602083015e5f602083830101528095505050506101da6020850161010c565b6040949094015192959394509192915050565b600181811c9082168061020157607f821691505b60208210810361021f57634e487b7160e01b5f52602260045260245ffd5b50919050565b601f82111561026c57805f5260205f20601f840160051c8101602085101561024a5750805b601f840160051c820191505b81811015610269575f8155600101610256565b50505b505050565b81516001600160401b0381111561028a5761028a6100f8565b61029e8161029884546101ed565b84610225565b6020601f8211600181146102d0575f83156102b95750848201515b5f19600385901b1c1916600184901b178455610269565b5f84815260208120601f198516915b828110156102ff57878501518255602094850194600190920191016102df565b508482101561031c57868401515f19600387901b60f8161c191681555b50505050600190811b01905550565b6080516105e36103485f395f818160a1015260dd01526105e35ff3fe608060405234801561000f575f5ffd5b506004361061009b575f3560e01c806398d5fdca1161006357806398d5fdca146101385780639a6fc8f514610149578063d4c19bda14610190578063f2fde38b146101a3578063feaf968c146101b6575f5ffd5b8063313ce5671461009f5780633c6aa9f1146100d8578063715018a6146100ff5780637284e416146101095780638da5cb5b1461011e575b5f5ffd5b7f00000000000000000000000000000000000000000000000000000000000000005b60405160ff90911681526020015b60405180910390f35b6100c17f000000000000000000000000000000000000000000000000000000000000000081565b6101076101d7565b005b6101116101ea565b6040516100cf91906104a0565b5f546040516001600160a01b0390911681526020016100cf565b6003546040519081526020016100cf565b61015c6101573660046104d5565b610276565b604080516001600160501b03968716815260208101959095528401929092526060830152909116608082015260a0016100cf565b61010761019e366004610502565b6102ef565b6101076101b1366004610519565b6103e8565b6002546003546004546005546006546001600160501b03948516941661015c565b6101df610425565b6101e85f610451565b565b600180546101f79061053f565b80601f01602080910402602001604051908101604052809291908181526020018280546102239061053f565b801561026e5780601f106102455761010080835404028352916020019161026e565b820191905f5260205f20905b81548152906001019060200180831161025157829003601f168201915b505050505081565b6002545f9081908190819081906001600160501b0390811690871611156102d65760405162461bcd60e51b815260206004820152600f60248201526e149bdd5b99081b9bdd08199bdd5b99608a1b60448201526064015b60405180910390fd5b5050600354600454600554959691959094509250859150565b6102f7610425565b5f811361033f5760405162461bcd60e51b81526020600482015260166024820152755072696365206d75737420626520706f73697469766560501b60448201526064016102cd565b600280546001600160501b0316905f61035783610577565b82546101009290920a6001600160501b0381810219909316918316021790915560038390554260048190556005819055600254600680549190931669ffffffffffffffffffff19909116811790925560408051928352602083018590528201527f7d8cee5d1217e47a14a662098e84a7758580aaf78f430c07c543249234e867bf915060600160405180910390a150565b6103f0610425565b6001600160a01b03811661041957604051631e4fbdf760e01b81525f60048201526024016102cd565b61042281610451565b50565b5f546001600160a01b031633146101e85760405163118cdaa760e01b81523360048201526024016102cd565b5f80546001600160a01b038381166001600160a01b0319831681178455604051919092169283917f8be0079c531659141344cd1fd0a4f28419497f9722a3daafe3b4186f6b6457e09190a35050565b602081525f82518060208401528060208501604085015e5f604082850101526040601f19601f83011684010191505092915050565b5f602082840312156104e5575f5ffd5b81356001600160501b03811681146104fb575f5ffd5b9392505050565b5f60208284031215610512575f5ffd5b5035919050565b5f60208284031215610529575f5ffd5b81356001600160a01b03811681146104fb575f5ffd5b600181811c9082168061055357607f821691505b60208210810361057157634e487b7160e01b5f52602260045260245ffd5b50919050565b5f6001600160501b0382166001600160501b0381036105a457634e487b7160e01b5f52601160045260245ffd5b6001019291505056fea26469706673582212204559c3df30f582d9cf514ee9ada95576bbb231b203c81b8b5ba0c315f75418b064736f6c634300081e0033","linkReferences":{}},"methodIdentifiers":{"decimals()":"313ce567","decimalsValue()":"3c6aa9f1","description()":"7284e416","getPrice()":"98d5fdca","getRoundData(uint80)":"9a6fc8f5","latestRoundData()":"feaf968c","owner()":"8da5cb5b","renounceOwnership()":"715018a6","transferOwnership(address)":"f2fde38b","updatePrice(int256)":"d4c19bda"},"id":6}