{"abi":[{"type":"constructor","inputs":[{"name":"_initialSupply","type":"uint256","internalType":"uint256"}],"stateMutability":"nonpayable"},{"type":"function","name":"FAUCET_AMOUNT","inputs":[],"outputs":[{"name":"","type":"uint256","internalType":"uint256"}],"stateMutability":"view"},{"type":"function","name":"FAUCET_COOLDOWN","inputs":[],"outputs":[{"name":"","type":"uint256","internalType":"uint256"}],"stateMutability":"view"},{"type":"function","name":"allowance","inputs":[{"name":"owner","type":"address","internalType":"address"},{"name":"spender","type":"address","internalType":"address"}],"outputs":[{"name":"","type":"uint256","internalType":"uint256"}],"stateMutability":"view"},{"type":"function","name":"approve","inputs":[{"name":"spender","type":"address","internalType":"address"},{"name":"value","type":"uint256","internalType":"uint256"}],"outputs":[{"name":"","type":"bool","internalType":"bool"}],"stateMutability":"nonpayable"},{"type":"function","name":"balanceOf","inputs":[{"name":"account","type":"address","internalType":"address"}],"outputs":[{"name":"","type":"uint256","internalType":"uint256"}],"stateMutability":"view"},{"type":"function","name":"decimals","inputs":[],"outputs":[{"name":"","type":"uint8","internalType":"uint8"}],"stateMutability":"pure"},{"type":"function","name":"faucet","inputs":[],"outputs":[],"stateMutability":"nonpayable"},{"type":"function","name":"lastFaucetClaim","inputs":[{"name":"","type":"address","internalType":"address"}],"outputs":[{"name":"","type":"uint256","internalType":"uint256"}],"stateMutability":"view"},{"type":"function","name":"mint","inputs":[{"name":"_to","type":"address","internalType":"address"},{"name":"_amount","type":"uint256","internalType":"uint256"}],"outputs":[],"stateMutability":"nonpayable"},{"type":"function","name":"name","inputs":[],"outputs":[{"name":"","type":"string","internalType":"string"}],"stateMutability":"view"},{"type":"function","name":"owner","inputs":[],"outputs":[{"name":"","type":"address","internalType":"address"}],"stateMutability":"view"},{"type":"function","name":"renounceOwnership","inputs":[],"outputs":[],"stateMutability":"nonpayable"},{"type":"function","name":"symbol","inputs":[],"outputs":[{"name":"","type":"string","internalType":"string"}],"stateMutability":"view"},{"type":"function","name":"totalSupply","inputs":[],"outputs":[{"name":"","type":"uint256","internalType":"uint256"}],"stateMutability":"view"},{"type":"function","name":"transfer","inputs":[{"name":"to","type":"address","internalType":"address"},{"name":"value","type":"uint256","internalType":"uint256"}],"outputs":[{"name":"","type":"bool","internalType":"bool"}],"stateMutability":"nonpayable"},{"type":"function","name":"transferFrom","inputs":[{"name":"from","type":"address","internalType":"address"},{"name":"to","type":"address","internalType":"address"},{"name":"value","type":"uint256","internalType":"uint256"}],"outputs":[{"name":"","type":"bool","internalType":"bool"}],"stateMutability":"nonpayable"},{"type":"function","name":"transferOwnership","inputs":[{"name":"newOwner","type":"address","internalType":"address"}],"outputs":[],"stateMutability":"nonpayable"},{"type":"event","name":"Approval","inputs":[{"name":"owner","type":"address","indexed":true,"internalType":"address"},{"name":"spender","type":"address","indexed":true,"internalType":"address"},{"name":"value","type":"uint256","indexed":false,"internalType":"uint256"}],"anonymous":false},{"type":"event","name":"FaucetClaimed","inputs":[{"name":"user","type":"address","indexed":true,"internalType":"address"},{"name":"amount","type":"uint256","indexed":false,"internalType":"uint256"}],"anonymous":false},{"type":"event","name":"OwnershipTransferred","inputs":[{"name":"previousOwner","type":"address","indexed":true,"internalType":"address"},{"name":"newOwner","type":"address","indexed":true,"internalType":"address"}],"anonymous":false},{"type":"event","name":"Transfer","inputs":[{"name":"from","type":"address","indexed":true,"internalType":"address"},{"name":"to","type":"address","indexed":true,"internalType":"address"},{"name":"value","type":"uint256","indexed":false,"internalType":"uint256"}],"anonymous":false},{"type":"error","name":"ERC20InsufficientAllowance","inputs":[{"name":"spender","type":"address","internalType":"address"},{"name":"allowance","type":"uint256","internalType":"uint256"},{"name":"needed","type":"uint256","internalType":"uint256"}]},{"type":"error","name":"ERC20InsufficientBalance","inputs":[{"name":"sender","type":"address","internalType":"address"},{"name":"balance","type":"uint256","internalType":"uint256"},{"name":"needed","type":"uint256","internalType":"uint256"}]},{"type":"error","name":"ERC20InvalidApprover","inputs":[{"name":"approver","type":"address","internalType":"address"}]},{"type":"error","name":"ERC20InvalidReceiver","inputs":[{"name":"receiver","type":"address","internalType":"address"}]},{"type":"error","name":"ERC20InvalidSender","inputs":[{"name":"sender","type":"address","internalType":"address"}]},{"type":"error","name":"ERC20InvalidSpender","inputs":[{"name":"spender","type":"address","internalType":"address"}]},{"type":"error","name":"OwnableInvalidOwner","inputs":[{"name":"owner","type":"address","internalType":"address"}]},{"type":"error","name":"OwnableUnauthorizedAccount","inputs":[{"name":"account","type":"address","internalType":"address"}]}],"bytecode":{"object":"0x608060405234801561000f575f5ffd5b50604051610f0c380380610f0c83398101604081905261002e916102ad565b336040518060400160405280601481526020017f4d6f636b205772617070656420426974636f696e000000000000000000000000815250604051806040016040528060048152602001635742544360e01b8152508160039081610091919061035c565b50600461009e828261035c565b5050506001600160a01b0381166100cf57604051631e4fbdf760e01b81525f60048201526024015b60405180910390fd5b6100d8816100fe565b506100f8336100e96008600a61050f565b6100f39084610524565b61014f565b5061054e565b600580546001600160a01b038381166001600160a01b0319831681179093556040519116919082907f8be0079c531659141344cd1fd0a4f28419497f9722a3daafe3b4186f6b6457e0905f90a35050565b6001600160a01b0382166101785760405163ec442f0560e01b81525f60048201526024016100c6565b6101835f8383610187565b5050565b6001600160a01b0383166101b1578060025f8282546101a6919061053b565b909155506102219050565b6001600160a01b0383165f90815260208190526040902054818110156102035760405163391434e360e21b81526001600160a01b038516600482015260248101829052604481018390526064016100c6565b6001600160a01b0384165f9081526020819052604090209082900390555b6001600160a01b03821661023d5760028054829003905561025b565b6001600160a01b0382165f9081526020819052604090208054820190555b816001600160a01b0316836001600160a01b03167fddf252ad1be2c89b69c2b068fc378daa952ba7f163c4a11628f55a4df523b3ef836040516102a091815260200190565b60405180910390a3505050565b5f602082840312156102bd575f5ffd5b5051919050565b634e487b7160e01b5f52604160045260245ffd5b600181811c908216806102ec57607f821691505b60208210810361030a57634e487b7160e01b5f52602260045260245ffd5b50919050565b601f82111561035757805f5260205f20601f840160051c810160208510156103355750805b601f840160051c820191505b81811015610354575f8155600101610341565b50505b505050565b81516001600160401b03811115610375576103756102c4565b6103898161038384546102d8565b84610310565b6020601f8211600181146103bb575f83156103a45750848201515b5f19600385901b1c1916600184901b178455610354565b5f84815260208120601f198516915b828110156103ea57878501518255602094850194600190920191016103ca565b508482101561040757868401515f19600387901b60f8161c191681555b50505050600190811b01905550565b634e487b7160e01b5f52601160045260245ffd5b6001815b60018411156104655780850481111561044957610449610416565b600184161561045757908102905b60019390931c92800261042e565b935093915050565b5f8261047b57506001610509565b8161048757505f610509565b816001811461049d57600281146104a7576104c3565b6001915050610509565b60ff8411156104b8576104b8610416565b50506001821b610509565b5060208310610133831016604e8410600b84101617156104e6575081810a610509565b6104f25f19848461042a565b805f190482111561050557610505610416565b0290505b92915050565b5f61051d60ff84168361046d565b9392505050565b808202811582820484141761050957610509610416565b8082018082111561050957610509610416565b6109b18061055b5f395ff3fe608060405234801561000f575f5ffd5b5060043610610106575f3560e01c8063766976401161009e57806395d89b411161006e57806395d89b4114610213578063a9059cbb1461021b578063dd62ed3e1461022e578063de5f72fd14610266578063f2fde38b1461026e575f5ffd5b806376697640146101c45780637d1d5d19146101cf5780638a877205146101d95780638da5cb5b146101f8575f5ffd5b8063313ce567116100d9578063313ce5671461017057806340c10f191461017f57806370a0823114610194578063715018a6146101bc575f5ffd5b806306fdde031461010a578063095ea7b31461012857806318160ddd1461014b57806323b872dd1461015d575b5f5ffd5b610112610281565b60405161011f9190610821565b60405180910390f35b61013b610136366004610871565b610311565b604051901515815260200161011f565b6002545b60405190815260200161011f565b61013b61016b366004610899565b61032a565b6040516008815260200161011f565b61019261018d366004610871565b61034d565b005b61014f6101a23660046108d3565b6001600160a01b03165f9081526020819052604090205490565b610192610363565b61014f6305f5e10081565b61014f6201518081565b61014f6101e73660046108d3565b60066020525f908152604090205481565b6005546040516001600160a01b03909116815260200161011f565b610112610376565b61013b610229366004610871565b610385565b61014f61023c3660046108f3565b6001600160a01b039182165f90815260016020908152604080832093909416825291909152205490565b610192610392565b61019261027c3660046108d3565b61044f565b60606003805461029090610924565b80601f01602080910402602001604051908101604052809291908181526020018280546102bc90610924565b80156103075780601f106102de57610100808354040283529160200191610307565b820191905f5260205f20905b8154815290600101906020018083116102ea57829003601f168201915b5050505050905090565b5f3361031e81858561048c565b60019150505b92915050565b5f3361033785828561049e565b61034285858561051a565b506001949350505050565b610355610577565b61035f82826105a4565b5050565b61036b610577565b6103745f6105d8565b565b60606004805461029090610924565b5f3361031e81858561051a565b335f908152600660205260409020546103af90620151809061095c565b4210156103f55760405162461bcd60e51b815260206004820152600f60248201526e436f6f6c646f776e2061637469766560881b60448201526064015b60405180910390fd5b335f818152600660205260409020429055610414906305f5e1006105a4565b6040516305f5e100815233907f5d4f415c63cd8a5874d9d291cdd64cec37e5dc236d90d659c958d109d78074b39060200160405180910390a2565b610457610577565b6001600160a01b03811661048057604051631e4fbdf760e01b81525f60048201526024016103ec565b610489816105d8565b50565b6104998383836001610629565b505050565b6001600160a01b038381165f908152600160209081526040808320938616835292905220545f19811015610514578181101561050657604051637dc7a0d960e11b81526001600160a01b038416600482015260248101829052604481018390526064016103ec565b61051484848484035f610629565b50505050565b6001600160a01b03831661054357604051634b637e8f60e11b81525f60048201526024016103ec565b6001600160a01b03821661056c5760405163ec442f0560e01b81525f60048201526024016103ec565b6104998383836106fb565b6005546001600160a01b031633146103745760405163118cdaa760e01b81523360048201526024016103ec565b6001600160a01b0382166105cd5760405163ec442f0560e01b81525f60048201526024016103ec565b61035f5f83836106fb565b600580546001600160a01b038381166001600160a01b0319831681179093556040519116919082907f8be0079c531659141344cd1fd0a4f28419497f9722a3daafe3b4186f6b6457e0905f90a35050565b6001600160a01b0384166106525760405163e602df0560e01b81525f60048201526024016103ec565b6001600160a01b03831661067b57604051634a1406b160e11b81525f60048201526024016103ec565b6001600160a01b038085165f908152600160209081526040808320938716835292905220829055801561051457826001600160a01b0316846001600160a01b03167f8c5be1e5ebec7d5bd14f71427d1e84f3dd0314c0f7b2291e5b200ac8c7c3b925846040516106ed91815260200190565b60405180910390a350505050565b6001600160a01b038316610725578060025f82825461071a919061095c565b909155506107959050565b6001600160a01b0383165f90815260208190526040902054818110156107775760405163391434e360e21b81526001600160a01b038516600482015260248101829052604481018390526064016103ec565b6001600160a01b0384165f9081526020819052604090209082900390555b6001600160a01b0382166107b1576002805482900390556107cf565b6001600160a01b0382165f9081526020819052604090208054820190555b816001600160a01b0316836001600160a01b03167fddf252ad1be2c89b69c2b068fc378daa952ba7f163c4a11628f55a4df523b3ef8360405161081491815260200190565b60405180910390a3505050565b602081525f82518060208401528060208501604085015e5f604082850101526040601f19601f83011684010191505092915050565b80356001600160a01b038116811461086c575f5ffd5b919050565b5f5f60408385031215610882575f5ffd5b61088b83610856565b946020939093013593505050565b5f5f5f606084860312156108ab575f5ffd5b6108b484610856565b92506108c260208501610856565b929592945050506040919091013590565b5f602082840312156108e3575f5ffd5b6108ec82610856565b9392505050565b5f5f60408385031215610904575f5ffd5b61090d83610856565b915061091b60208401610856565b90509250929050565b600181811c9082168061093857607f821691505b60208210810361095657634e487b7160e01b5f52602260045260245ffd5b50919050565b8082018082111561032457634e487b7160e01b5f52601160045260245ffdfea2646970667358221220e8a75e7e5ba6990ae41c347a0f0ac561a9266691e682dba2de4a01d8ac96461f64736f6c634300081e0033","linkReferences":{}},"methodIdentifiers":{"FAUCET_AMOUNT()":"76697640","FAUCET_COOLDOWN()":"7d1d5d19","allowance(address,address)":"dd62ed3e","approve(address,uint256)":"095ea7b3","balanceOf(address)":"70a08231","decimals()":"313ce567","faucet()":"de5f72fd","lastFaucetClaim(address)":"8a877205","mint(address,uint256)":"40c10f19","name()":"06fdde03","owner()":"8da5cb5b","renounceOwnership()":"715018a6","symbol()":"95d89b41","totalSupply()":"18160ddd","transfer(address,uint256)":"a9059cbb","transferFrom(address,address,uint256)":"23b872dd","transferOwnership(address)":"f2fde38b"},"id":7}