{"abi":[{"type":"constructor","inputs":[{"name":"_decimals","type":"uint8","internalType":"uint8"},{"name":"_description","type":"string","internalType":"string"}],"stateMutability":"nonpayable"},{"type":"function","name":"answer","inputs":[],"outputs":[{"name":"","type":"int256","internalType":"int256"}],"stateMutability":"view"},{"type":"function","name":"answeredInRound","inputs":[],"outputs":[{"name":"","type":"uint80","internalType":"uint80"}],"stateMutability":"view"},{"type":"function","name":"decimals","inputs":[],"outputs":[{"name":"","type":"uint8","internalType":"uint8"}],"stateMutability":"view"},{"type":"function","name":"description","inputs":[],"outputs":[{"name":"","type":"string","internalType":"string"}],"stateMutability":"view"},{"type":"function","name":"getRoundData","inputs":[{"name":"_roundId","type":"uint80","internalType":"uint80"}],"outputs":[{"name":"","type":"uint80","internalType":"uint80"},{"name":"","type":"int256","internalType":"int256"},{"name":"","type":"uint256","internalType":"uint256"},{"name":"","type":"uint256","internalType":"uint256"},{"name":"","type":"uint80","internalType":"uint80"}],"stateMutability":"view"},{"type":"function","name":"latestRoundData","inputs":[],"outputs":[{"name":"","type":"uint80","internalType":"uint80"},{"name":"","type":"int256","internalType":"int256"},{"name":"","type":"uint256","internalType":"uint256"},{"name":"","type":"uint256","internalType":"uint256"},{"name":"","type":"uint80","internalType":"uint80"}],"stateMutability":"view"},{"type":"function","name":"roundId","inputs":[],"outputs":[{"name":"","type":"uint80","internalType":"uint80"}],"stateMutability":"view"},{"type":"function","name":"setPrice","inputs":[{"name":"_answer","type":"int256","internalType":"int256"}],"outputs":[],"stateMutability":"nonpayable"},{"type":"function","name":"setRoundData","inputs":[{"name":"_roundId","type":"uint80","internalType":"uint80"},{"name":"_answer","type":"int256","internalType":"int256"},{"name":"_startedAt","type":"uint256","internalType":"uint256"},{"name":"_updatedAt","type":"uint256","internalType":"uint256"},{"name":"_answeredInRound","type":"uint80","internalType":"uint80"}],"outputs":[],"stateMutability":"nonpayable"},{"type":"function","name":"startedAt","inputs":[],"outputs":[{"name":"","type":"uint256","internalType":"uint256"}],"stateMutability":"view"},{"type":"function","name":"updatedAt","inputs":[],"outputs":[{"name":"","type":"uint256","internalType":"uint256"}],"stateMutability":"view"},{"type":"function","name":"version","inputs":[],"outputs":[{"name":"","type":"uint256","internalType":"uint256"}],"stateMutability":"view"}],"bytecode":{"object":"0x60806040526001600255348015610014575f5ffd5b5060405161069138038061069183398101604081905261003391610069565b5f805460ff191660ff8416179055600161004d82826101b6565b505050610270565b634e487b7160e01b5f52604160045260245ffd5b5f5f6040838503121561007a575f5ffd5b825160ff8116811461008a575f5ffd5b60208401519092506001600160401b038111156100a5575f5ffd5b8301601f810185136100b5575f5ffd5b80516001600160401b038111156100ce576100ce610055565b604051601f8201601f19908116603f011681016001600160401b03811182821017156100fc576100fc610055565b604052818152828201602001871015610113575f5ffd5b8160208401602083015e5f602083830101528093505050509250929050565b600181811c9082168061014657607f821691505b60208210810361016457634e487b7160e01b5f52602260045260245ffd5b50919050565b601f8211156101b157805f5260205f20601f840160051c8101602085101561018f5750805b601f840160051c820191505b818110156101ae575f815560010161019b565b50505b505050565b81516001600160401b038111156101cf576101cf610055565b6101e3816101dd8454610132565b8461016a565b6020601f821160018114610215575f83156101fe5750848201515b5f19600385901b1c1916600184901b1784556101ae565b5f84815260208120601f198516915b828110156102445787850151825560209485019460019092019101610224565b508482101561026157868401515f19600387901b60f8161c191681555b50505050600190811b01905550565b6104148061027d5f395ff3fe608060405234801561000f575f5ffd5b50600436106100b1575f3560e01c80638cd221c91161006e5780638cd221c9146101665780639a6fc8f514610191578063c22c2499146101f3578063f21f537d14610206578063f7a308061461020f578063feaf968c14610226575f5ffd5b80631c12940a146100b5578063313ce5671461010557806354fd4d50146101285780637284e4161461013f5780637519ab501461015457806385bb7d691461015d575b5f5ffd5b6101036100c33660046102ee565b600380546001600160501b0396871669ffffffffffffffffffff199182161790915560049490945560059290925560065560078054919093169116179055565b005b5f546101119060ff1681565b60405160ff90911681526020015b60405180910390f35b61013160025481565b60405190815260200161011f565b610147610247565b60405161011f919061033a565b61013160065481565b61013160045481565b600354610179906001600160501b031681565b6040516001600160501b03909116815260200161011f565b6101bf61019f36600461036f565b60045460055460065460075493949293919290916001600160501b031690565b604080516001600160501b03968716815260208101959095528401929092526060830152909116608082015260a00161011f565b600754610179906001600160501b031681565b61013160055481565b61010361021d36600461038f565b60045542600655565b6003546004546005546006546007546001600160501b0394851694166101bf565b60018054610254906103a6565b80601f0160208091040260200160405190810160405280929190818152602001828054610280906103a6565b80156102cb5780601f106102a2576101008083540402835291602001916102cb565b820191905f5260205f20905b8154815290600101906020018083116102ae57829003601f168201915b505050505081565b80356001600160501b03811681146102e9575f5ffd5b919050565b5f5f5f5f5f60a08688031215610302575f5ffd5b61030b866102d3565b945060208601359350604086013592506060860135915061032e608087016102d3565b90509295509295909350565b602081525f82518060208401528060208501604085015e5f604082850101526040601f19601f83011684010191505092915050565b5f6020828403121561037f575f5ffd5b610388826102d3565b9392505050565b5f6020828403121561039f575f5ffd5b5035919050565b600181811c908216806103ba57607f821691505b6020821081036103d857634e487b7160e01b5f52602260045260245ffd5b5091905056fea2646970667358221220b771cd45743f0ac51411b714072d4b763fd2e1cddeab704728da0227e5e0259c64736f6c634300081e0033","linkReferences":{}},"methodIdentifiers":{"answer()":"85bb7d69","answeredInRound()":"c22c2499","decimals()":"313ce567","description()":"7284e416","getRoundData(uint80)":"9a6fc8f5","latestRoundData()":"feaf968c","roundId()":"8cd221c9","setPrice(int256)":"f7a30806","setRoundData(uint80,int256,uint256,uint256,uint80)":"1c12940a","startedAt()":"f21f537d","updatedAt()":"7519ab50","version()":"54fd4d50"},"id":84}