{"abi":[{"type":"constructor","inputs":[{"name":"_entryPoint","type":"address","internalType":"address"},{"name":"_verifyingSigner","type":"address","internalType":"address"}],"stateMutability":"nonpayable"},{"type":"function","name":"ENTRY_POINT","inputs":[],"outputs":[{"name":"","type":"address","internalType":"address"}],"stateMutability":"view"},{"type":"function","name":"deposit","inputs":[],"outputs":[],"stateMutability":"payable"},{"type":"function","name":"getDeposit","inputs":[],"outputs":[{"name":"","type":"uint256","internalType":"uint256"}],"stateMutability":"view"},{"type":"function","name":"maxCostLimit","inputs":[],"outputs":[{"name":"","type":"uint96","internalType":"uint96"}],"stateMutability":"view"},{"type":"function","name":"owner","inputs":[],"outputs":[{"name":"","type":"address","internalType":"address"}],"stateMutability":"view"},{"type":"function","name":"postOp","inputs":[{"name":"","type":"uint8","internalType":"uint8"},{"name":"","type":"bytes","internalType":"bytes"},{"name":"","type":"uint256","internalType":"uint256"}],"outputs":[],"stateMutability":"view"},{"type":"function","name":"renounceOwnership","inputs":[],"outputs":[],"stateMutability":"nonpayable"},{"type":"function","name":"setMaxCostLimit","inputs":[{"name":"_newLimit","type":"uint96","internalType":"uint96"}],"outputs":[],"stateMutability":"nonpayable"},{"type":"function","name":"setSigner","inputs":[{"name":"_newSigner","type":"address","internalType":"address"}],"outputs":[],"stateMutability":"nonpayable"},{"type":"function","name":"transferOwnership","inputs":[{"name":"newOwner","type":"address","internalType":"address"}],"outputs":[],"stateMutability":"nonpayable"},{"type":"function","name":"validatePaymasterUserOp","inputs":[{"name":"userOp","type":"tuple","internalType":"struct NexusPaymaster.UserOperation","components":[{"name":"sender","type":"address","internalType":"address"},{"name":"nonce","type":"uint256","internalType":"uint256"},{"name":"initCode","type":"bytes","internalType":"bytes"},{"name":"callData","type":"bytes","internalType":"bytes"},{"name":"callGasLimit","type":"uint256","internalType":"uint256"},{"name":"verificationGasLimit","type":"uint256","internalType":"uint256"},{"name":"preVerificationGas","type":"uint256","internalType":"uint256"},{"name":"maxFeePerGas","type":"uint256","internalType":"uint256"},{"name":"maxPriorityFeePerGas","type":"uint256","internalType":"uint256"},{"name":"paymasterAndData","type":"bytes","internalType":"bytes"},{"name":"signature","type":"bytes","internalType":"bytes"}]},{"name":"userOpHash","type":"bytes32","internalType":"bytes32"},{"name":"maxCost","type":"uint256","internalType":"uint256"}],"outputs":[{"name":"context","type":"bytes","internalType":"bytes"},{"name":"validationData","type":"uint256","internalType":"uint256"}],"stateMutability":"nonpayable"},{"type":"function","name":"verifyingSigner","inputs":[],"outputs":[{"name":"","type":"address","internalType":"address"}],"stateMutability":"view"},{"type":"function","name":"withdraw","inputs":[{"name":"withdrawAddress","type":"address","internalType":"address payable"},{"name":"amount","type":"uint256","internalType":"uint256"}],"outputs":[],"stateMutability":"nonpayable"},{"type":"event","name":"GasDeposited","inputs":[{"name":"sender","type":"address","indexed":true,"internalType":"address"},{"name":"amount","type":"uint256","indexed":false,"internalType":"uint256"}],"anonymous":false},{"type":"event","name":"GasWithdrawn","inputs":[{"name":"to","type":"address","indexed":true,"internalType":"address"},{"name":"amount","type":"uint256","indexed":false,"internalType":"uint256"}],"anonymous":false},{"type":"event","name":"MaxCostLimitUpdated","inputs":[{"name":"oldLimit","type":"uint256","indexed":false,"internalType":"uint256"},{"name":"newLimit","type":"uint256","indexed":false,"internalType":"uint256"}],"anonymous":false},{"type":"event","name":"OwnershipTransferred","inputs":[{"name":"previousOwner","type":"address","indexed":true,"internalType":"address"},{"name":"newOwner","type":"address","indexed":true,"internalType":"address"}],"anonymous":false},{"type":"event","name":"SignerUpdated","inputs":[{"name":"oldSigner","type":"address","indexed":true,"internalType":"address"},{"name":"newSigner","type":"address","indexed":true,"internalType":"address"}],"anonymous":false},{"type":"event","name":"ValidationFailed","inputs":[{"name":"sender","type":"address","indexed":true,"internalType":"address"},{"name":"reasonCode","type":"uint8","indexed":false,"internalType":"uint8"}],"anonymous":false},{"type":"error","name":"ECDSAInvalidSignature","inputs":[]},{"type":"error","name":"ECDSAInvalidSignatureLength","inputs":[{"name":"length","type":"uint256","internalType":"uint256"}]},{"type":"error","name":"ECDSAInvalidSignatureS","inputs":[{"name":"s","type":"bytes32","internalType":"bytes32"}]},{"type":"error","name":"InvalidAddress","inputs":[]},{"type":"error","name":"InvalidAmount","inputs":[]},{"type":"error","name":"OwnableInvalidOwner","inputs":[{"name":"owner","type":"address","internalType":"address"}]},{"type":"error","name":"OwnableUnauthorizedAccount","inputs":[{"name":"account","type":"address","internalType":"address"}]},{"type":"error","name":"Unauthorized","inputs":[]}],"bytecode":{"object":"0x60a0604052600180546001600160a01b0316642386f26fc160b01b179055348015610028575f5ffd5b50604051610f9c380380610f9c83398101604081905261004791610143565b338061006c57604051631e4fbdf760e01b81525f600482015260240160405180910390fd5b610075816100d9565b506001600160a01b038216158061009357506001600160a01b038116155b156100b15760405163e6c4247b60e01b815260040160405180910390fd5b6001600160a01b03918216608052600180546001600160a01b03191691909216179055610174565b5f80546001600160a01b038381166001600160a01b0319831681178455604051919092169283917f8be0079c531659141344cd1fd0a4f28419497f9722a3daafe3b4186f6b6457e09190a35050565b80516001600160a01b038116811461013e575f5ffd5b919050565b5f5f60408385031215610154575f5ffd5b61015d83610128565b915061016b60208401610128565b90509250929050565b608051610df46101a85f395f81816101be015281816103d40152818161047f015281816105b001526109210152610df45ff3fe6080604052600436106100bf575f3560e01c806394430fa51161007c578063d0e30db011610057578063d0e30db014610221578063f2fde38b14610229578063f3fef3a314610248578063f465c77e14610267575f5ffd5b806394430fa5146101ad578063a9a23409146101e0578063c399ec88146101ff575f5ffd5b806323d9ac9b146100c35780632f30ff0f146100ff5780636c19e78314610120578063715018a61461013f5780638da5cb5b146101535780638f0569c11461016f575b5f5ffd5b3480156100ce575f5ffd5b506001546100e2906001600160a01b031681565b6040516001600160a01b0390911681526020015b60405180910390f35b34801561010a575f5ffd5b5061011e610119366004610b85565b610294565b005b34801561012b575f5ffd5b5061011e61013a366004610bc6565b610312565b34801561014a575f5ffd5b5061011e61039c565b34801561015e575f5ffd5b505f546001600160a01b03166100e2565b34801561017a575f5ffd5b5060015461019590600160a01b90046001600160601b031681565b6040516001600160601b0390911681526020016100f6565b3480156101b8575f5ffd5b506100e27f000000000000000000000000000000000000000000000000000000000000000081565b3480156101eb575f5ffd5b5061011e6101fa366004610be1565b6103af565b34801561020a575f5ffd5b506102136103bd565b6040519081526020016100f6565b61011e61044a565b348015610234575f5ffd5b5061011e610243366004610bc6565b610519565b348015610253575f5ffd5b5061011e610262366004610c6d565b61055b565b348015610272575f5ffd5b50610286610281366004610c97565b61064e565b6040516100f6929190610ce6565b61029c61089b565b600154604080516001600160601b03600160a01b9093048316815291831660208301527f2c1078dc4e2dce91048b1cbaf1e0f095f5a6a86623d7dcecac8f0f89971761a5910160405180910390a1600180546001600160601b03909216600160a01b026001600160a01b03909216919091179055565b61031a61089b565b6001600160a01b0381166103415760405163e6c4247b60e01b815260040160405180910390fd5b6001546040516001600160a01b038084169216907f2d025324f0a785e8c12d0a0d91a9caa49df4ef20ff87e0df7213a1d4f3157beb905f90a3600180546001600160a01b0319166001600160a01b0392909216919091179055565b6103a461089b565b6103ad5f6108c7565b565b6103b7610916565b50505050565b6040516370a0823160e01b81523060048201525f907f00000000000000000000000000000000000000000000000000000000000000006001600160a01b0316906370a0823190602401602060405180830381865afa158015610421573d5f5f3e3d5ffd5b505050506040513d601f19601f820116820180604052508101906104459190610d22565b905090565b345f0361046a5760405163162908e360e11b815260040160405180910390fd5b60405163b760faf960e01b81523060048201527f00000000000000000000000000000000000000000000000000000000000000006001600160a01b03169063b760faf99034906024015f604051808303818588803b1580156104ca575f5ffd5b505af11580156104dc573d5f5f3e3d5ffd5b50506040513481523393507f1dbbf474736d6415d6a265fabee708fe6e988f6fd0c9d870ded36cab380898dd9250602001905060405180910390a2565b61052161089b565b6001600160a01b03811661054f57604051631e4fbdf760e01b81525f60048201526024015b60405180910390fd5b610558816108c7565b50565b61056361089b565b6001600160a01b03821661058a5760405163e6c4247b60e01b815260040160405180910390fd5b60405163040b850f60e31b81526001600160a01b038381166004830152602482018390527f0000000000000000000000000000000000000000000000000000000000000000169063205c2878906044015f604051808303815f87803b1580156105f1575f5ffd5b505af1158015610603573d5f5f3e3d5ffd5b50505050816001600160a01b03167fb72c343bf59a3e8780aed75e2e61cdd3faab698b9a1c6f9e46426ba5e0e28e138260405161064291815260200190565b60405180910390a25050565b60605f610659610916565b600154600160a01b90046001600160601b03168311156106d8576106806020860186610bc6565b6040515f81526001600160a01b0391909116907f4f5b52a62f44ad56bb8d8c15804f131dbe254e0d0fdbcb88a7b59fdbbe098c0c906020015b60405180910390a2505060408051602081019091525f81526001610893565b6106e6610120860186610d39565b905060551461073a576106fc6020860186610bc6565b604051600181526001600160a01b0391909116907f4f5b52a62f44ad56bb8d8c15804f131dbe254e0d0fdbcb88a7b59fdbbe098c0c906020016106b9565b365f61074a610120880188610d39565b610758916014908290610d83565b915091505f86463060405160200161079593929190928352602083019190915260601b6bffffffffffffffffffffffff1916604082015260540190565b60408051601f198184030181528282528051602091820120600154601f870183900483028501830190935285845293506001600160a01b03909116916108009186908690819084018382808284375f920191909152506107fa925086915061095e9050565b90610990565b6001600160a01b03161461087a5761081b6020890189610bc6565b604051600281526001600160a01b0391909116907f4f5b52a62f44ad56bb8d8c15804f131dbe254e0d0fdbcb88a7b59fdbbe098c0c9060200160405180910390a2600160405180602001604052805f8152509094509450505050610893565b5f60405180602001604052805f81525090945094505050505b935093915050565b5f546001600160a01b031633146103ad5760405163118cdaa760e01b8152336004820152602401610546565b5f80546001600160a01b038381166001600160a01b0319831681178455604051919092169283917f8be0079c531659141344cd1fd0a4f28419497f9722a3daafe3b4186f6b6457e09190a35050565b336001600160a01b037f000000000000000000000000000000000000000000000000000000000000000016146103ad576040516282b42960e81b815260040160405180910390fd5b7f19457468657265756d205369676e6564204d6573736167653a0a3332000000005f908152601c91909152603c902090565b5f5f5f5f61099e86866109b8565b9250925092506109ae8282610a01565b5090949350505050565b5f5f5f83516041036109ef576020840151604085015160608601515f1a6109e188828585610abd565b9550955095505050506109fa565b505081515f91506002905b9250925092565b5f826003811115610a1457610a14610daa565b03610a1d575050565b6001826003811115610a3157610a31610daa565b03610a4f5760405163f645eedf60e01b815260040160405180910390fd5b6002826003811115610a6357610a63610daa565b03610a845760405163fce698f760e01b815260048101829052602401610546565b6003826003811115610a9857610a98610daa565b03610ab9576040516335e2f38360e21b815260048101829052602401610546565b5050565b5f80807f7fffffffffffffffffffffffffffffff5d576e7357a4501ddfe92f46681b20a0841115610af657505f91506003905082610b7b565b604080515f808252602082018084528a905260ff891692820192909252606081018790526080810186905260019060a0016020604051602081039080840390855afa158015610b47573d5f5f3e3d5ffd5b5050604051601f1901519150506001600160a01b038116610b7257505f925060019150829050610b7b565b92505f91508190505b9450945094915050565b5f60208284031215610b95575f5ffd5b81356001600160601b0381168114610bab575f5ffd5b9392505050565b6001600160a01b0381168114610558575f5ffd5b5f60208284031215610bd6575f5ffd5b8135610bab81610bb2565b5f5f5f5f60608587031215610bf4575f5ffd5b843560ff81168114610c04575f5ffd5b9350602085013567ffffffffffffffff811115610c1f575f5ffd5b8501601f81018713610c2f575f5ffd5b803567ffffffffffffffff811115610c45575f5ffd5b876020828401011115610c56575f5ffd5b949760209190910196509394604001359392505050565b5f5f60408385031215610c7e575f5ffd5b8235610c8981610bb2565b946020939093013593505050565b5f5f5f60608486031215610ca9575f5ffd5b833567ffffffffffffffff811115610cbf575f5ffd5b84016101608187031215610cd1575f5ffd5b95602085013595506040909401359392505050565b604081525f83518060408401528060208601606085015e5f606082850101526060601f19601f8301168401019150508260208301529392505050565b5f60208284031215610d32575f5ffd5b5051919050565b5f5f8335601e19843603018112610d4e575f5ffd5b83018035915067ffffffffffffffff821115610d68575f5ffd5b602001915036819003821315610d7c575f5ffd5b9250929050565b5f5f85851115610d91575f5ffd5b83861115610d9d575f5ffd5b5050820193919092039150565b634e487b7160e01b5f52602160045260245ffdfea264697066735822122084b592b1ca2373dd6567ba0e3487d156ac8174194dd8b567e2088825b3db845764736f6c634300081e0033","linkReferences":{}},"methodIdentifiers":{"ENTRY_POINT()":"94430fa5","deposit()":"d0e30db0","getDeposit()":"c399ec88","maxCostLimit()":"8f0569c1","owner()":"8da5cb5b","postOp(uint8,bytes,uint256)":"a9a23409","renounceOwnership()":"715018a6","setMaxCostLimit(uint96)":"2f30ff0f","setSigner(address)":"6c19e783","transferOwnership(address)":"f2fde38b","validatePaymasterUserOp((address,uint256,bytes,bytes,uint256,uint256,uint256,uint256,uint256,bytes,bytes),bytes32,uint256)":"f465c77e","verifyingSigner()":"23d9ac9b","withdraw(address,uint256)":"f3fef3a3"},"id":61}