{"abi":[{"type":"constructor","inputs":[{"name":"_asset","type":"address","internalType":"address"}],"stateMutability":"nonpayable"},{"type":"function","name":"ASSET","inputs":[],"outputs":[{"name":"","type":"address","internalType":"contract IERC20"}],"stateMutability":"view"},{"type":"function","name":"DECIMALS_SCALAR","inputs":[],"outputs":[{"name":"","type":"uint256","internalType":"uint256"}],"stateMutability":"view"},{"type":"function","name":"addLiquidity","inputs":[{"name":"amount","type":"uint256","internalType":"uint256"}],"outputs":[{"name":"","type":"uint256","internalType":"uint256"}],"stateMutability":"nonpayable"},{"type":"function","name":"deposit","inputs":[{"name":"amount","type":"uint256","internalType":"uint256"}],"outputs":[],"stateMutability":"nonpayable"},{"type":"function","name":"getLockedCollateral","inputs":[{"name":"user","type":"address","internalType":"address"}],"outputs":[{"name":"","type":"uint256","internalType":"uint256"}],"stateMutability":"view"},{"type":"function","name":"getLpShares","inputs":[{"name":"provider","type":"address","internalType":"address"}],"outputs":[{"name":"","type":"uint256","internalType":"uint256"}],"stateMutability":"view"},{"type":"function","name":"getLpValue","inputs":[{"name":"shares","type":"uint256","internalType":"uint256"}],"outputs":[{"name":"","type":"uint256","internalType":"uint256"}],"stateMutability":"view"},{"type":"function","name":"getTraderCollateral","inputs":[{"name":"user","type":"address","internalType":"address"}],"outputs":[{"name":"","type":"uint256","internalType":"uint256"}],"stateMutability":"view"},{"type":"function","name":"lockCollateral","inputs":[{"name":"user","type":"address","internalType":"address"},{"name":"amount","type":"uint256","internalType":"uint256"}],"outputs":[],"stateMutability":"nonpayable"},{"type":"function","name":"owner","inputs":[],"outputs":[{"name":"","type":"address","internalType":"address"}],"stateMutability":"view"},{"type":"function","name":"pause","inputs":[],"outputs":[],"stateMutability":"nonpayable"},{"type":"function","name":"paused","inputs":[],"outputs":[{"name":"","type":"bool","internalType":"bool"}],"stateMutability":"view"},{"type":"function","name":"positionManager","inputs":[],"outputs":[{"name":"","type":"address","internalType":"address"}],"stateMutability":"view"},{"type":"function","name":"removeLiquidity","inputs":[{"name":"shares","type":"uint256","internalType":"uint256"}],"outputs":[],"stateMutability":"nonpayable"},{"type":"function","name":"renounceOwnership","inputs":[],"outputs":[],"stateMutability":"nonpayable"},{"type":"function","name":"setPositionManager","inputs":[{"name":"_manager","type":"address","internalType":"address"}],"outputs":[],"stateMutability":"nonpayable"},{"type":"function","name":"settleTrade","inputs":[{"name":"user","type":"address","internalType":"address"},{"name":"amountLocked","type":"uint256","internalType":"uint256"},{"name":"pnl","type":"int256","internalType":"int256"}],"outputs":[],"stateMutability":"nonpayable"},{"type":"function","name":"totalLiquidity","inputs":[],"outputs":[{"name":"","type":"uint256","internalType":"uint256"}],"stateMutability":"view"},{"type":"function","name":"totalLockedCollateral","inputs":[],"outputs":[{"name":"","type":"uint256","internalType":"uint256"}],"stateMutability":"view"},{"type":"function","name":"totalLpShares","inputs":[],"outputs":[{"name":"","type":"uint256","internalType":"uint256"}],"stateMutability":"view"},{"type":"function","name":"totalTraderFreeCollateral","inputs":[],"outputs":[{"name":"","type":"uint256","internalType":"uint256"}],"stateMutability":"view"},{"type":"function","name":"transferByManager","inputs":[{"name":"from","type":"address","internalType":"address"},{"name":"to","type":"address","internalType":"address"},{"name":"amount","type":"uint256","internalType":"uint256"}],"outputs":[{"name":"","type":"bool","internalType":"bool"}],"stateMutability":"nonpayable"},{"type":"function","name":"transferOwnership","inputs":[{"name":"newOwner","type":"address","internalType":"address"}],"outputs":[],"stateMutability":"nonpayable"},{"type":"function","name":"unlockCollateral","inputs":[{"name":"_user","type":"address","internalType":"address"},{"name":"_amount","type":"uint256","internalType":"uint256"}],"outputs":[],"stateMutability":"nonpayable"},{"type":"function","name":"unpause","inputs":[],"outputs":[],"stateMutability":"nonpayable"},{"type":"function","name":"withdraw","inputs":[{"name":"scaledAmount","type":"uint256","internalType":"uint256"}],"outputs":[],"stateMutability":"nonpayable"},{"type":"event","name":"CollateralLocked","inputs":[{"name":"user","type":"address","indexed":true,"internalType":"address"},{"name":"amount","type":"uint256","indexed":false,"internalType":"uint256"}],"anonymous":false},{"type":"event","name":"CollateralUnlocked","inputs":[{"name":"user","type":"address","indexed":true,"internalType":"address"},{"name":"amount","type":"uint256","indexed":false,"internalType":"uint256"}],"anonymous":false},{"type":"event","name":"Deposited","inputs":[{"name":"user","type":"address","indexed":true,"internalType":"address"},{"name":"rawAmount","type":"uint256","indexed":false,"internalType":"uint256"},{"name":"scaledAmount","type":"uint256","indexed":false,"internalType":"uint256"}],"anonymous":false},{"type":"event","name":"FeeTransferred","inputs":[{"name":"from","type":"address","indexed":true,"internalType":"address"},{"name":"to","type":"address","indexed":true,"internalType":"address"},{"name":"amount","type":"uint256","indexed":false,"internalType":"uint256"}],"anonymous":false},{"type":"event","name":"LiquidityAdded","inputs":[{"name":"provider","type":"address","indexed":true,"internalType":"address"},{"name":"assetsAdded","type":"uint256","indexed":false,"internalType":"uint256"},{"name":"sharesMinted","type":"uint256","indexed":false,"internalType":"uint256"}],"anonymous":false},{"type":"event","name":"LiquidityRemoved","inputs":[{"name":"provider","type":"address","indexed":true,"internalType":"address"},{"name":"assetsRemoved","type":"uint256","indexed":false,"internalType":"uint256"},{"name":"sharesBurned","type":"uint256","indexed":false,"internalType":"uint256"}],"anonymous":false},{"type":"event","name":"OwnershipTransferred","inputs":[{"name":"previousOwner","type":"address","indexed":true,"internalType":"address"},{"name":"newOwner","type":"address","indexed":true,"internalType":"address"}],"anonymous":false},{"type":"event","name":"Paused","inputs":[{"name":"account","type":"address","indexed":false,"internalType":"address"}],"anonymous":false},{"type":"event","name":"PositionManagerUpdated","inputs":[{"name":"oldManager","type":"address","indexed":true,"internalType":"address"},{"name":"newManager","type":"address","indexed":true,"internalType":"address"}],"anonymous":false},{"type":"event","name":"TradeSettled","inputs":[{"name":"user","type":"address","indexed":true,"internalType":"address"},{"name":"pnl","type":"int256","indexed":false,"internalType":"int256"},{"name":"payout","type":"uint256","indexed":false,"internalType":"uint256"}],"anonymous":false},{"type":"event","name":"Unpaused","inputs":[{"name":"account","type":"address","indexed":false,"internalType":"address"}],"anonymous":false},{"type":"event","name":"Withdrawn","inputs":[{"name":"user","type":"address","indexed":true,"internalType":"address"},{"name":"rawAmount","type":"uint256","indexed":false,"internalType":"uint256"},{"name":"scaledAmount","type":"uint256","indexed":false,"internalType":"uint256"}],"anonymous":false},{"type":"error","name":"EnforcedPause","inputs":[]},{"type":"error","name":"ExpectedPause","inputs":[]},{"type":"error","name":"InsufficientBalance","inputs":[]},{"type":"error","name":"InsufficientCollateral","inputs":[]},{"type":"error","name":"InvalidAddress","inputs":[]},{"type":"error","name":"InvalidAmount","inputs":[]},{"type":"error","name":"InvalidAsset","inputs":[]},{"type":"error","name":"OwnableInvalidOwner","inputs":[{"name":"owner","type":"address","internalType":"address"}]},{"type":"error","name":"OwnableUnauthorizedAccount","inputs":[{"name":"account","type":"address","internalType":"address"}]},{"type":"error","name":"ReentrancyGuardReentrantCall","inputs":[]},{"type":"error","name":"SafeERC20FailedOperation","inputs":[{"name":"token","type":"address","internalType":"address"}]},{"type":"error","name":"Unauthorized","inputs":[]},{"type":"error","name":"ZeroAmount","inputs":[]}],"bytecode":{"object":"0x60c060405234801561000f575f5ffd5b50604051611a1f380380611a1f83398101604081905261002e916101b9565b60017f9b779b17422d0df92223018b32b4d1fa46e071723d6817e2486d003becc55f0055338061007757604051631e4fbdf760e01b81525f600482015260240160405180910390fd5b6100808161016a565b506001600160a01b0381166100a85760405163e6c4247b60e01b815260040160405180910390fd5b5f816001600160a01b031663313ce5676040518163ffffffff1660e01b8152600401602060405180830381865afa1580156100e5573d5f5f3e3d5ffd5b505050506040513d601f19601f8201168201806040525081019061010991906101e6565b905060ff8116158061011e575060128160ff16115b1561013c57604051636448d6e960e11b815260040160405180910390fd5b6001600160a01b03821660805261015481601261021a565b61015f90600a61031c565b60a0525061032a9050565b5f80546001600160a01b038381166001600160a01b0319831681178455604051919092169283917f8be0079c531659141344cd1fd0a4f28419497f9722a3daafe3b4186f6b6457e09190a35050565b5f602082840312156101c9575f5ffd5b81516001600160a01b03811681146101df575f5ffd5b9392505050565b5f602082840312156101f6575f5ffd5b815160ff811681146101df575f5ffd5b634e487b7160e01b5f52601160045260245ffd5b60ff828116828216039081111561023357610233610206565b92915050565b6001815b60018411156102745780850481111561025857610258610206565b600184161561026657908102905b60019390931c92800261023d565b935093915050565b5f8261028a57506001610233565b8161029657505f610233565b81600181146102ac57600281146102b6576102d2565b6001915050610233565b60ff8411156102c7576102c7610206565b50506001821b610233565b5060208310610133831016604e8410600b84101617156102f5575081810a610233565b6103015f198484610239565b805f190482111561031457610314610206565b029392505050565b5f6101df60ff84168361027c565b60805160a05161168061039f5f395f8181610205015281816105240152818161056d015281816107d501528181610aa001528181610b6201528181610dcc015261106c01525f818161025a015281816105fd015281816108dd01528181610ae701528181610e7401526110df01526116805ff3fe608060405234801561000f575f5ffd5b5060043610610187575f3560e01c8063715018a6116100d9578063b19c0e5d11610093578063d464017a1161006e578063d464017a1461035f578063d49ab22c14610387578063eda4dfae146103af578063f2fde38b146103b8575f5ffd5b8063b19c0e5d14610330578063b5b3c34714610339578063b6b55f251461034c575f5ffd5b8063715018a6146102d7578063791b98bc146102df5780638456cb59146102f2578063857af6a9146102fa5780638da5cb5b1461030d5780639c8f9f231461031d575f5ffd5b80632e1a7d4d116101445780634800d97f1161011f5780634800d97f1461025557806351c6590a146102945780635760f2e3146102a75780635c975abb146102ba575f5ffd5b80632e1a7d4d146102275780633f4ba83a1461023a57806347a7d10714610242575f5ffd5b8063058062b31461018b5780630ce8334a146101b15780630fd4f78d146101d957806315770f92146101e257806317f17498146101eb5780631a90703c14610200575b5f5ffd5b61019e610199366004611496565b6103cb565b6040519081526020015b60405180910390f35b61019e6101bf3660046114c3565b6001600160a01b03165f9081526002602052604090205490565b61019e60085481565b61019e60065481565b6101fe6101f93660046114dc565b6103fc565b005b61019e7f000000000000000000000000000000000000000000000000000000000000000081565b6101fe610235366004611496565b6104c8565b6101fe61067a565b6101fe6102503660046114dc565b61068c565b61027c7f000000000000000000000000000000000000000000000000000000000000000081565b6040516001600160a01b0390911681526020016101a8565b61019e6102a2366004611496565b61079e565b6101fe6102b53660046114c3565b61095e565b5f54600160a01b900460ff165b60405190151581526020016101a8565b6101fe6109e8565b60015461027c906001600160a01b031681565b6101fe6109f9565b6101fe610308366004611504565b610a09565b5f546001600160a01b031661027c565b6101fe61032b366004611496565b610d06565b61019e60055481565b6102c7610347366004611534565b610eee565b6101fe61035a366004611496565b611036565b61019e61036d3660046114c3565b6001600160a01b03165f9081526007602052604090205490565b61019e6103953660046114c3565b6001600160a01b03165f9081526004602052604090205490565b61019e60035481565b6101fe6103c63660046114c3565b61113f565b5f6008545f036103dc57505f919050565b6008546006546103ec9084611582565b6103f691906115ad565b92915050565b61040461117e565b6001600160a01b0382165f9081526004602052604090205481111561043c57604051631e9acf1760e31b815260040160405180910390fd5b6001600160a01b0382165f90815260046020526040812080548392906104639084906115c0565b925050819055508060055f82825461047b91906115c0565b90915550506001600160a01b0382165f90815260026020526040812080548392906104a79084906115d3565b925050819055508060035f8282546104bf91906115d3565b90915550505050565b6104d06111a8565b805f036104f057604051631f2a200560e01b815260040160405180910390fd5b335f9081526002602052604090205481111561051f57604051631e9acf1760e31b815260040160405180910390fd5b6105497f0000000000000000000000000000000000000000000000000000000000000000826115e6565b156105675760405163162908e360e11b815260040160405180910390fd5b5f6105927f0000000000000000000000000000000000000000000000000000000000000000836115ad565b9050805f036105b457604051631f2a200560e01b815260040160405180910390fd5b335f90815260026020526040812080548492906105d29084906115c0565b925050819055508160035f8282546105ea91906115c0565b9091555061062490506001600160a01b037f00000000000000000000000000000000000000000000000000000000000000001633836111c3565b604080518281526020810184905233917f92ccf450a286a957af52509bc1c9939d1a6a481783e142e41e2499f0bb66ebc691015b60405180910390a25061067760015f51602061162b5f395f51905f5255565b50565b6106826111f8565b61068a611224565b565b61069461117e565b61069c611278565b6001600160a01b0382165f908152600260205260409020548111156106d457604051633a23d82560e01b815260040160405180910390fd5b6001600160a01b0382165f90815260026020526040812080548392906106fb9084906115c0565b925050819055508060035f82825461071391906115c0565b90915550506001600160a01b0382165f908152600460205260408120805483929061073f9084906115d3565b925050819055508060055f82825461075791906115d3565b90915550506040518181526001600160a01b038316907f2251f6a4ed7fe619e9e8ce557d05a63dd484284f9c95c9ab334f6a7707cd08009060200160405180910390a25050565b5f6107a76111a8565b6107af611278565b815f036107cf57604051631f2a200560e01b815260040160405180910390fd5b5f6107fa7f000000000000000000000000000000000000000000000000000000000000000084611582565b90505f6008545f03610841576103e8821161082857604051631f2a200560e01b815260040160405180910390fd5b6108346103e8836115c0565b6103e8600855905061085e565b6006546008546108519084611582565b61085b91906115ad565b90505b805f0361087e57604051631f2a200560e01b815260040160405180910390fd5b8160065f82825461088f91906115d3565b9091555050335f90815260076020526040812080548392906108b29084906115d3565b925050819055508060085f8282546108ca91906115d3565b9091555061090590506001600160a01b037f0000000000000000000000000000000000000000000000000000000000000000163330876112a2565b604080518381526020810183905233917fac1d76749e5447b7b16f5ab61447e1bd502f3bb4807af3b28e620d1700a6ee45910160405180910390a291505061095960015f51602061162b5f395f51905f5255565b919050565b6109666111f8565b6001600160a01b03811661098d5760405163e6c4247b60e01b815260040160405180910390fd5b6001546040516001600160a01b038084169216907f9ee681927833c2398c73d0f5b2a218383929087bada1b839781887af24e6bb02905f90a3600180546001600160a01b0319166001600160a01b0392909216919091179055565b6109f06111f8565b61068a5f6112de565b610a016111f8565b61068a61132d565b610a1161117e565b610a196111a8565b610a21611278565b6001600160a01b0383165f90815260046020526040902054821115610a5957604051633a23d82560e01b815260040160405180910390fd5b5f8080831215610a7f57610a6c836115f9565b915083821115610a7a578391505b610a82565b50815b5f82610a8e83876115d3565b610a9891906115c0565b90505f610ac57f0000000000000000000000000000000000000000000000000000000000000000836115ad565b6040516370a0823160e01b81523060048201529091505f906001600160a01b037f000000000000000000000000000000000000000000000000000000000000000016906370a0823190602401602060405180830381865afa158015610b2c573d5f5f3e3d5ffd5b505050506040513d601f19601f82011682018060405250810190610b509190611613565b905081811015610b8a57905080610b877f000000000000000000000000000000000000000000000000000000000000000082611582565b92505b6001600160a01b0388165f9081526004602052604081208054899290610bb19084906115c0565b925050819055508660055f828254610bc991906115c0565b90915550508315610c0357836006541015610be7575f600655610c20565b8360065f828254610bf891906115c0565b90915550610c209050565b8415610c20578460065f828254610c1a91906115d3565b90915550505b6001600160a01b0388165f9081526002602052604081208054859290610c479084906115d3565b925050819055508260035f828254610c5f91906115d3565b90915550506040518781526001600160a01b038916907fb4eaf47ecd4bc76248f192433e8067c96cb3e17aced42fbc47a512742fb742169060200160405180910390a260408051878152602081018590526001600160a01b038a16917f177deef5fb2da2c64cc9a64ad1cccfc53e6386dc79ac376413c78931352f62b8910160405180910390a25050505050610d0160015f51602061162b5f395f51905f5255565b505050565b610d0e6111a8565b610d16611278565b805f03610d3657604051631f2a200560e01b815260040160405180910390fd5b335f90815260076020526040902054811115610d6557604051631e9acf1760e31b815260040160405180910390fd5b5f60085460065483610d779190611582565b610d8191906115ad565b9050805f03610da357604051631f2a200560e01b815260040160405180910390fd5b806006541015610dc657604051631e9acf1760e31b815260040160405180910390fd5b5f610df17f0000000000000000000000000000000000000000000000000000000000000000836115ad565b9050805f03610e1357604051631f2a200560e01b815260040160405180910390fd5b335f9081526007602052604081208054859290610e319084906115c0565b925050819055508260085f828254610e4991906115c0565b925050819055508160065f828254610e6191906115c0565b90915550610e9b90506001600160a01b037f00000000000000000000000000000000000000000000000000000000000000001633836111c3565b604080518381526020810185905233917f96cd817c6329656790ef8fba7675405193677d39619571282f5e21f3a98cd059910160405180910390a2505061067760015f51602061162b5f395f51905f5255565b5f610ef761117e565b610eff6111a8565b610f07611278565b6001600160a01b0384165f90815260026020526040902054821115610f3f57604051631e9acf1760e31b815260040160405180910390fd5b6001600160a01b0384165f9081526002602052604081208054849290610f669084906115c0565b925050819055508160035f828254610f7e91906115c0565b90915550506001600160a01b0383165f9081526002602052604081208054849290610faa9084906115d3565b925050819055508160035f828254610fc291906115d3565b92505081905550826001600160a01b0316846001600160a01b03167f1d6298f49fc15449b78df91fcca6812136edc2972366cb70aa0d9145a308cd318460405161100e91815260200190565b60405180910390a350600161102f60015f51602061162b5f395f51905f5255565b9392505050565b61103e6111a8565b611046611278565b805f0361106657604051631f2a200560e01b815260040160405180910390fd5b5f6110917f000000000000000000000000000000000000000000000000000000000000000083611582565b335f908152600260205260408120805492935083929091906110b49084906115d3565b925050819055508060035f8282546110cc91906115d3565b9091555061110790506001600160a01b037f0000000000000000000000000000000000000000000000000000000000000000163330856112a2565b604080518381526020810183905233917f73a19dd210f1a7f902193214c0ee91dd35ee5b4d920cba8d519eca65a7b488ca9101610658565b6111476111f8565b6001600160a01b03811661117557604051631e4fbdf760e01b81525f60048201526024015b60405180910390fd5b610677816112de565b6001546001600160a01b0316331461068a576040516282b42960e81b815260040160405180910390fd5b6111b061136f565b60025f51602061162b5f395f51905f5255565b6111d0838383600161139e565b610d0157604051635274afe760e01b81526001600160a01b038416600482015260240161116c565b5f546001600160a01b0316331461068a5760405163118cdaa760e01b815233600482015260240161116c565b61122c611400565b5f805460ff60a01b191690557f5db9ee0a495bf2e6ff9c91a7834c1ba4fdd244a5e8aa4e537bd38aeae4b073aa335b6040516001600160a01b03909116815260200160405180910390a1565b5f54600160a01b900460ff161561068a5760405163d93c066560e01b815260040160405180910390fd5b6112b0848484846001611429565b6112d857604051635274afe760e01b81526001600160a01b038516600482015260240161116c565b50505050565b5f80546001600160a01b038381166001600160a01b0319831681178455604051919092169283917f8be0079c531659141344cd1fd0a4f28419497f9722a3daafe3b4186f6b6457e09190a35050565b611335611278565b5f805460ff60a01b1916600160a01b1790557f62e78cea01bee320cd4e420270b5ea74000d11b0c9f74754ebdbfc544b05a25861125b3390565b5f51602061162b5f395f51905f525460020361068a57604051633ee5aeb560e01b815260040160405180910390fd5b60405163a9059cbb60e01b5f8181526001600160a01b038616600452602485905291602083604481808b5af1925060015f511483166113f45783831516156113e8573d5f823e3d81fd5b5f873b113d1516831692505b60405250949350505050565b5f54600160a01b900460ff1661068a57604051638dfc202b60e01b815260040160405180910390fd5b6040516323b872dd60e01b5f8181526001600160a01b038781166004528616602452604485905291602083606481808c5af1925060015f51148316611485578383151615611479573d5f823e3d81fd5b5f883b113d1516831692505b604052505f60605295945050505050565b5f602082840312156114a6575f5ffd5b5035919050565b80356001600160a01b0381168114610959575f5ffd5b5f602082840312156114d3575f5ffd5b61102f826114ad565b5f5f604083850312156114ed575f5ffd5b6114f6836114ad565b946020939093013593505050565b5f5f5f60608486031215611516575f5ffd5b61151f846114ad565b95602085013595506040909401359392505050565b5f5f5f60608486031215611546575f5ffd5b61154f846114ad565b925061155d602085016114ad565b929592945050506040919091013590565b634e487b7160e01b5f52601160045260245ffd5b80820281158282048414176103f6576103f661156e565b634e487b7160e01b5f52601260045260245ffd5b5f826115bb576115bb611599565b500490565b818103818111156103f6576103f661156e565b808201808211156103f6576103f661156e565b5f826115f4576115f4611599565b500690565b5f600160ff1b820161160d5761160d61156e565b505f0390565b5f60208284031215611623575f5ffd5b505191905056fe9b779b17422d0df92223018b32b4d1fa46e071723d6817e2486d003becc55f00a2646970667358221220a1b26efdabf96580b24fafb8438128fa8d894aa985a090a80894fa6376d2f4b064736f6c634300081e0033","linkReferences":{}},"methodIdentifiers":{"ASSET()":"4800d97f","DECIMALS_SCALAR()":"1a90703c","addLiquidity(uint256)":"51c6590a","deposit(uint256)":"b6b55f25","getLockedCollateral(address)":"d49ab22c","getLpShares(address)":"d464017a","getLpValue(uint256)":"058062b3","getTraderCollateral(address)":"0ce8334a","lockCollateral(address,uint256)":"47a7d107","owner()":"8da5cb5b","pause()":"8456cb59","paused()":"5c975abb","positionManager()":"791b98bc","removeLiquidity(uint256)":"9c8f9f23","renounceOwnership()":"715018a6","setPositionManager(address)":"5760f2e3","settleTrade(address,uint256,int256)":"857af6a9","totalLiquidity()":"15770f92","totalLockedCollateral()":"b19c0e5d","totalLpShares()":"0fd4f78d","totalTraderFreeCollateral()":"eda4dfae","transferByManager(address,address,uint256)":"b5b3c347","transferOwnership(address)":"f2fde38b","unlockCollateral(address,uint256)":"17f17498","unpause()":"3f4ba83a","withdraw(uint256)":"2e1a7d4d"},"id":64}