{"abi":[{"type":"constructor","inputs":[{"name":"_vault","type":"address","internalType":"address"},{"name":"_priceOracle","type":"address","internalType":"address"},{"name":"_maxLeverage","type":"uint256","internalType":"uint256"}],"stateMutability":"nonpayable"},{"type":"function","name":"PRICE_ORACLE","inputs":[],"outputs":[{"name":"","type":"address","internalType":"contract IPriceOracle"}],"stateMutability":"view"},{"type":"function","name":"VAULT","inputs":[],"outputs":[{"name":"","type":"address","internalType":"contract PerpsVault"}],"stateMutability":"view"},{"type":"function","name":"addAsset","inputs":[{"name":"_token","type":"address","internalType":"address"}],"outputs":[],"stateMutability":"nonpayable"},{"type":"function","name":"cancelLimitOrder","inputs":[{"name":"_token","type":"address","internalType":"address"},{"name":"_orderId","type":"uint256","internalType":"uint256"}],"outputs":[],"stateMutability":"nonpayable"},{"type":"function","name":"closePosition","inputs":[{"name":"_token","type":"address","internalType":"address"},{"name":"_price","type":"uint256","internalType":"uint256"}],"outputs":[],"stateMutability":"nonpayable"},{"type":"function","name":"crossChainReceiver","inputs":[],"outputs":[{"name":"","type":"address","internalType":"address"}],"stateMutability":"view"},{"type":"function","name":"executeCrossChainTrade","inputs":[{"name":"trader","type":"address","internalType":"address"},{"name":"token","type":"address","internalType":"address"},{"name":"isLong","type":"bool","internalType":"bool"},{"name":"margin","type":"uint256","internalType":"uint256"},{"name":"leverage","type":"uint256","internalType":"uint256"}],"outputs":[],"stateMutability":"nonpayable"},{"type":"function","name":"executeLimitOrder","inputs":[{"name":"_trader","type":"address","internalType":"address"},{"name":"_token","type":"address","internalType":"address"},{"name":"_orderId","type":"uint256","internalType":"uint256"}],"outputs":[],"stateMutability":"nonpayable"},{"type":"function","name":"getCurrentPrice","inputs":[{"name":"_token","type":"address","internalType":"address"}],"outputs":[{"name":"","type":"uint256","internalType":"uint256"}],"stateMutability":"view"},{"type":"function","name":"getPosition","inputs":[{"name":"user","type":"address","internalType":"address"},{"name":"token","type":"address","internalType":"address"}],"outputs":[{"name":"","type":"tuple","internalType":"struct IPerpsCore.Position","components":[{"name":"collateral","type":"uint256","internalType":"uint256"},{"name":"leverage","type":"uint256","internalType":"uint256"},{"name":"entryPrice","type":"uint256","internalType":"uint256"},{"name":"isLong","type":"bool","internalType":"bool"},{"name":"isOpen","type":"bool","internalType":"bool"},{"name":"isCrossChain","type":"bool","internalType":"bool"},{"name":"mode","type":"uint8","internalType":"enum IPerpsCore.MarginMode"}]}],"stateMutability":"view"},{"type":"function","name":"keeperRewardBps","inputs":[],"outputs":[{"name":"","type":"uint256","internalType":"uint256"}],"stateMutability":"view"},{"type":"function","name":"limitOrders","inputs":[{"name":"","type":"address","internalType":"address"},{"name":"","type":"address","internalType":"address"},{"name":"","type":"uint256","internalType":"uint256"}],"outputs":[{"name":"trader","type":"address","internalType":"address"},{"name":"token","type":"address","internalType":"address"},{"name":"collateral","type":"uint256","internalType":"uint256"},{"name":"leverage","type":"uint256","internalType":"uint256"},{"name":"targetPrice","type":"uint256","internalType":"uint256"},{"name":"isLong","type":"bool","internalType":"bool"},{"name":"mode","type":"uint8","internalType":"enum IPerpsCore.MarginMode"},{"name":"isActive","type":"bool","internalType":"bool"}],"stateMutability":"view"},{"type":"function","name":"liquidate","inputs":[{"name":"_trader","type":"address","internalType":"address"},{"name":"_token","type":"address","internalType":"address"}],"outputs":[],"stateMutability":"nonpayable"},{"type":"function","name":"liquidationThresholdBps","inputs":[],"outputs":[{"name":"","type":"uint256","internalType":"uint256"}],"stateMutability":"view"},{"type":"function","name":"liquidatorFeeBps","inputs":[],"outputs":[{"name":"","type":"uint256","internalType":"uint256"}],"stateMutability":"view"},{"type":"function","name":"maxActiveAssets","inputs":[],"outputs":[{"name":"","type":"uint256","internalType":"uint256"}],"stateMutability":"view"},{"type":"function","name":"maxLeverage","inputs":[],"outputs":[{"name":"","type":"uint256","internalType":"uint256"}],"stateMutability":"view"},{"type":"function","name":"openPosition","inputs":[{"name":"_token","type":"address","internalType":"address"},{"name":"_collateralDelta","type":"uint256","internalType":"uint256"},{"name":"_leverage","type":"uint256","internalType":"uint256"},{"name":"_isLong","type":"bool","internalType":"bool"},{"name":"_mode","type":"uint8","internalType":"enum IPerpsCore.MarginMode"}],"outputs":[],"stateMutability":"nonpayable"},{"type":"function","name":"owner","inputs":[],"outputs":[{"name":"","type":"address","internalType":"address"}],"stateMutability":"view"},{"type":"function","name":"pause","inputs":[],"outputs":[],"stateMutability":"nonpayable"},{"type":"function","name":"paused","inputs":[],"outputs":[{"name":"","type":"bool","internalType":"bool"}],"stateMutability":"view"},{"type":"function","name":"placeLimitOrder","inputs":[{"name":"_token","type":"address","internalType":"address"},{"name":"_collateral","type":"uint256","internalType":"uint256"},{"name":"_leverage","type":"uint256","internalType":"uint256"},{"name":"_targetPrice","type":"uint256","internalType":"uint256"},{"name":"_isLong","type":"bool","internalType":"bool"},{"name":"_mode","type":"uint8","internalType":"enum IPerpsCore.MarginMode"}],"outputs":[],"stateMutability":"nonpayable"},{"type":"function","name":"positions","inputs":[{"name":"","type":"address","internalType":"address"},{"name":"","type":"address","internalType":"address"}],"outputs":[{"name":"collateral","type":"uint256","internalType":"uint256"},{"name":"leverage","type":"uint256","internalType":"uint256"},{"name":"entryPrice","type":"uint256","internalType":"uint256"},{"name":"isLong","type":"bool","internalType":"bool"},{"name":"isOpen","type":"bool","internalType":"bool"},{"name":"isCrossChain","type":"bool","internalType":"bool"},{"name":"mode","type":"uint8","internalType":"enum IPerpsCore.MarginMode"}],"stateMutability":"view"},{"type":"function","name":"removeAsset","inputs":[{"name":"_token","type":"address","internalType":"address"}],"outputs":[],"stateMutability":"nonpayable"},{"type":"function","name":"renounceOwnership","inputs":[],"outputs":[],"stateMutability":"nonpayable"},{"type":"function","name":"setCrossChainReceiver","inputs":[{"name":"_receiver","type":"address","internalType":"address"}],"outputs":[],"stateMutability":"nonpayable"},{"type":"function","name":"setKeeperReward","inputs":[{"name":"_newRewardBps","type":"uint256","internalType":"uint256"}],"outputs":[],"stateMutability":"nonpayable"},{"type":"function","name":"setLiquidationSettings","inputs":[{"name":"_thresholdBps","type":"uint256","internalType":"uint256"},{"name":"_feeBps","type":"uint256","internalType":"uint256"}],"outputs":[],"stateMutability":"nonpayable"},{"type":"function","name":"setMaxActiveAssets","inputs":[{"name":"_newMax","type":"uint256","internalType":"uint256"}],"outputs":[],"stateMutability":"nonpayable"},{"type":"function","name":"setMaxLeverage","inputs":[{"name":"_maxLeverage","type":"uint256","internalType":"uint256"}],"outputs":[],"stateMutability":"nonpayable"},{"type":"function","name":"transferOwnership","inputs":[{"name":"newOwner","type":"address","internalType":"address"}],"outputs":[],"stateMutability":"nonpayable"},{"type":"function","name":"unpause","inputs":[],"outputs":[],"stateMutability":"nonpayable"},{"type":"function","name":"userActiveAssets","inputs":[{"name":"","type":"address","internalType":"address"},{"name":"","type":"uint256","internalType":"uint256"}],"outputs":[{"name":"","type":"address","internalType":"address"}],"stateMutability":"view"},{"type":"function","name":"userOrderCount","inputs":[{"name":"","type":"address","internalType":"address"}],"outputs":[{"name":"","type":"uint256","internalType":"uint256"}],"stateMutability":"view"},{"type":"function","name":"whitelistedOracles","inputs":[{"name":"","type":"address","internalType":"address"}],"outputs":[{"name":"","type":"bool","internalType":"bool"}],"stateMutability":"view"},{"type":"event","name":"AssetAdded","inputs":[{"name":"token","type":"address","indexed":true,"internalType":"address"}],"anonymous":false},{"type":"event","name":"AssetRemoved","inputs":[{"name":"token","type":"address","indexed":true,"internalType":"address"}],"anonymous":false},{"type":"event","name":"CrossChainPositionClosed","inputs":[{"name":"user","type":"address","indexed":true,"internalType":"address"},{"name":"asset","type":"address","indexed":true,"internalType":"address"},{"name":"pnl","type":"int256","indexed":false,"internalType":"int256"}],"anonymous":false},{"type":"event","name":"CrossChainPositionLiquidated","inputs":[{"name":"trader","type":"address","indexed":true,"internalType":"address"},{"name":"asset","type":"address","indexed":true,"internalType":"address"},{"name":"liquidator","type":"address","indexed":true,"internalType":"address"},{"name":"reward","type":"uint256","indexed":false,"internalType":"uint256"}],"anonymous":false},{"type":"event","name":"CrossChainReceiverUpdated","inputs":[{"name":"newReceiver","type":"address","indexed":false,"internalType":"address"}],"anonymous":false},{"type":"event","name":"LimitOrderCancelled","inputs":[{"name":"user","type":"address","indexed":true,"internalType":"address"},{"name":"asset","type":"address","indexed":true,"internalType":"address"},{"name":"orderId","type":"uint256","indexed":false,"internalType":"uint256"}],"anonymous":false},{"type":"event","name":"LimitOrderExecuted","inputs":[{"name":"user","type":"address","indexed":true,"internalType":"address"},{"name":"asset","type":"address","indexed":true,"internalType":"address"},{"name":"orderId","type":"uint256","indexed":false,"internalType":"uint256"},{"name":"executionPrice","type":"uint256","indexed":false,"internalType":"uint256"},{"name":"keeper","type":"address","indexed":true,"internalType":"address"}],"anonymous":false},{"type":"event","name":"LimitOrderPlaced","inputs":[{"name":"user","type":"address","indexed":true,"internalType":"address"},{"name":"asset","type":"address","indexed":true,"internalType":"address"},{"name":"orderId","type":"uint256","indexed":false,"internalType":"uint256"},{"name":"targetPrice","type":"uint256","indexed":false,"internalType":"uint256"},{"name":"isLong","type":"bool","indexed":false,"internalType":"bool"}],"anonymous":false},{"type":"event","name":"LiquidationSettingsUpdated","inputs":[{"name":"thresholdBps","type":"uint256","indexed":false,"internalType":"uint256"},{"name":"feeBps","type":"uint256","indexed":false,"internalType":"uint256"}],"anonymous":false},{"type":"event","name":"MaxActiveAssetsUpdated","inputs":[{"name":"newMax","type":"uint256","indexed":false,"internalType":"uint256"}],"anonymous":false},{"type":"event","name":"MaxLeverageUpdated","inputs":[{"name":"newMaxLeverage","type":"uint256","indexed":false,"internalType":"uint256"}],"anonymous":false},{"type":"event","name":"OwnershipTransferred","inputs":[{"name":"previousOwner","type":"address","indexed":true,"internalType":"address"},{"name":"newOwner","type":"address","indexed":true,"internalType":"address"}],"anonymous":false},{"type":"event","name":"Paused","inputs":[{"name":"account","type":"address","indexed":false,"internalType":"address"}],"anonymous":false},{"type":"event","name":"PositionClosed","inputs":[{"name":"user","type":"address","indexed":true,"internalType":"address"},{"name":"asset","type":"address","indexed":true,"internalType":"address"},{"name":"pnl","type":"int256","indexed":false,"internalType":"int256"},{"name":"payout","type":"uint256","indexed":false,"internalType":"uint256"}],"anonymous":false},{"type":"event","name":"PositionLiquidated","inputs":[{"name":"trader","type":"address","indexed":true,"internalType":"address"},{"name":"asset","type":"address","indexed":true,"internalType":"address"},{"name":"liquidator","type":"address","indexed":true,"internalType":"address"},{"name":"reward","type":"uint256","indexed":false,"internalType":"uint256"},{"name":"mode","type":"uint8","indexed":false,"internalType":"enum IPerpsCore.MarginMode"}],"anonymous":false},{"type":"event","name":"PositionOpened","inputs":[{"name":"user","type":"address","indexed":true,"internalType":"address"},{"name":"asset","type":"address","indexed":true,"internalType":"address"},{"name":"isLong","type":"bool","indexed":false,"internalType":"bool"},{"name":"collateral","type":"uint256","indexed":false,"internalType":"uint256"},{"name":"leverage","type":"uint256","indexed":false,"internalType":"uint256"},{"name":"entryPrice","type":"uint256","indexed":false,"internalType":"uint256"},{"name":"mode","type":"uint8","indexed":false,"internalType":"enum IPerpsCore.MarginMode"}],"anonymous":false},{"type":"event","name":"Unpaused","inputs":[{"name":"account","type":"address","indexed":false,"internalType":"address"}],"anonymous":false},{"type":"error","name":"EnforcedPause","inputs":[]},{"type":"error","name":"ExpectedPause","inputs":[]},{"type":"error","name":"InvalidAddress","inputs":[]},{"type":"error","name":"InvalidAmount","inputs":[]},{"type":"error","name":"InvalidAsset","inputs":[]},{"type":"error","name":"InvalidLeverage","inputs":[]},{"type":"error","name":"InvalidParameter","inputs":[]},{"type":"error","name":"InvalidPrice","inputs":[]},{"type":"error","name":"NoPositionFound","inputs":[]},{"type":"error","name":"OwnableInvalidOwner","inputs":[{"name":"owner","type":"address","internalType":"address"}]},{"type":"error","name":"OwnableUnauthorizedAccount","inputs":[{"name":"account","type":"address","internalType":"address"}]},{"type":"error","name":"PositionAlreadyExists","inputs":[]},{"type":"error","name":"PositionHealthy","inputs":[]},{"type":"error","name":"ReentrancyGuardReentrantCall","inputs":[]},{"type":"error","name":"Unauthorized","inputs":[]},{"type":"error","name":"ZeroAmount","inputs":[]}],"bytecode":{"object":"0x60c06040526014600655600a600b55348015610019575f5ffd5b50604051612e24380380612e2483398101604081905261003891610177565b338061005d57604051631e4fbdf760e01b81525f600482015260240160405180910390fd5b6100668161010d565b5060017f9b779b17422d0df92223018b32b4d1fa46e071723d6817e2486d003becc55f00556001600160a01b03831615806100a857506001600160a01b038216155b156100c65760405163e6c4247b60e01b815260040160405180910390fd5b805f036100e657604051633fe89cb960e11b815260040160405180910390fd5b6001600160a01b03928316608052911660a052600855611f406009556103e8600a556101b0565b5f80546001600160a01b038381166001600160a01b0319831681178455604051919092169283917f8be0079c531659141344cd1fd0a4f28419497f9722a3daafe3b4186f6b6457e09190a35050565b80516001600160a01b0381168114610172575f5ffd5b919050565b5f5f5f60608486031215610189575f5ffd5b6101928461015c565b92506101a06020850161015c565b9150604084015190509250925092565b60805160a051612c146102105f395f81816102110152611e9101525f81816102af0152818161071d01528181610a4601528181610c65015281816110180152818161128201528181611437015281816114c401526117010152612c145ff3fe608060405234801561000f575f5ffd5b5060043610610208575f3560e01c806384cc315b1161011f578063bac9a8ea116100a9578063e486473111610079578063e48647311461054b578063ec4eb4f914610554578063ed2f860714610573578063ef6e8f6d14610586578063f2fde38b14610599575f5ffd5b8063bac9a8ea14610509578063cd5ce63c1461051c578063cfd6d5e91461052f578063d3127e6314610538575f5ffd5b80639797fab8116100ef5780639797fab8146104a75780639f11fcb4146104ba578063ae3302c2146104cd578063ae59fcbc146104d6578063b33dc190146104e9575f5ffd5b806384cc315b1461045e578063854ac57c1461047157806386b9d81f146104845780638da5cb5b14610497575f5ffd5b80634a5e42b1116101a05780636d7a62b6116101705780636d7a62b6146103aa578063715018a614610432578063742fe1f81461043a5780637798e4061461044d5780638456cb5914610456575f5ffd5b80634a5e42b1146103035780634bd21445146103165780635c975abb146103865780636b88061f14610397575f5ffd5b80632b562448116101db5780632b5624481461028f5780633f4ba83a146102a2578063411557d1146102aa57806343da3ff6146102d1575f5ffd5b80630a19399a1461020c5780630f8b0bcf146102505780631e09410314610265578063298410e51461027c575b5f5ffd5b6102337f000000000000000000000000000000000000000000000000000000000000000081565b6040516001600160a01b0390911681526020015b60405180910390f35b61026361025e366004612719565b6105ac565b005b61026e60065481565b604051908152602001610247565b61026361028a366004612741565b6107cf565b600754610233906001600160a01b031681565b610263610885565b6102337f000000000000000000000000000000000000000000000000000000000000000081565b6102f36102df366004612741565b60016020525f908152604090205460ff1681565b6040519015158152602001610247565b610263610311366004612741565b610897565b61037361032436600461275a565b600260208181525f9384526040808520909152918352912080546001820154928201546003909201549092919060ff808216916101008104821691620100008204811691630100000090041687565b60405161024797969594939291906127bf565b5f54600160a01b900460ff166102f3565b6102636103a5366004612814565b61091f565b61041e6103b8366004612869565b600360208181525f94855260408086208252938552838520905290835291208054600182015460028301549383015460048401546005909401546001600160a01b03938416959390921693909160ff808216916101008104821691620100009091041688565b6040516102479897969594939291906128a3565b610263610ad3565b610263610448366004612719565b610ae4565b61026e600a5481565b610263610d7b565b61026e61046c366004612741565b610d8b565b61026361047f366004612869565b610d9b565b61026361049236600461275a565b611109565b5f546001600160a01b0316610233565b6102636104b53660046128fb565b611605565b6102636104c8366004612912565b611651565b61026e60085481565b6102636104e43660046128fb565b611934565b6104fc6104f736600461275a565b6119b8565b604051610247919061296f565b6102636105173660046129cb565b611aab565b61026361052a366004612741565b611b49565b61026e600b5481565b6102636105463660046128fb565b611bc6565b61026e60095481565b61026e610562366004612741565b60046020525f908152604090205481565b6102636105813660046129eb565b611c23565b610233610594366004612719565b611d3a565b6102636105a7366004612741565b611d6e565b6105b4611dab565b335f9081526003602081815260408084206001600160a01b0387811686529083528185208686528352818520825161010080820185528254841682526001808401549094169582019590955260028201549381019390935293840154606083015260048401546080830152600584015460ff808216151560a085015292949360c08601939104169081111561064b5761064b61278b565b600181111561065c5761065c61278b565b81526005919091015462010000900460ff16151560209091015260e08101519091506106c05760405162461bcd60e51b815260206004820152600e60248201526d4f7264657220696e61637469766560901b60448201526064015b60405180910390fd5b335f8181526003602090815260408083206001600160a01b03888116855290835281842087855290925291829020600501805462ff0000191690558382015191516302fe2e9360e31b8152600481019390935260248301919091527f000000000000000000000000000000000000000000000000000000000000000016906317f17498906044015f604051808303815f87803b15801561075e575f5ffd5b505af1158015610770573d5f5f3e3d5ffd5b50506040518481526001600160a01b03861692503391507f380b41396408a8d34fe17d620beeb60b4e3d4d6e1bc5b81c66bd98fa442b85d09060200160405180910390a3506107cb60015f516020612bbf5f395f51905f5255565b5050565b6107d7611dc6565b6001600160a01b0381166107fe5760405163e6c4247b60e01b815260040160405180910390fd5b6001600160a01b0381165f9081526001602052604090205460ff161561083757604051630309cb8760e51b815260040160405180910390fd5b6001600160a01b0381165f818152600160208190526040808320805460ff1916909217909155517f0e3c58ebfb2e7465fbb1c32e6b4f40c3c4f5ca77e8218a386aff8617831260d79190a250565b61088d611dc6565b610895611df2565b565b61089f611dc6565b6001600160a01b0381165f9081526001602052604090205460ff166108d757604051636448d6e960e11b815260040160405180910390fd5b6001600160a01b0381165f81815260016020526040808220805460ff19169055517f37803e2125c48ee96c38ddf04e826daf335b0e1603579040fd275aba6d06b6fc9190a250565b610927611dab565b61092f611e46565b6001600160a01b0385165f9081526001602052604090205460ff1661096757604051636448d6e960e11b815260040160405180910390fd5b835f0361098757604051631f2a200560e01b815260040160405180910390fd5b821580610995575060085483115b156109b357604051633fe89cb960e11b815260040160405180910390fd5b335f9081526002602090815260408083206001600160a01b0389168452909152902060030154610100900460ff16156109ff57604051630dd1bc8b60e31b815260040160405180910390fd5b5f610a0986611e70565b9050805f03610a2a5760405162bfc92160e01b815260040160405180910390fd5b6040516347a7d10760e01b8152336004820152602481018690527f00000000000000000000000000000000000000000000000000000000000000006001600160a01b0316906347a7d107906044015f604051808303815f87803b158015610a8f575f5ffd5b505af1158015610aa1573d5f5f3e3d5ffd5b50505050610ab53387878787865f89611efc565b50610acc60015f516020612bbf5f395f51905f5255565b5050505050565b610adb611dc6565b6108955f612072565b610aec611dab565b610af4611e46565b335f9081526002602081815260408084206001600160a01b03871685528252808420815160e08101835281548152600180830154948201949094529381015491840191909152600381015460ff8082161515606086015261010082048116151560808601526201000082048116151560a0860152919260c0850192630100000090920490911690811115610b8a57610b8a61278b565b6001811115610b9b57610b9b61278b565b8152505090508060800151610bc357604051630a62b8f360e01b815260040160405180910390fd5b5f5f8311610bd957610bd484611e70565b610bdb565b825b90505f610be883836120c1565b335f8181526002602081815260408084206001600160a01b038c16855290915282208281556001810183905590810191909155600301805463ffffffff19169055909150610c3690866121ea565b8260a00151610d2157825160405163857af6a960e01b81523360048201526024810191909152604481018290527f00000000000000000000000000000000000000000000000000000000000000006001600160a01b03169063857af6a9906064015f604051808303815f87803b158015610cae575f5ffd5b505af1158015610cc0573d5f5f3e3d5ffd5b505050505f610cd2845f0151836122fc565b60408051848152602081018390529192506001600160a01b0388169133917f93244fae5418fa8e9c5f44d5a71db8ad3915f828b2b30acb23352cfd9eac46bf910160405180910390a350610d62565b6040518181526001600160a01b0386169033907f7571dc48c190117631cc57fb7b08fd9ee2244471ec998001342a852d391d58c79060200160405180910390a35b5050506107cb60015f516020612bbf5f395f51905f5255565b610d83611dc6565b610895612342565b5f610d9582611e70565b92915050565b610da3611dab565b610dab611e46565b6001600160a01b038084165f908152600360208181526040808420878616855282528084208685528252808420815161010080820184528254881682526001808401549098169482019490945260028201549281019290925292830154606082015260048301546080820152600583015460ff808216151560a08401529495919460c08601939091041690811115610e4557610e4561278b565b6001811115610e5657610e5661278b565b81526005919091015462010000900460ff16151560209091015260e0810151909150610eb55760405162461bcd60e51b815260206004820152600e60248201526d4f7264657220696e61637469766560901b60448201526064016106b7565b5f610ebf84611e70565b90508160a0015115610f24578160800151811115610f1f5760405162461bcd60e51b815260206004820152601760248201527f507269636520746f6f206869676820666f72204c6f6e6700000000000000000060448201526064016106b7565b610f78565b8160800151811015610f785760405162461bcd60e51b815260206004820152601760248201527f507269636520746f6f206c6f7720666f722053686f727400000000000000000060448201526064016106b7565b6001600160a01b038086165f90815260036020908152604080832093881683529281528282208683529052818120600501805462ff000019169055600b5491840151909161271091610fca9190612a52565b610fd49190612a7d565b90505f818460400151610fe79190612a9c565b845160405163b5b3c34760e01b81526001600160a01b039182166004820152336024820152604481018590529192507f0000000000000000000000000000000000000000000000000000000000000000169063b5b3c347906064016020604051808303815f875af115801561105e573d5f5f3e3d5ffd5b505050506040513d601f19601f820116820180604052508101906110829190612aaf565b5061109f87878387606001518860a00151885f8b60c00151611efc565b604080518681526020810185905233916001600160a01b0389811692908b16917f348b974385753e1d75d10b0f8b7ca574d0e0988d031a0e69fb0a7dc6918da45e910160405180910390a45050505061110460015f516020612bbf5f395f51905f5255565b505050565b611111611dab565b611119611e46565b336001600160a01b038316036111425760405163e6c4247b60e01b815260040160405180910390fd5b6001600160a01b038083165f9081526002602081815260408084209486168452938152838320845160e08101865281548152600180830154938201939093529281015494830194909452600384015460ff8082161515606085015261010082048116151560808501526201000082048116151560a08501529394929360c0850192630100000090920416908111156111dc576111dc61278b565b60018111156111ed576111ed61278b565b815250509050806080015161121557604051630a62b8f360e01b815260040160405180910390fd5b5f61121f83611e70565b90505f808360c0015160018111156112395761123961278b565b036112525761124b8383600954612384565b9050611320565b5f61125c866123e1565b60405163067419a560e11b81526001600160a01b0388811660048301529192505f9183917f000000000000000000000000000000000000000000000000000000000000000090911690630ce8334a90602401602060405180830381865afa1580156112c9573d5f5f3e3d5ffd5b505050506040513d601f19601f820116820180604052508101906112ed9190612aca565b6112f79190612ae1565b90505f612710600954875f015161130e9190612a52565b6113189190612a7d565b909112925050505b8061133e57604051630879983f60e21b815260040160405180910390fd5b5f61134984846120c1565b90505f8082121561136d5761135d82612b08565b855190915081111561136d575083515b84515f9061137c908390612a9c565b90505f811580159061138f57505f600a54115b156113b257612710600a54836113a59190612a52565b6113af9190612a7d565b90505b6001600160a01b03808a165f908152600260208181526040808420948d1684529390529181208181556001810182905591820155600301805463ffffffff191690556113fe89896121ea565b8660a0015161159057865160405163857af6a960e01b81526001600160a01b038b811660048301526024820192909252604481018690527f00000000000000000000000000000000000000000000000000000000000000009091169063857af6a9906064015f604051808303815f87803b15801561147a575f5ffd5b505af115801561148c573d5f5f3e3d5ffd5b505050505f8111156115305760405163b5b3c34760e01b81526001600160a01b038a81166004830152336024830152604482018390527f0000000000000000000000000000000000000000000000000000000000000000169063b5b3c347906064016020604051808303815f875af115801561150a573d5f5f3e3d5ffd5b505050506040513d601f19601f8201168201806040525081019061152e9190612aaf565b505b336001600160a01b0316886001600160a01b03168a6001600160a01b03167fa4f681df1da05d0e94882fb0d14f3838123db75925e0eed2d68dd69498ac3670848b60c00151604051611583929190612b22565b60405180910390a46115e8565b336001600160a01b0316886001600160a01b03168a6001600160a01b03167fadbea314d31c3f407fb026800d2a6369bc06a71e495ec45bd38e4055db2b742c846040516115df91815260200190565b60405180910390a45b505050505050506107cb60015f516020612bbf5f395f51905f5255565b61160d611dc6565b612710811061164c5760405162461bcd60e51b815260206004820152600b60248201526a496e76616c69642066656560a81b60448201526064016106b7565b600b55565b611659611dab565b611661611e46565b6001600160a01b0386165f9081526001602052604090205460ff1661169957604051636448d6e960e11b815260040160405180910390fd5b845f036116b957604051631f2a200560e01b815260040160405180910390fd5b8315806116c7575060085484115b156116e557604051633fe89cb960e11b815260040160405180910390fd5b6040516347a7d10760e01b8152336004820152602481018690527f00000000000000000000000000000000000000000000000000000000000000006001600160a01b0316906347a7d107906044015f604051808303815f87803b15801561174a575f5ffd5b505af115801561175c573d5f5f3e3d5ffd5b5050335f90815260046020526040812080549193509091508261177e83612b36565b919050559050604051806101000160405280336001600160a01b03168152602001886001600160a01b0316815260200187815260200186815260200185815260200184151581526020018360018111156117da576117da61278b565b815260016020918201819052335f908152600380845260408083206001600160a01b038e81168552908652818420888552865292819020865181549085166001600160a01b0319918216178255958701518186018054919095169616959095179092559084015160028401556060840151908301556080830151600483015560a083015160058301805491151560ff1983168117825560c086015193919261ff001990911661ffff19909116179061010090849081111561189d5761189d61278b565b021790555060e091909101516005909101805462ff00001916620100009215159290920291909117905560408051828152602081018690528415158183015290516001600160a01b0389169133917fe5ea82d95ba70e4a9b6a16eede28f4bee6299415d84cfb093d9659c1b12cc09b9181900360600190a35061192c60015f516020612bbf5f395f51905f5255565b505050505050565b61193c611dc6565b5f811161197c5760405162461bcd60e51b815260206004820152600e60248201526d43616e6e6f74206265207a65726f60901b60448201526064016106b7565b60068190556040518181527f96b6fbfc5b0d0ba3f9e1a437847bcac5eb211f586d0d54dd7de03883fe0c9f4d906020015b60405180910390a150565b6119f46040805160e0810182525f80825260208201819052918101829052606081018290526080810182905260a081018290529060c082015290565b6001600160a01b038084165f908152600260208181526040808420948716845293815291839020835160e08101855281548152600180830154948201949094529181015493820193909352600383015460ff8082161515606084015261010082048116151560808401526201000082048116151560a084015291939260c0850192630100000090920490911690811115611a9057611a9061278b565b6001811115611aa157611aa161278b565b9052509392505050565b611ab3611dc6565b811580611ac257506127108210155b15611ae057604051630309cb8760e51b815260040160405180910390fd5b6127108110611b0257604051630309cb8760e51b815260040160405180910390fd5b6009829055600a81905560408051838152602081018390527f3c19cd0c3341ec275a341ae31ab13e6d1cfec5825f040281ea8cd010bc265432910160405180910390a15050565b611b51611dc6565b6001600160a01b038116611b785760405163e6c4247b60e01b815260040160405180910390fd5b600780546001600160a01b0319166001600160a01b0383169081179091556040519081527f80bf1ab7207971e7bb872b047e3887814f326c53305b5deb63e8dafe3381eaac906020016119ad565b611bce611dc6565b805f03611bee57604051633fe89cb960e11b815260040160405180910390fd5b60088190556040518181527fb0f01601e93ad2a8fc4106e97567bc037aa114741705be9d80570fd2afa7bf1b906020016119ad565b6007546001600160a01b03163314611c4d576040516282b42960e81b815260040160405180910390fd5b611c55611e46565b6001600160a01b0384165f9081526001602052604090205460ff16611c8d57604051636448d6e960e11b815260040160405180910390fd5b6001600160a01b038581165f90815260026020908152604080832093881683529290522060030154610100900460ff1615611cdb57604051630dd1bc8b60e31b815260040160405180910390fd5b600854811115611cfe57604051633fe89cb960e11b815260040160405180910390fd5b5f611d0885611e70565b9050805f03611d295760405162bfc92160e01b815260040160405180910390fd5b61192c86868585888660015f611efc565b6005602052815f5260405f208181548110611d53575f80fd5b5f918252602090912001546001600160a01b03169150829050565b611d76611dc6565b6001600160a01b038116611d9f57604051631e4fbdf760e01b81525f60048201526024016106b7565b611da881612072565b50565b611db361258e565b60025f516020612bbf5f395f51905f5255565b5f546001600160a01b031633146108955760405163118cdaa760e01b81523360048201526024016106b7565b611dfa6125bd565b5f805460ff60a01b191690557f5db9ee0a495bf2e6ff9c91a7834c1ba4fdd244a5e8aa4e537bd38aeae4b073aa335b6040516001600160a01b03909116815260200160405180910390a1565b5f54600160a01b900460ff16156108955760405163d93c066560e01b815260040160405180910390fd5b6040516341976e0960e01b81526001600160a01b0382811660048301525f917f0000000000000000000000000000000000000000000000000000000000000000909116906341976e0990602401602060405180830381865afa158015611ed8573d5f5f3e3d5ffd5b505050506040513d601f19601f82011682018060405250810190610d959190612aca565b6040518060e0016040528087815260200186815260200184815260200185151581526020016001151581526020018315158152602001826001811115611f4457611f4461278b565b90526001600160a01b03808a165f908152600260208181526040808420948d16845293815291839020845181559184015160018084019190915592840151908201556060830151600382018054608086015160a08701511515620100000262ff0000199115156101000261ff00199515159590951661ffff1990931692909217939093179283168117825560c08601519394919263ff0000001990911663ffff000019909116179063010000009084908111156120035761200361278b565b021790555090505061201588886125e6565b866001600160a01b0316886001600160a01b03167fc46f0afd662c79197e186640f99315fbbb00cbcb21f8b92ff4b6c39dc75c35a88689898887604051612060959493929190612b4e565b60405180910390a35050505050505050565b5f80546001600160a01b038381166001600160a01b0319831681178455604051919092169283917f8be0079c531659141344cd1fd0a4f28419497f9722a3daafe3b4186f6b6457e09190a35050565b5f82604001515f036120e55760405162bfc92160e01b815260040160405180910390fd5b6040830151602084015184515f91670de0b6b3a7640000916121079190612a52565b6121119190612a7d565b90505f5f86606001511561214957508285101580612138576121338685612a9c565b612142565b6121428487612a9c565b915061216f565b5084831015806121625761215d8487612a9c565b61216c565b61216c8685612a9c565b91505b5f8311801561218d5750825f198161218957612189612a69565b0482115b156121ab5760405163162908e360e11b815260040160405180910390fd5b5f84848402816121bd576121bd612a69565b049050816121d5576121ce816126d1565b5f036121de565b6121de816126d1565b98975050505050505050565b6001600160a01b0382165f908152600560205260408120905b81548110156122f657826001600160a01b031682828154811061222857612228612b83565b5f918252602090912001546001600160a01b0316036122ee578154829061225190600190612a9c565b8154811061226157612261612b83565b905f5260205f20015f9054906101000a90046001600160a01b031682828154811061228e5761228e612b83565b905f5260205f20015f6101000a8154816001600160a01b0302191690836001600160a01b03160217905550818054806122c9576122c9612b97565b5f8281526020902081015f1990810180546001600160a01b03191690550190556122f6565b600101612203565b50505050565b5f5f82126123155761230e8284612bab565b9050610d95565b5f61231f83612b08565b905083811015612338576123338185612a9c565b61233a565b5f5b915050610d95565b61234a611e46565b5f805460ff60a01b1916600160a01b1790557f62e78cea01bee320cd4e420270b5ea74000d11b0c9f74754ebdbfc544b05a258611e293390565b5f5f61239085856120c1565b90505f816123a0875f01516126d1565b6123aa9190612ae1565b90505f6123d161271086895f01516123c29190612a52565b6123cc9190612a7d565b6126d1565b90911315925050505b9392505050565b6001600160a01b0381165f9081526005602090815260408083208054825181850281018501909352808352849383018282801561244557602002820191905f5260205f20905b81546001600160a01b03168152600190910190602001808311612427575b509394505f93505050505b8151811015612587576001600160a01b0384165f9081526002602052604081208351829085908590811061248657612486612b83565b6020908102919091018101516001600160a01b031682528181019290925260409081015f20815160e0810183528154815260018083015494820194909452600282015492810192909252600381015460ff8082161515606085015261010082048116151560808501526201000082048116151560a08501529293919260c0850192630100000090920416908111156125205761252061278b565b60018111156125315761253161278b565b81525050905080608001511561257e575f61256484848151811061255757612557612b83565b6020026020010151611e70565b905061257082826120c1565b61257a9086612ae1565b9450505b50600101612450565b5050919050565b5f516020612bbf5f395f51905f525460020361089557604051633ee5aeb560e01b815260040160405180910390fd5b5f54600160a01b900460ff1661089557604051638dfc202b60e01b815260040160405180910390fd5b6001600160a01b0382165f908152600560205260408120905b815481101561264b57826001600160a01b031682828154811061262457612624612b83565b5f918252602090912001546001600160a01b0316036126435750505050565b6001016125ff565b5060065481541061269e5760405162461bcd60e51b815260206004820152601a60248201527f4d617820616374697665206d61726b657473207265616368656400000000000060448201526064016106b7565b80546001810182555f91825260209091200180546001600160a01b0319166001600160a01b039290921691909117905550565b5f6001600160ff1b038211156126fa5760405163162908e360e11b815260040160405180910390fd5b5090565b80356001600160a01b0381168114612714575f5ffd5b919050565b5f5f6040838503121561272a575f5ffd5b612733836126fe565b946020939093013593505050565b5f60208284031215612751575f5ffd5b6123da826126fe565b5f5f6040838503121561276b575f5ffd5b612774836126fe565b9150612782602084016126fe565b90509250929050565b634e487b7160e01b5f52602160045260245ffd5b600281106127bb57634e487b7160e01b5f52602160045260245ffd5b9052565b87815260208101879052604081018690528415156060820152831515608082015282151560a082015260e081016121de60c083018461279f565b8015158114611da8575f5ffd5b803560028110612714575f5ffd5b5f5f5f5f5f60a08688031215612828575f5ffd5b612831866126fe565b94506020860135935060408601359250606086013561284f816127f9565b915061285d60808701612806565b90509295509295909350565b5f5f5f6060848603121561287b575f5ffd5b612884846126fe565b9250612892602085016126fe565b929592945050506040919091013590565b6001600160a01b0389811682528816602082015260408101879052606081018690526080810185905283151560a082015261010081016128e660c083018561279f565b82151560e08301529998505050505050505050565b5f6020828403121561290b575f5ffd5b5035919050565b5f5f5f5f5f5f60c08789031215612927575f5ffd5b612930876126fe565b95506020870135945060408701359350606087013592506080870135612955816127f9565b915061296360a08801612806565b90509295509295509295565b5f60e08201905082518252602083015160208301526040830151604083015260608301511515606083015260808301511515608083015260a0830151151560a083015260c08301516129c460c084018261279f565b5092915050565b5f5f604083850312156129dc575f5ffd5b50508035926020909101359150565b5f5f5f5f5f60a086880312156129ff575f5ffd5b612a08866126fe565b9450612a16602087016126fe565b93506040860135612a26816127f9565b94979396509394606081013594506080013592915050565b634e487b7160e01b5f52601160045260245ffd5b8082028115828204841417610d9557610d95612a3e565b634e487b7160e01b5f52601260045260245ffd5b5f82612a9757634e487b7160e01b5f52601260045260245ffd5b500490565b81810381811115610d9557610d95612a3e565b5f60208284031215612abf575f5ffd5b81516123da816127f9565b5f60208284031215612ada575f5ffd5b5051919050565b8082018281125f831280158216821582161715612b0057612b00612a3e565b505092915050565b5f600160ff1b8201612b1c57612b1c612a3e565b505f0390565b828152604081016123da602083018461279f565b5f60018201612b4757612b47612a3e565b5060010190565b5f60a0820190508615158252856020830152846040830152836060830152612b79608083018461279f565b9695505050505050565b634e487b7160e01b5f52603260045260245ffd5b634e487b7160e01b5f52603160045260245ffd5b80820180821115610d9557610d95612a3e56fe9b779b17422d0df92223018b32b4d1fa46e071723d6817e2486d003becc55f00a2646970667358221220a36b2c0447ce14cf1cf1aec62eb3a0bbd44c02ffcf06a235962516eb42a094ab64736f6c634300081e0033","linkReferences":{}},"methodIdentifiers":{"PRICE_ORACLE()":"0a19399a","VAULT()":"411557d1","addAsset(address)":"298410e5","cancelLimitOrder(address,uint256)":"0f8b0bcf","closePosition(address,uint256)":"742fe1f8","crossChainReceiver()":"2b562448","executeCrossChainTrade(address,address,bool,uint256,uint256)":"ed2f8607","executeLimitOrder(address,address,uint256)":"854ac57c","getCurrentPrice(address)":"84cc315b","getPosition(address,address)":"b33dc190","keeperRewardBps()":"cfd6d5e9","limitOrders(address,address,uint256)":"6d7a62b6","liquidate(address,address)":"86b9d81f","liquidationThresholdBps()":"e4864731","liquidatorFeeBps()":"7798e406","maxActiveAssets()":"1e094103","maxLeverage()":"ae3302c2","openPosition(address,uint256,uint256,bool,uint8)":"6b88061f","owner()":"8da5cb5b","pause()":"8456cb59","paused()":"5c975abb","placeLimitOrder(address,uint256,uint256,uint256,bool,uint8)":"9f11fcb4","positions(address,address)":"4bd21445","removeAsset(address)":"4a5e42b1","renounceOwnership()":"715018a6","setCrossChainReceiver(address)":"cd5ce63c","setKeeperReward(uint256)":"9797fab8","setLiquidationSettings(uint256,uint256)":"bac9a8ea","setMaxActiveAssets(uint256)":"ae59fcbc","setMaxLeverage(uint256)":"d3127e63","transferOwnership(address)":"f2fde38b","unpause()":"3f4ba83a","userActiveAssets(address,uint256)":"ef6e8f6d","userOrderCount(address)":"ec4eb4f9","whitelistedOracles(address)":"43da3ff6"},"id":65}