{"abi":[{"type":"constructor","inputs":[{"name":"_ethFeed","type":"address","internalType":"address"},{"name":"_btcFeed","type":"address","internalType":"address"}],"stateMutability":"nonpayable"},{"type":"function","name":"MIN_UPDATE_INTERVAL","inputs":[],"outputs":[{"name":"","type":"uint256","internalType":"uint256"}],"stateMutability":"view"},{"type":"function","name":"btcFeed","inputs":[],"outputs":[{"name":"","type":"address","internalType":"contract MockAggregatorV3"}],"stateMutability":"view"},{"type":"function","name":"ethFeed","inputs":[],"outputs":[{"name":"","type":"address","internalType":"contract MockAggregatorV3"}],"stateMutability":"view"},{"type":"function","name":"getAllPrices","inputs":[],"outputs":[{"name":"eth","type":"int256","internalType":"int256"},{"name":"btc","type":"int256","internalType":"int256"}],"stateMutability":"view"},{"type":"function","name":"lastUpdateTime","inputs":[],"outputs":[{"name":"","type":"uint256","internalType":"uint256"}],"stateMutability":"view"},{"type":"function","name":"owner","inputs":[],"outputs":[{"name":"","type":"address","internalType":"address"}],"stateMutability":"view"},{"type":"function","name":"renounceOwnership","inputs":[],"outputs":[],"stateMutability":"nonpayable"},{"type":"function","name":"transferOwnership","inputs":[{"name":"newOwner","type":"address","internalType":"address"}],"outputs":[],"stateMutability":"nonpayable"},{"type":"function","name":"updateAllPrices","inputs":[{"name":"_ethPrice","type":"int256","internalType":"int256"},{"name":"_btcPrice","type":"int256","internalType":"int256"}],"outputs":[],"stateMutability":"nonpayable"},{"type":"function","name":"updateBtcPrice","inputs":[{"name":"_btcPrice","type":"int256","internalType":"int256"}],"outputs":[],"stateMutability":"nonpayable"},{"type":"function","name":"updateEthPrice","inputs":[{"name":"_ethPrice","type":"int256","internalType":"int256"}],"outputs":[],"stateMutability":"nonpayable"},{"type":"event","name":"OwnershipTransferred","inputs":[{"name":"previousOwner","type":"address","indexed":true,"internalType":"address"},{"name":"newOwner","type":"address","indexed":true,"internalType":"address"}],"anonymous":false},{"type":"event","name":"PricesUpdated","inputs":[{"name":"ethPrice","type":"int256","indexed":false,"internalType":"int256"},{"name":"btcPrice","type":"int256","indexed":false,"internalType":"int256"},{"name":"timestamp","type":"uint256","indexed":false,"internalType":"uint256"}],"anonymous":false},{"type":"error","name":"OwnableInvalidOwner","inputs":[{"name":"owner","type":"address","internalType":"address"}]},{"type":"error","name":"OwnableUnauthorizedAccount","inputs":[{"name":"account","type":"address","internalType":"address"}]}],"bytecode":{"object":"0x608060405234801561000f575f5ffd5b5060405161087238038061087283398101604081905261002e91610154565b338061005457604051631e4fbdf760e01b81525f60048201526024015b60405180910390fd5b61005d816100ea565b506001600160a01b0382161580159061007e57506001600160a01b03811615155b6100b95760405162461bcd60e51b815260206004820152600c60248201526b5a65726f206164647265737360a01b604482015260640161004b565b600180546001600160a01b039384166001600160a01b03199182161790915560028054929093169116179055610185565b5f80546001600160a01b038381166001600160a01b0319831681178455604051919092169283917f8be0079c531659141344cd1fd0a4f28419497f9722a3daafe3b4186f6b6457e09190a35050565b80516001600160a01b038116811461014f575f5ffd5b919050565b5f5f60408385031215610165575f5ffd5b61016e83610139565b915061017c60208401610139565b90509250929050565b6106e0806101925f395ff3fe608060405234801561000f575f5ffd5b50600436106100a6575f3560e01c80638da5cb5b1161006e5780638da5cb5b14610127578063a0accccd14610137578063bd3be27c1461014a578063c23d2a4a14610160578063c8f33c9114610173578063f2fde38b1461017c575f5ffd5b806309d1ec84146100aa5780630af14a18146100bf578063445df9d6146100d25780635e19d05c146100f4578063715018a61461011f575b5f5ffd5b6100bd6100b836600461060a565b61018f565b005b6100bd6100cd36600461062a565b610331565b6100da6103d5565b604080519283526020830191909152015b60405180910390f35b600154610107906001600160a01b031681565b6040516001600160a01b0390911681526020016100eb565b6100bd6104c7565b5f546001600160a01b0316610107565b6100bd61014536600461062a565b6104da565b610152603c81565b6040519081526020016100eb565b600254610107906001600160a01b031681565b61015260035481565b6100bd61018a366004610641565b610552565b61019761058f565b603c6003546101a6919061066e565b4210156101e95760405162461bcd60e51b815260206004820152600c60248201526b151bdbc8199c995c5d595b9d60a21b60448201526064015b60405180910390fd5b5f821380156101f757505f81135b6102345760405162461bcd60e51b815260206004820152600e60248201526d496e76616c69642070726963657360901b60448201526064016101e0565b600154604051636a60cded60e11b8152600481018490526001600160a01b039091169063d4c19bda906024015f604051808303815f87803b158015610277575f5ffd5b505af1158015610289573d5f5f3e3d5ffd5b5050600254604051636a60cded60e11b8152600481018590526001600160a01b03909116925063d4c19bda91506024015f604051808303815f87803b1580156102d0575f5ffd5b505af11580156102e2573d5f5f3e3d5ffd5b5050426003819055604080518681526020810186905280820192909252517ffac56af0f50845aa1a7e30e32637ceac3b04813d3af86654e4e7d07fefcfe8919350908190036060019150a15050565b61033961058f565b5f81136103785760405162461bcd60e51b815260206004820152600d60248201526c496e76616c696420707269636560981b60448201526064016101e0565b600154604051636a60cded60e11b8152600481018390526001600160a01b039091169063d4c19bda906024015b5f604051808303815f87803b1580156103bc575f5ffd5b505af11580156103ce573d5f5f3e3d5ffd5b5050505050565b5f5f60015f9054906101000a90046001600160a01b03166001600160a01b03166398d5fdca6040518163ffffffff1660e01b8152600401602060405180830381865afa158015610427573d5f5f3e3d5ffd5b505050506040513d601f19601f8201168201806040525081019061044b9190610693565b60025f9054906101000a90046001600160a01b03166001600160a01b03166398d5fdca6040518163ffffffff1660e01b8152600401602060405180830381865afa15801561049b573d5f5f3e3d5ffd5b505050506040513d601f19601f820116820180604052508101906104bf9190610693565b915091509091565b6104cf61058f565b6104d85f6105bb565b565b6104e261058f565b5f81136105215760405162461bcd60e51b815260206004820152600d60248201526c496e76616c696420707269636560981b60448201526064016101e0565b600254604051636a60cded60e11b8152600481018390526001600160a01b039091169063d4c19bda906024016103a5565b61055a61058f565b6001600160a01b03811661058357604051631e4fbdf760e01b81525f60048201526024016101e0565b61058c816105bb565b50565b5f546001600160a01b031633146104d85760405163118cdaa760e01b81523360048201526024016101e0565b5f80546001600160a01b038381166001600160a01b0319831681178455604051919092169283917f8be0079c531659141344cd1fd0a4f28419497f9722a3daafe3b4186f6b6457e09190a35050565b5f5f6040838503121561061b575f5ffd5b50508035926020909101359150565b5f6020828403121561063a575f5ffd5b5035919050565b5f60208284031215610651575f5ffd5b81356001600160a01b0381168114610667575f5ffd5b9392505050565b8082018082111561068d57634e487b7160e01b5f52601160045260245ffd5b92915050565b5f602082840312156106a3575f5ffd5b505191905056fea26469706673582212203c397dcfbfd60d3fbbba376dfa2e432d3a260302df7fbf9001baa1e53ef5ccb264736f6c634300081e0033","linkReferences":{}},"methodIdentifiers":{"MIN_UPDATE_INTERVAL()":"bd3be27c","btcFeed()":"c23d2a4a","ethFeed()":"5e19d05c","getAllPrices()":"445df9d6","lastUpdateTime()":"c8f33c91","owner()":"8da5cb5b","renounceOwnership()":"715018a6","transferOwnership(address)":"f2fde38b","updateAllPrices(int256,int256)":"09d1ec84","updateBtcPrice(int256)":"a0accccd","updateEthPrice(int256)":"0af14a18"},"id":9}