{"abi":[{"type":"constructor","inputs":[],"stateMutability":"nonpayable"},{"type":"function","name":"feeds","inputs":[{"name":"","type":"address","internalType":"address"}],"outputs":[{"name":"","type":"address","internalType":"contract AggregatorV3Interface"}],"stateMutability":"view"},{"type":"function","name":"getPrice","inputs":[{"name":"_token","type":"address","internalType":"address"}],"outputs":[{"name":"","type":"uint256","internalType":"uint256"}],"stateMutability":"view"},{"type":"function","name":"heartbeats","inputs":[{"name":"","type":"address","internalType":"address"}],"outputs":[{"name":"","type":"uint256","internalType":"uint256"}],"stateMutability":"view"},{"type":"function","name":"owner","inputs":[],"outputs":[{"name":"","type":"address","internalType":"address"}],"stateMutability":"view"},{"type":"function","name":"renounceOwnership","inputs":[],"outputs":[],"stateMutability":"nonpayable"},{"type":"function","name":"setAsset","inputs":[{"name":"_token","type":"address","internalType":"address"},{"name":"_feed","type":"address","internalType":"address"},{"name":"_heartbeat","type":"uint256","internalType":"uint256"}],"outputs":[],"stateMutability":"nonpayable"},{"type":"function","name":"transferOwnership","inputs":[{"name":"newOwner","type":"address","internalType":"address"}],"outputs":[],"stateMutability":"nonpayable"},{"type":"event","name":"AssetSet","inputs":[{"name":"token","type":"address","indexed":true,"internalType":"address"},{"name":"feed","type":"address","indexed":true,"internalType":"address"},{"name":"heartbeat","type":"uint256","indexed":false,"internalType":"uint256"}],"anonymous":false},{"type":"event","name":"OwnershipTransferred","inputs":[{"name":"previousOwner","type":"address","indexed":true,"internalType":"address"},{"name":"newOwner","type":"address","indexed":true,"internalType":"address"}],"anonymous":false},{"type":"error","name":"InvalidAddress","inputs":[]},{"type":"error","name":"InvalidAsset","inputs":[]},{"type":"error","name":"InvalidParameter","inputs":[]},{"type":"error","name":"InvalidPrice","inputs":[]},{"type":"error","name":"OwnableInvalidOwner","inputs":[{"name":"owner","type":"address","internalType":"address"}]},{"type":"error","name":"OwnableUnauthorizedAccount","inputs":[{"name":"account","type":"address","internalType":"address"}]},{"type":"error","name":"StalePrice","inputs":[]}],"bytecode":{"object":"0x6080604052348015600e575f5ffd5b503380603357604051631e4fbdf760e01b81525f600482015260240160405180910390fd5b603a81603f565b50608e565b5f80546001600160a01b038381166001600160a01b0319831681178455604051919092169283917f8be0079c531659141344cd1fd0a4f28419497f9722a3daafe3b4186f6b6457e09190a35050565b6107008061009b5f395ff3fe608060405234801561000f575f5ffd5b506004361061007a575f3560e01c806341976e091161005857806341976e0914610105578063715018a6146101185780638da5cb5b14610120578063f2fde38b14610130575f5ffd5b806302f100881461007e5780632fba4aa9146100b05780633ba12835146100f0575b5f5ffd5b61009d61008c3660046104b8565b60026020525f908152604090205481565b6040519081526020015b60405180910390f35b6100d86100be3660046104b8565b60016020525f90815260409020546001600160a01b031681565b6040516001600160a01b0390911681526020016100a7565b6101036100fe3660046104d8565b610143565b005b61009d6101133660046104b8565b610215565b6101036103cd565b5f546001600160a01b03166100d8565b61010361013e3660046104b8565b6103e0565b61014b610422565b6001600160a01b038316158061016857506001600160a01b038216155b156101865760405163e6c4247b60e01b815260040160405180910390fd5b805f036101a657604051630309cb8760e51b815260040160405180910390fd5b6001600160a01b038381165f81815260016020908152604080832080546001600160a01b0319169588169586179055600282529182902085905590518481527f367a18f743fb316b97d07f95dd3128767b8947e4fe2e38e6dbd8878098c00427910160405180910390a3505050565b6001600160a01b038082165f908152600160205260408120549091168061024f57604051636448d6e960e11b815260040160405180910390fd5b5f5f826001600160a01b031663feaf968c6040518163ffffffff1660e01b815260040160a060405180830381865afa15801561028d573d5f5f3e3d5ffd5b505050506040513d601f19601f820116820180604052508101906102b1919061052a565b509350509250505f82136102d75760405162bfc92160e01b815260040160405180910390fd5b6001600160a01b0385165f908152600260205260409020546102f9824261058c565b111561031857604051630cd5fa0760e11b815260040160405180910390fd5b5f836001600160a01b031663313ce5676040518163ffffffff1660e01b8152600401602060405180830381865afa158015610355573d5f5f3e3d5ffd5b505050506040513d601f19601f8201168201806040525081019061037991906105a5565b905060128160ff1611156103a057604051630309cb8760e51b815260040160405180910390fd5b6103ae60ff8216601261058c565b6103b990600a6106a8565b6103c390846106b3565b9695505050505050565b6103d5610422565b6103de5f61044e565b565b6103e8610422565b6001600160a01b03811661041657604051631e4fbdf760e01b81525f60048201526024015b60405180910390fd5b61041f8161044e565b50565b5f546001600160a01b031633146103de5760405163118cdaa760e01b815233600482015260240161040d565b5f80546001600160a01b038381166001600160a01b0319831681178455604051919092169283917f8be0079c531659141344cd1fd0a4f28419497f9722a3daafe3b4186f6b6457e09190a35050565b80356001600160a01b03811681146104b3575f5ffd5b919050565b5f602082840312156104c8575f5ffd5b6104d18261049d565b9392505050565b5f5f5f606084860312156104ea575f5ffd5b6104f38461049d565b92506105016020850161049d565b9150604084013590509250925092565b805169ffffffffffffffffffff811681146104b3575f5ffd5b5f5f5f5f5f60a0868803121561053e575f5ffd5b61054786610511565b6020870151604088015160608901519297509095509350915061056c60808701610511565b90509295509295909350565b634e487b7160e01b5f52601160045260245ffd5b8181038181111561059f5761059f610578565b92915050565b5f602082840312156105b5575f5ffd5b815160ff811681146104d1575f5ffd5b6001815b6001841115610600578085048111156105e4576105e4610578565b60018416156105f257908102905b60019390931c9280026105c9565b935093915050565b5f826106165750600161059f565b8161062257505f61059f565b816001811461063857600281146106425761065e565b600191505061059f565b60ff84111561065357610653610578565b50506001821b61059f565b5060208310610133831016604e8410600b8410161715610681575081810a61059f565b61068d5f1984846105c5565b805f19048211156106a0576106a0610578565b029392505050565b5f6104d18383610608565b808202811582820484141761059f5761059f61057856fea2646970667358221220e78494519692fb0ef92afb1a8c7d692e8e281797957a95c85603457c8e8475a064736f6c634300081e0033","linkReferences":{}},"methodIdentifiers":{"feeds(address)":"2fba4aa9","getPrice(address)":"41976e09","heartbeats(address)":"02f10088","owner()":"8da5cb5b","renounceOwnership()":"715018a6","setAsset(address,address,uint256)":"3ba12835","transferOwnership(address)":"f2fde38b"},"id":74}