{
    "abi": [
        {
            "type": "constructor",
            "inputs": [
                {
                    "name": "_implementation",
                    "type": "address",
                    "internalType": "address"
                }
            ],
            "stateMutability": "nonpayable"
        },
        {
            "type": "function",
            "name": "ACCOUNT_IMPLEMENTATION",
            "inputs": [],
            "outputs": [
                {
                    "name": "",
                    "type": "address",
                    "internalType": "address"
                }
            ],
            "stateMutability": "view"
        },
        {
            "type": "function",
            "name": "createAccount",
            "inputs": [
                {
                    "name": "owner",
                    "type": "address",
                    "internalType": "address"
                },
                {
                    "name": "salt",
                    "type": "uint256",
                    "internalType": "uint256"
                }
            ],
            "outputs": [
                {
                    "name": "account",
                    "type": "address",
                    "internalType": "contract SmartAccount"
                }
            ],
            "stateMutability": "nonpayable"
        },
        {
            "type": "function",
            "name": "getAddress",
            "inputs": [
                {
                    "name": "owner",
                    "type": "address",
                    "internalType": "address"
                },
                {
                    "name": "salt",
                    "type": "uint256",
                    "internalType": "uint256"
                }
            ],
            "outputs": [
                {
                    "name": "",
                    "type": "address",
                    "internalType": "address"
                }
            ],
            "stateMutability": "view"
        },
        {
            "type": "event",
            "name": "AccountCreated",
            "inputs": [
                {
                    "name": "account",
                    "type": "address",
                    "indexed": true,
                    "internalType": "address"
                },
                {
                    "name": "owner",
                    "type": "address",
                    "indexed": true,
                    "internalType": "address"
                }
            ],
            "anonymous": false
        },
        {
            "type": "error",
            "name": "FailedDeployment",
            "inputs": []
        },
        {
            "type": "error",
            "name": "InsufficientBalance",
            "inputs": [
                {
                    "name": "balance",
                    "type": "uint256",
                    "internalType": "uint256"
                },
                {
                    "name": "needed",
                    "type": "uint256",
                    "internalType": "uint256"
                }
            ]
        },
        {
            "type": "error",
            "name": "InvalidAddress",
            "inputs": []
        },
        {
            "type": "error",
            "name": "InvalidOwner",
            "inputs": []
        }
    ],
    "bytecode": {
        "object": "0x60a060405234801561000f575f5ffd5b506040516104bd3803806104bd83398101604081905261002e91610066565b6001600160a01b0381166100555760405163e6c4247b60e01b815260040160405180910390fd5b6001600160a01b0316608052610093565b5f60208284031215610076575f5ffd5b81516001600160a01b038116811461008c575f5ffd5b9392505050565b6080516103fe6100bf5f395f818160480152818161012401528181610173015261028801526103fe5ff3fe608060405234801561000f575f5ffd5b506004361061003f575f3560e01c8063290ab984146100435780635fbfb9cf146100865780638cb84e1814610099575b5f5ffd5b61006a7f000000000000000000000000000000000000000000000000000000000000000081565b6040516001600160a01b03909116815260200160405180910390f35b61006a610094366004610393565b6100ac565b61006a6100a7366004610393565b610237565b5f6001600160a01b0383166100d4576040516349e27cff60e01b815260040160405180910390fd5b6040516bffffffffffffffffffffffff19606085901b166020820152603481018390525f9060540160408051601f19818403018152919052805160209091012090505f61014a6001600160a01b037f000000000000000000000000000000000000000000000000000000000000000016836102b6565b90506001600160a01b0381163b156101655791506102319050565b5f6101996001600160a01b037f00000000000000000000000000000000000000000000000000000000000000001684610321565b60405163189acdbd60e31b81526001600160a01b0388811660048301529195508592509082169063c4d66de8906024015f604051808303815f87803b1580156101e0575f5ffd5b505af11580156101f2573d5f5f3e3d5ffd5b50506040516001600160a01b03808a169350841691507fac631f3001b55ea1509cf3d7e74898f85392a61a76e8149181ae1259622dabc8905f90a35050505b92915050565b6040516bffffffffffffffffffffffff19606084901b166020820152603481018290525f90819060540160408051601f19818403018152919052805160209091012090506102ae6001600160a01b037f000000000000000000000000000000000000000000000000000000000000000016826102b6565b949350505050565b6040513060388201526f5af43d82803e903d91602b57fd5bf3ff602482015260148101839052733d602d80600a3d3981f3363d3d373d3d3d363d738152605881018290526037600c820120607882015260556043909101205f906001600160a01b03165b9392505050565b5f61031a83838380763d602d80600a3d3981f3363d3d373d3d3d363d730000008460601b60e81c175f526e5af43d82803e903d91602b57fd5bf38460781b17602052826037600984f590506001600160a01b03811661031a5760405163b06ebf3d60e01b815260040160405180910390fd5b5f5f604083850312156103a4575f5ffd5b82356001600160a01b03811681146103ba575f5ffd5b94602093909301359350505056fea2646970667358221220984e86fa3939442b6d1e366c8b78724215bed65074872770f83e2665b4a8182b64736f6c634300081e0033",
        "linkReferences": {}
    },
    "methodIdentifiers": {
        "ACCOUNT_IMPLEMENTATION()": "290ab984",
        "createAccount(address,uint256)": "5fbfb9cf",
        "getAddress(address,uint256)": "8cb84e18"
    },
    "id": 53
}