{
    "abi": [
        {
            "type": "constructor",
            "inputs": [
                {
                    "name": "_ccipRouter",
                    "type": "address",
                    "internalType": "address"
                }
            ],
            "stateMutability": "nonpayable"
        },
        {
            "type": "function",
            "name": "CCIP_ROUTER",
            "inputs": [],
            "outputs": [
                {
                    "name": "",
                    "type": "address",
                    "internalType": "contract IRouterClient"
                }
            ],
            "stateMutability": "view"
        },
        {
            "type": "function",
            "name": "destinationGasLimit",
            "inputs": [],
            "outputs": [
                {
                    "name": "",
                    "type": "uint256",
                    "internalType": "uint256"
                }
            ],
            "stateMutability": "view"
        },
        {
            "type": "function",
            "name": "destinationReceivers",
            "inputs": [
                {
                    "name": "",
                    "type": "uint64",
                    "internalType": "uint64"
                }
            ],
            "outputs": [
                {
                    "name": "",
                    "type": "address",
                    "internalType": "address"
                }
            ],
            "stateMutability": "view"
        },
        {
            "type": "function",
            "name": "estimateFee",
            "inputs": [
                {
                    "name": "_trader",
                    "type": "address",
                    "internalType": "address"
                },
                {
                    "name": "_destChainSelector",
                    "type": "uint64",
                    "internalType": "uint64"
                },
                {
                    "name": "_token",
                    "type": "address",
                    "internalType": "address"
                },
                {
                    "name": "_isLong",
                    "type": "bool",
                    "internalType": "bool"
                },
                {
                    "name": "_margin",
                    "type": "uint256",
                    "internalType": "uint256"
                },
                {
                    "name": "_leverage",
                    "type": "uint256",
                    "internalType": "uint256"
                }
            ],
            "outputs": [
                {
                    "name": "",
                    "type": "uint256",
                    "internalType": "uint256"
                }
            ],
            "stateMutability": "view"
        },
        {
            "type": "function",
            "name": "operationalBalance",
            "inputs": [],
            "outputs": [
                {
                    "name": "",
                    "type": "uint256",
                    "internalType": "uint256"
                }
            ],
            "stateMutability": "view"
        },
        {
            "type": "function",
            "name": "owner",
            "inputs": [],
            "outputs": [
                {
                    "name": "",
                    "type": "address",
                    "internalType": "address"
                }
            ],
            "stateMutability": "view"
        },
        {
            "type": "function",
            "name": "pause",
            "inputs": [],
            "outputs": [],
            "stateMutability": "nonpayable"
        },
        {
            "type": "function",
            "name": "paused",
            "inputs": [],
            "outputs": [
                {
                    "name": "",
                    "type": "bool",
                    "internalType": "bool"
                }
            ],
            "stateMutability": "view"
        },
        {
            "type": "function",
            "name": "removeDestinationChain",
            "inputs": [
                {
                    "name": "_chainSelector",
                    "type": "uint64",
                    "internalType": "uint64"
                }
            ],
            "outputs": [],
            "stateMutability": "nonpayable"
        },
        {
            "type": "function",
            "name": "renounceOwnership",
            "inputs": [],
            "outputs": [],
            "stateMutability": "nonpayable"
        },
        {
            "type": "function",
            "name": "rescueFunds",
            "inputs": [
                {
                    "name": "_token",
                    "type": "address",
                    "internalType": "address"
                },
                {
                    "name": "_amount",
                    "type": "uint256",
                    "internalType": "uint256"
                }
            ],
            "outputs": [],
            "stateMutability": "nonpayable"
        },
        {
            "type": "function",
            "name": "sendTradeRequest",
            "inputs": [
                {
                    "name": "_destChainSelector",
                    "type": "uint64",
                    "internalType": "uint64"
                },
                {
                    "name": "_token",
                    "type": "address",
                    "internalType": "address"
                },
                {
                    "name": "_isLong",
                    "type": "bool",
                    "internalType": "bool"
                },
                {
                    "name": "_margin",
                    "type": "uint256",
                    "internalType": "uint256"
                },
                {
                    "name": "_leverage",
                    "type": "uint256",
                    "internalType": "uint256"
                }
            ],
            "outputs": [
                {
                    "name": "messageId",
                    "type": "bytes32",
                    "internalType": "bytes32"
                }
            ],
            "stateMutability": "payable"
        },
        {
            "type": "function",
            "name": "setDestinationChain",
            "inputs": [
                {
                    "name": "_chainSelector",
                    "type": "uint64",
                    "internalType": "uint64"
                },
                {
                    "name": "_receiver",
                    "type": "address",
                    "internalType": "address"
                }
            ],
            "outputs": [],
            "stateMutability": "nonpayable"
        },
        {
            "type": "function",
            "name": "setDestinationGasLimit",
            "inputs": [
                {
                    "name": "_newLimit",
                    "type": "uint256",
                    "internalType": "uint256"
                }
            ],
            "outputs": [],
            "stateMutability": "nonpayable"
        },
        {
            "type": "function",
            "name": "supportedChains",
            "inputs": [
                {
                    "name": "",
                    "type": "uint64",
                    "internalType": "uint64"
                }
            ],
            "outputs": [
                {
                    "name": "",
                    "type": "bool",
                    "internalType": "bool"
                }
            ],
            "stateMutability": "view"
        },
        {
            "type": "function",
            "name": "transferOwnership",
            "inputs": [
                {
                    "name": "newOwner",
                    "type": "address",
                    "internalType": "address"
                }
            ],
            "outputs": [],
            "stateMutability": "nonpayable"
        },
        {
            "type": "function",
            "name": "unpause",
            "inputs": [],
            "outputs": [],
            "stateMutability": "nonpayable"
        },
        {
            "type": "function",
            "name": "userNonces",
            "inputs": [
                {
                    "name": "",
                    "type": "address",
                    "internalType": "address"
                }
            ],
            "outputs": [
                {
                    "name": "",
                    "type": "uint256",
                    "internalType": "uint256"
                }
            ],
            "stateMutability": "view"
        },
        {
            "type": "event",
            "name": "ChainRemoved",
            "inputs": [
                {
                    "name": "chainSelector",
                    "type": "uint64",
                    "indexed": true,
                    "internalType": "uint64"
                }
            ],
            "anonymous": false
        },
        {
            "type": "event",
            "name": "ChainSupported",
            "inputs": [
                {
                    "name": "chainSelector",
                    "type": "uint64",
                    "indexed": true,
                    "internalType": "uint64"
                },
                {
                    "name": "receiver",
                    "type": "address",
                    "indexed": false,
                    "internalType": "address"
                }
            ],
            "anonymous": false
        },
        {
            "type": "event",
            "name": "GasLimitUpdated",
            "inputs": [
                {
                    "name": "oldLimit",
                    "type": "uint256",
                    "indexed": false,
                    "internalType": "uint256"
                },
                {
                    "name": "newLimit",
                    "type": "uint256",
                    "indexed": false,
                    "internalType": "uint256"
                }
            ],
            "anonymous": false
        },
        {
            "type": "event",
            "name": "OwnershipTransferred",
            "inputs": [
                {
                    "name": "previousOwner",
                    "type": "address",
                    "indexed": true,
                    "internalType": "address"
                },
                {
                    "name": "newOwner",
                    "type": "address",
                    "indexed": true,
                    "internalType": "address"
                }
            ],
            "anonymous": false
        },
        {
            "type": "event",
            "name": "Paused",
            "inputs": [
                {
                    "name": "account",
                    "type": "address",
                    "indexed": false,
                    "internalType": "address"
                }
            ],
            "anonymous": false
        },
        {
            "type": "event",
            "name": "TradeRequestSent",
            "inputs": [
                {
                    "name": "messageId",
                    "type": "bytes32",
                    "indexed": true,
                    "internalType": "bytes32"
                },
                {
                    "name": "destinationChain",
                    "type": "uint64",
                    "indexed": true,
                    "internalType": "uint64"
                },
                {
                    "name": "trader",
                    "type": "address",
                    "indexed": true,
                    "internalType": "address"
                },
                {
                    "name": "nonce",
                    "type": "uint256",
                    "indexed": false,
                    "internalType": "uint256"
                },
                {
                    "name": "feePaid",
                    "type": "uint256",
                    "indexed": false,
                    "internalType": "uint256"
                }
            ],
            "anonymous": false
        },
        {
            "type": "event",
            "name": "Unpaused",
            "inputs": [
                {
                    "name": "account",
                    "type": "address",
                    "indexed": false,
                    "internalType": "address"
                }
            ],
            "anonymous": false
        },
        {
            "type": "error",
            "name": "EnforcedPause",
            "inputs": []
        },
        {
            "type": "error",
            "name": "ExpectedPause",
            "inputs": []
        },
        {
            "type": "error",
            "name": "InsufficientFunds",
            "inputs": []
        },
        {
            "type": "error",
            "name": "InvalidAddress",
            "inputs": []
        },
        {
            "type": "error",
            "name": "InvalidParameter",
            "inputs": []
        },
        {
            "type": "error",
            "name": "OwnableInvalidOwner",
            "inputs": [
                {
                    "name": "owner",
                    "type": "address",
                    "internalType": "address"
                }
            ]
        },
        {
            "type": "error",
            "name": "OwnableUnauthorizedAccount",
            "inputs": [
                {
                    "name": "account",
                    "type": "address",
                    "internalType": "address"
                }
            ]
        },
        {
            "type": "error",
            "name": "ReentrancyGuardReentrantCall",
            "inputs": []
        },
        {
            "type": "error",
            "name": "SafeERC20FailedOperation",
            "inputs": [
                {
                    "name": "token",
                    "type": "address",
                    "internalType": "address"
                }
            ]
        },
        {
            "type": "error",
            "name": "ZeroAmount",
            "inputs": []
        }
    ],
    "bytecode": {
        "object": "0x60a060405262061a80600155348015610016575f5ffd5b506040516114613803806114618339810160408190526100359161010f565b338061005a57604051631e4fbdf760e01b81525f600482015260240160405180910390fd5b610063816100c0565b5060017f9b779b17422d0df92223018b32b4d1fa46e071723d6817e2486d003becc55f00556001600160a01b0381166100af5760405163e6c4247b60e01b815260040160405180910390fd5b6001600160a01b031660805261013c565b5f80546001600160a01b038381166001600160a01b0319831681178455604051919092169283917f8be0079c531659141344cd1fd0a4f28419497f9722a3daafe3b4186f6b6457e09190a35050565b5f6020828403121561011f575f5ffd5b81516001600160a01b0381168114610135575f5ffd5b9392505050565b6080516112f86101695f395f818161034c0152818161043601528181610676015261073b01526112f85ff3fe608060405260043610610105575f3560e01c8063715018a611610092578063d3977af711610062578063d3977af7146102ba578063f2fde38b146102d9578063f865216e146102f8578063f9c3f3321461030d578063fe5f42ca1461033b575f5ffd5b8063715018a61461025757806378e3214f1461026b5780638456cb591461028a5780638da5cb5b1461029e575f5ffd5b80633bdcb91a116100d85780633bdcb91a1461019c5780633f4ba83a146101af578063550fa001146101c35780635c975abb146101e2578063611a7a931461020b575f5ffd5b80630596ccf3146101095780630e72e0731461013b5780632f7801f4146101505780633208761a1461017b575b5f5ffd5b348015610114575f5ffd5b50610128610123366004610fb5565b61036e565b6040519081526020015b60405180910390f35b348015610146575f5ffd5b5061012860015481565b34801561015b575f5ffd5b5061012861016a366004611017565b60056020525f908152604090205481565b348015610186575f5ffd5b5061019a610195366004611037565b6104ba565b005b6101286101aa366004611050565b610523565b3480156101ba575f5ffd5b5061019a6108b0565b3480156101ce575f5ffd5b5061019a6101dd3660046110a1565b6108c2565b3480156101ed575f5ffd5b505f54600160a01b900460ff165b6040519015158152602001610132565b348015610216575f5ffd5b5061023f610225366004611037565b60046020525f90815260409020546001600160a01b031681565b6040516001600160a01b039091168152602001610132565b348015610262575f5ffd5b5061019a610970565b348015610276575f5ffd5b5061019a6102853660046110d2565b610981565b348015610295575f5ffd5b5061019a610b1d565b3480156102a9575f5ffd5b505f546001600160a01b031661023f565b3480156102c5575f5ffd5b5061019a6102d43660046110fa565b610b2d565b3480156102e4575f5ffd5b5061019a6102f3366004611017565b610bab565b348015610303575f5ffd5b5061012860025481565b348015610318575f5ffd5b506101fb610327366004611037565b60036020525f908152604090205460ff1681565b348015610346575f5ffd5b5061023f7f000000000000000000000000000000000000000000000000000000000000000081565b67ffffffffffffffff85165f9081526003602052604081205460ff166103a757604051630309cb8760e51b815260040160405180910390fd5b6001600160a01b0387165f9081526005602090815260408083205490519092916103dd918b9185918b918b918b918b9101611111565b60408051601f1981840301815291815267ffffffffffffffff8a165f9081526004602052908120549192509061041c906001600160a01b031683610be8565b6040516320487ded60e01b81529091506001600160a01b037f000000000000000000000000000000000000000000000000000000000000000016906320487ded9061046d908c90859060040161117a565b602060405180830381865afa158015610488573d5f5f3e3d5ffd5b505050506040513d601f19601f820116820180604052508101906104ac9190611259565b9a9950505050505050505050565b6104c2610d09565b67ffffffffffffffff81165f818152600360209081526040808320805460ff19169055600490915280822080546001600160a01b0319169055517f5204aec90a3c794d8e90fded8b46ae9c7c552803e7e832e0c1d358396d8599169190a250565b5f61052c610d35565b610534610d63565b67ffffffffffffffff86165f9081526003602052604090205460ff1661056d57604051630309cb8760e51b815260040160405180910390fd5b67ffffffffffffffff86165f908152600460205260409020546001600160a01b03168015806105a357506001600160a01b038616155b156105c15760405163e6c4247b60e01b815260040160405180910390fd5b835f036105e157604051631f2a200560e01b815260040160405180910390fd5b825f0361060157604051630309cb8760e51b815260040160405180910390fd5b3460025f8282546106129190611284565b9091555050335f90815260056020526040812080549182919061063483611297565b91905055505f33828989898960405160200161065596959493929190611111565b60405160208183030381529060405290505f6106718483610be8565b90505f7f00000000000000000000000000000000000000000000000000000000000000006001600160a01b03166320487ded8c846040518363ffffffff1660e01b81526004016106c292919061117a565b602060405180830381865afa1580156106dd573d5f5f3e3d5ffd5b505050506040513d601f19601f820116820180604052508101906107019190611259565b9050803410156107245760405163356680b760e01b815260040160405180910390fd5b6040516396f4e9f960e01b81526001600160a01b037f000000000000000000000000000000000000000000000000000000000000000016906396f4e9f9908390610774908f90879060040161117a565b60206040518083038185885af1158015610790573d5f5f3e3d5ffd5b50505050506040513d601f19601f820116820180604052508101906107b59190611259565b6040805186815260208101849052919750339167ffffffffffffffff8e169189917fdf5f8c30f1f7680a5d5151507d8215684459f67ca7dd4188fe0d9dfb0eee7590910160405180910390a45f61080c82346112af565b90503460025f82825461081f91906112af565b90915550508015610878576040515f903390610bb890849084818181858888f193505050503d805f811461086e576040519150601f19603f3d011682016040523d82523d5f602084013e610873565b606091505b505050505b5050505050506108a760017f9b779b17422d0df92223018b32b4d1fa46e071723d6817e2486d003becc55f0055565b95945050505050565b6108b8610d09565b6108c0610d8d565b565b6108ca610d09565b6001600160a01b0381166108f15760405163e6c4247b60e01b815260040160405180910390fd5b67ffffffffffffffff82165f818152600360209081526040808320805460ff19166001179055600482529182902080546001600160a01b0386166001600160a01b0319909116811790915591519182527f5eae396f2b7b16171a6ee2dfd5c22e1de648d50975e4aae18d358f9dca2db766910160405180910390a25050565b610978610d09565b6108c05f610de1565b610989610d09565b6001600160a01b038216610a68575f600254476109a691906112af565b9050808211156109c95760405163356680b760e01b815260040160405180910390fd5b5f80546040516001600160a01b039091169084908381818185875af1925050503d805f8114610a13576040519150601f19603f3d011682016040523d82523d5f602084013e610a18565b606091505b5050905080610a625760405162461bcd60e51b8152602060048201526011602482015270115512081c995cd8dd594819985a5b1959607a1b60448201526064015b60405180910390fd5b50505050565b6040516370a0823160e01b81523060048201525f906001600160a01b038416906370a0823190602401602060405180830381865afa158015610aac573d5f5f3e3d5ffd5b505050506040513d601f19601f82011682018060405250810190610ad09190611259565b905080821115610af35760405163356680b760e01b815260040160405180910390fd5b610b18610b075f546001600160a01b031690565b6001600160a01b0385169084610e30565b505050565b610b25610d09565b6108c0610e65565b610b35610d09565b620186a0811080610b485750622dc6c081115b15610b6657604051630309cb8760e51b815260040160405180910390fd5b600180549082905560408051828152602081018490527fccba8ee022ceb982c6ae406cb531d13a08c23aec7eec7406c1f34693bb650bf6910160405180910390a15050565b610bb3610d09565b6001600160a01b038116610bdc57604051631e4fbdf760e01b81525f6004820152602401610a59565b610be581610de1565b50565b610c226040518060a001604052806060815260200160608152602001606081526020015f6001600160a01b03168152602001606081525090565b6040805160a081019091526001600160a01b03841660c08201528060e0810160408051808303601f19018152918152908252602080830186905281515f8082529181018352929091019190610c98565b604080518082019091525f8082526020820152815260200190600190039081610c725790505b5081526020015f6001600160a01b03168152602001610cfe604051806020016040528060015481525060408051915160248084019190915281518084039091018152604490920190526020810180516001600160e01b03166397a657c960e01b17905290565b905290505b92915050565b5f546001600160a01b031633146108c05760405163118cdaa760e01b8152336004820152602401610a59565b610d3d610ea7565b60027f9b779b17422d0df92223018b32b4d1fa46e071723d6817e2486d003becc55f0055565b5f54600160a01b900460ff16156108c05760405163d93c066560e01b815260040160405180910390fd5b610d95610ee9565b5f805460ff60a01b191690557f5db9ee0a495bf2e6ff9c91a7834c1ba4fdd244a5e8aa4e537bd38aeae4b073aa335b6040516001600160a01b03909116815260200160405180910390a1565b5f80546001600160a01b038381166001600160a01b0319831681178455604051919092169283917f8be0079c531659141344cd1fd0a4f28419497f9722a3daafe3b4186f6b6457e09190a35050565b610e3d8383836001610f12565b610b1857604051635274afe760e01b81526001600160a01b0384166004820152602401610a59565b610e6d610d63565b5f805460ff60a01b1916600160a01b1790557f62e78cea01bee320cd4e420270b5ea74000d11b0c9f74754ebdbfc544b05a258610dc43390565b7f9b779b17422d0df92223018b32b4d1fa46e071723d6817e2486d003becc55f00546002036108c057604051633ee5aeb560e01b815260040160405180910390fd5b5f54600160a01b900460ff166108c057604051638dfc202b60e01b815260040160405180910390fd5b60405163a9059cbb60e01b5f8181526001600160a01b038616600452602485905291602083604481808b5af1925060015f51148316610f68578383151615610f5c573d5f823e3d81fd5b5f873b113d1516831692505b60405250949350505050565b80356001600160a01b0381168114610f8a575f5ffd5b919050565b803567ffffffffffffffff81168114610f8a575f5ffd5b80358015158114610f8a575f5ffd5b5f5f5f5f5f5f60c08789031215610fca575f5ffd5b610fd387610f74565b9550610fe160208801610f8f565b9450610fef60408801610f74565b9350610ffd60608801610fa6565b9598949750929560808101359460a0909101359350915050565b5f60208284031215611027575f5ffd5b61103082610f74565b9392505050565b5f60208284031215611047575f5ffd5b61103082610f8f565b5f5f5f5f5f60a08688031215611064575f5ffd5b61106d86610f8f565b945061107b60208701610f74565b935061108960408701610fa6565b94979396509394606081013594506080013592915050565b5f5f604083850312156110b2575f5ffd5b6110bb83610f8f565b91506110c960208401610f74565b90509250929050565b5f5f604083850312156110e3575f5ffd5b6110ec83610f74565b946020939093013593505050565b5f6020828403121561110a575f5ffd5b5035919050565b6001600160a01b039687168152602081019590955292909416604084015215156060830152608082019290925260a081019190915260c00190565b5f81518084528060208401602086015e5f602082860101526020601f19601f83011685010191505092915050565b67ffffffffffffffff83168152604060208201525f825160a060408401526111a560e084018261114c565b90506020840151603f198483030160608501526111c2828261114c565b6040860151858203603f190160808701528051808352602091820194505f93509101905b8083101561121d57835180516001600160a01b031683526020908101518184015290930192600192909201916040909101906111e6565b5060608601516001600160a01b031660a08601526080860151858203603f190160c0870152925061124e818461114c565b979650505050505050565b5f60208284031215611269575f5ffd5b5051919050565b634e487b7160e01b5f52601160045260245ffd5b80820180821115610d0357610d03611270565b5f600182016112a8576112a8611270565b5060010190565b81810381811115610d0357610d0361127056fea264697066735822122023796961843ab30e60075cac288066616041bcf589afbb39eb360f05e0b03c3964736f6c634300081e0033",
        "linkReferences": {}
    },
    "methodIdentifiers": {
        "CCIP_ROUTER()": "fe5f42ca",
        "destinationGasLimit()": "0e72e073",
        "destinationReceivers(uint64)": "611a7a93",
        "estimateFee(address,uint64,address,bool,uint256,uint256)": "0596ccf3",
        "operationalBalance()": "f865216e",
        "owner()": "8da5cb5b",
        "pause()": "8456cb59",
        "paused()": "5c975abb",
        "removeDestinationChain(uint64)": "3208761a",
        "renounceOwnership()": "715018a6",
        "rescueFunds(address,uint256)": "78e3214f",
        "sendTradeRequest(uint64,address,bool,uint256,uint256)": "3bdcb91a",
        "setDestinationChain(uint64,address)": "550fa001",
        "setDestinationGasLimit(uint256)": "d3977af7",
        "supportedChains(uint64)": "f9c3f332",
        "transferOwnership(address)": "f2fde38b",
        "unpause()": "3f4ba83a",
        "userNonces(address)": "2f7801f4"
    },
    "id": 59
}