{
    "abi": [
        {
            "type": "constructor",
            "inputs": [
                {
                    "name": "_ccipRouter",
                    "type": "address",
                    "internalType": "address"
                },
                {
                    "name": "_positionManager",
                    "type": "address",
                    "internalType": "address"
                }
            ],
            "stateMutability": "nonpayable"
        },
        {
            "type": "function",
            "name": "ccipReceive",
            "inputs": [
                {
                    "name": "message",
                    "type": "tuple",
                    "internalType": "struct Client.Any2EVMMessage",
                    "components": [
                        {
                            "name": "messageId",
                            "type": "bytes32",
                            "internalType": "bytes32"
                        },
                        {
                            "name": "sourceChainSelector",
                            "type": "uint64",
                            "internalType": "uint64"
                        },
                        {
                            "name": "sender",
                            "type": "bytes",
                            "internalType": "bytes"
                        },
                        {
                            "name": "data",
                            "type": "bytes",
                            "internalType": "bytes"
                        },
                        {
                            "name": "destTokenAmounts",
                            "type": "tuple[]",
                            "internalType": "struct Client.EVMTokenAmount[]",
                            "components": [
                                {
                                    "name": "token",
                                    "type": "address",
                                    "internalType": "address"
                                },
                                {
                                    "name": "amount",
                                    "type": "uint256",
                                    "internalType": "uint256"
                                }
                            ]
                        }
                    ]
                }
            ],
            "outputs": [],
            "stateMutability": "nonpayable"
        },
        {
            "type": "function",
            "name": "getRouter",
            "inputs": [],
            "outputs": [
                {
                    "name": "",
                    "type": "address",
                    "internalType": "address"
                }
            ],
            "stateMutability": "view"
        },
        {
            "type": "function",
            "name": "owner",
            "inputs": [],
            "outputs": [
                {
                    "name": "",
                    "type": "address",
                    "internalType": "address"
                }
            ],
            "stateMutability": "view"
        },
        {
            "type": "function",
            "name": "positionManager",
            "inputs": [],
            "outputs": [
                {
                    "name": "",
                    "type": "address",
                    "internalType": "contract IPerpsCore"
                }
            ],
            "stateMutability": "view"
        },
        {
            "type": "function",
            "name": "processedNonces",
            "inputs": [
                {
                    "name": "",
                    "type": "address",
                    "internalType": "address"
                },
                {
                    "name": "",
                    "type": "uint256",
                    "internalType": "uint256"
                }
            ],
            "outputs": [
                {
                    "name": "",
                    "type": "bool",
                    "internalType": "bool"
                }
            ],
            "stateMutability": "view"
        },
        {
            "type": "function",
            "name": "renounceOwnership",
            "inputs": [],
            "outputs": [],
            "stateMutability": "nonpayable"
        },
        {
            "type": "function",
            "name": "setWhitelistedSender",
            "inputs": [
                {
                    "name": "_sender",
                    "type": "address",
                    "internalType": "address"
                },
                {
                    "name": "_allowed",
                    "type": "bool",
                    "internalType": "bool"
                }
            ],
            "outputs": [],
            "stateMutability": "nonpayable"
        },
        {
            "type": "function",
            "name": "setWhitelistedSourceChain",
            "inputs": [
                {
                    "name": "_sourceChainSelector",
                    "type": "uint64",
                    "internalType": "uint64"
                },
                {
                    "name": "_allowed",
                    "type": "bool",
                    "internalType": "bool"
                }
            ],
            "outputs": [],
            "stateMutability": "nonpayable"
        },
        {
            "type": "function",
            "name": "supportsInterface",
            "inputs": [
                {
                    "name": "interfaceId",
                    "type": "bytes4",
                    "internalType": "bytes4"
                }
            ],
            "outputs": [
                {
                    "name": "",
                    "type": "bool",
                    "internalType": "bool"
                }
            ],
            "stateMutability": "view"
        },
        {
            "type": "function",
            "name": "transferOwnership",
            "inputs": [
                {
                    "name": "newOwner",
                    "type": "address",
                    "internalType": "address"
                }
            ],
            "outputs": [],
            "stateMutability": "nonpayable"
        },
        {
            "type": "function",
            "name": "updatePositionManager",
            "inputs": [
                {
                    "name": "_newManager",
                    "type": "address",
                    "internalType": "address"
                }
            ],
            "outputs": [],
            "stateMutability": "nonpayable"
        },
        {
            "type": "function",
            "name": "whitelistedSenders",
            "inputs": [
                {
                    "name": "",
                    "type": "address",
                    "internalType": "address"
                }
            ],
            "outputs": [
                {
                    "name": "",
                    "type": "bool",
                    "internalType": "bool"
                }
            ],
            "stateMutability": "view"
        },
        {
            "type": "function",
            "name": "whitelistedSourceChains",
            "inputs": [
                {
                    "name": "",
                    "type": "uint64",
                    "internalType": "uint64"
                }
            ],
            "outputs": [
                {
                    "name": "",
                    "type": "bool",
                    "internalType": "bool"
                }
            ],
            "stateMutability": "view"
        },
        {
            "type": "event",
            "name": "OwnershipTransferred",
            "inputs": [
                {
                    "name": "previousOwner",
                    "type": "address",
                    "indexed": true,
                    "internalType": "address"
                },
                {
                    "name": "newOwner",
                    "type": "address",
                    "indexed": true,
                    "internalType": "address"
                }
            ],
            "anonymous": false
        },
        {
            "type": "event",
            "name": "PositionManagerUpdated",
            "inputs": [
                {
                    "name": "newManager",
                    "type": "address",
                    "indexed": false,
                    "internalType": "address"
                }
            ],
            "anonymous": false
        },
        {
            "type": "event",
            "name": "SenderWhitelisted",
            "inputs": [
                {
                    "name": "sender",
                    "type": "address",
                    "indexed": true,
                    "internalType": "address"
                },
                {
                    "name": "allowed",
                    "type": "bool",
                    "indexed": false,
                    "internalType": "bool"
                }
            ],
            "anonymous": false
        },
        {
            "type": "event",
            "name": "SourceChainWhitelisted",
            "inputs": [
                {
                    "name": "chainSelector",
                    "type": "uint64",
                    "indexed": true,
                    "internalType": "uint64"
                },
                {
                    "name": "allowed",
                    "type": "bool",
                    "indexed": false,
                    "internalType": "bool"
                }
            ],
            "anonymous": false
        },
        {
            "type": "event",
            "name": "TradeExecuted",
            "inputs": [
                {
                    "name": "messageId",
                    "type": "bytes32",
                    "indexed": true,
                    "internalType": "bytes32"
                },
                {
                    "name": "trader",
                    "type": "address",
                    "indexed": true,
                    "internalType": "address"
                },
                {
                    "name": "token",
                    "type": "address",
                    "indexed": false,
                    "internalType": "address"
                },
                {
                    "name": "isLong",
                    "type": "bool",
                    "indexed": false,
                    "internalType": "bool"
                },
                {
                    "name": "margin",
                    "type": "uint256",
                    "indexed": false,
                    "internalType": "uint256"
                },
                {
                    "name": "leverage",
                    "type": "uint256",
                    "indexed": false,
                    "internalType": "uint256"
                }
            ],
            "anonymous": false
        },
        {
            "type": "event",
            "name": "TradeFailed",
            "inputs": [
                {
                    "name": "messageId",
                    "type": "bytes32",
                    "indexed": true,
                    "internalType": "bytes32"
                },
                {
                    "name": "trader",
                    "type": "address",
                    "indexed": true,
                    "internalType": "address"
                },
                {
                    "name": "reason",
                    "type": "string",
                    "indexed": false,
                    "internalType": "string"
                }
            ],
            "anonymous": false
        },
        {
            "type": "error",
            "name": "InvalidAddress",
            "inputs": []
        },
        {
            "type": "error",
            "name": "InvalidParameter",
            "inputs": []
        },
        {
            "type": "error",
            "name": "InvalidRouter",
            "inputs": [
                {
                    "name": "router",
                    "type": "address",
                    "internalType": "address"
                }
            ]
        },
        {
            "type": "error",
            "name": "OwnableInvalidOwner",
            "inputs": [
                {
                    "name": "owner",
                    "type": "address",
                    "internalType": "address"
                }
            ]
        },
        {
            "type": "error",
            "name": "OwnableUnauthorizedAccount",
            "inputs": [
                {
                    "name": "account",
                    "type": "address",
                    "internalType": "address"
                }
            ]
        }
    ],
    "bytecode": {
        "object": "0x60a060405234801561000f575f5ffd5b50604051610f23380380610f2383398101604081905261002e9161014e565b33826001600160a01b03811661005e576040516335fdcccd60e21b81525f60048201526024015b60405180910390fd5b6001600160a01b03908116608052811661008d57604051631e4fbdf760e01b81525f6004820152602401610055565b610096816100e4565b506001600160a01b0381166100be5760405163e6c4247b60e01b815260040160405180910390fd5b600180546001600160a01b0319166001600160a01b03929092169190911790555061017f565b5f80546001600160a01b038381166001600160a01b0319831681178455604051919092169283917f8be0079c531659141344cd1fd0a4f28419497f9722a3daafe3b4186f6b6457e09190a35050565b80516001600160a01b0381168114610149575f5ffd5b919050565b5f5f6040838503121561015f575f5ffd5b61016883610133565b915061017660208401610133565b90509250929050565b608051610d8561019e5f395f81816101fb01526103f60152610d855ff3fe608060405234801561000f575f5ffd5b50600436106100cb575f3560e01c8063791b98bc1161008857806385572ffb1161006357806385572ffb146101d65780638da5cb5b146101e9578063b0f479a1146101f9578063f2fde38b1461021f575f5ffd5b8063791b98bc1461015c5780637cc70240146101875780637dc91a02146101b4575f5ffd5b806301ffc9a7146100cf5780631495807e146100f7578063272efc691461010c578063299238381461012e5780636881d8cb14610141578063715018a614610154575b5f5ffd5b6100e26100dd366004610865565b610232565b60405190151581526020015b60405180910390f35b61010a6101053660046108bb565b610268565b005b6100e261011a366004610904565b60036020525f908152604090205460ff1681565b61010a61013c36600461091f565b6102cf565b61010a61014f366004610904565b610355565b61010a6103d8565b60015461016f906001600160a01b031681565b6040516001600160a01b0390911681526020016100ee565b6100e261019536600461093b565b600460209081525f928352604080842090915290825290205460ff1681565b6100e26101c2366004610965565b60026020525f908152604090205460ff1681565b61010a6101e436600461097e565b6103eb565b5f546001600160a01b031661016f565b7f000000000000000000000000000000000000000000000000000000000000000061016f565b61010a61022d366004610904565b61044f565b5f6001600160e01b031982166385572ffb60e01b148061026257506001600160e01b031982166301ffc9a760e01b145b92915050565b610270610489565b6001600160401b0382165f81815260026020908152604091829020805460ff191685151590811790915591519182527fbca46419bcee1f8e0437d2ae1c383a451d5c5b598ece5ef1e0ffe515ff60323991015b60405180910390a25050565b6102d7610489565b6001600160a01b0382166102fe5760405163e6c4247b60e01b815260040160405180910390fd5b6001600160a01b0382165f81815260036020908152604091829020805460ff191685151590811790915591519182527f7cc8eedb33d0513aac63d861ea275788d3526752cda024d59cfad9d9174190ca91016102c3565b61035d610489565b6001600160a01b0381166103845760405163e6c4247b60e01b815260040160405180910390fd5b600180546001600160a01b0319166001600160a01b0383169081179091556040519081527fec6364b6f2ba0f396e400595a24e036f54f5f02cbc9bc98ff8227632619aee8b9060200160405180910390a150565b6103e0610489565b6103e95f6104b5565b565b336001600160a01b037f0000000000000000000000000000000000000000000000000000000000000000161461043b576040516335fdcccd60e21b81523360048201526024015b60405180910390fd5b61044c61044782610b4f565b610504565b50565b610457610489565b6001600160a01b03811661048057604051631e4fbdf760e01b81525f6004820152602401610432565b61044c816104b5565b5f546001600160a01b031633146103e95760405163118cdaa760e01b8152336004820152602401610432565b5f80546001600160a01b038381166001600160a01b0319831681178455604051919092169283917f8be0079c531659141344cd1fd0a4f28419497f9722a3daafe3b4186f6b6457e09190a35050565b6020808201516001600160401b03165f9081526002909152604090205460ff1661054157604051630309cb8760e51b815260040160405180910390fd5b5f816040015180602001905181019061055a9190610c00565b6001600160a01b0381165f9081526003602052604090205490915060ff166105955760405163e6c4247b60e01b815260040160405180910390fd5b5f5f5f5f5f5f87606001518060200190518101906105b39190610c1b565b6001600160a01b0386165f908152600460209081526040808320888452909152902054959b5093995091975095509350915060ff161561066c57856001600160a01b0316885f01517f1ece5c1a54d3dbc9bfb897f2468363df09898705fb15fd29c961cb7f56c313ec60405161065a9060208082526017908201527f4e6f6e636520616c72656164792070726f636573736564000000000000000000604082015260600190565b60405180910390a35050505050505050565b6001600160a01b038681165f8181526004602081815260408084208b855290915291829020805460ff1916600190811790915554915163ed2f860760e01b8152908101929092528683166024830152851515604483015260648201859052608482018490529091169063ed2f86079060a4015f604051808303815f87803b1580156106f5575f5ffd5b505af1925050508015610706575060015b61080457610712610c80565b806308c379a00361077c5750610726610c98565b80610731575061077e565b866001600160a01b0316895f01517f1ece5c1a54d3dbc9bfb897f2468363df09898705fb15fd29c961cb7f56c313ec8360405161076e9190610d1a565b60405180910390a35061085b565b505b856001600160a01b0316885f01517f1ece5c1a54d3dbc9bfb897f2468363df09898705fb15fd29c961cb7f56c313ec6040516107f79060208082526023908201527f457865637574696f6e204661696c65642028437573746f6d204572726f722f4f6040820152624f472960e81b606082015260800190565b60405180910390a361085b565b8751604080516001600160a01b03878116825286151560208301529181018590526060810184905290881691907f42a93d8682fa32b4172092ffb071460d285a6ea493c379ec5aac31f555bca7fb9060800161065a565b5050505050505050565b5f60208284031215610875575f5ffd5b81356001600160e01b03198116811461088c575f5ffd5b9392505050565b80356001600160401b03811681146108a9575f5ffd5b919050565b801515811461044c575f5ffd5b5f5f604083850312156108cc575f5ffd5b6108d583610893565b915060208301356108e5816108ae565b809150509250929050565b6001600160a01b038116811461044c575f5ffd5b5f60208284031215610914575f5ffd5b813561088c816108f0565b5f5f60408385031215610930575f5ffd5b82356108d5816108f0565b5f5f6040838503121561094c575f5ffd5b8235610957816108f0565b946020939093013593505050565b5f60208284031215610975575f5ffd5b61088c82610893565b5f6020828403121561098e575f5ffd5b81356001600160401b038111156109a3575f5ffd5b820160a0818503121561088c575f5ffd5b634e487b7160e01b5f52604160045260245ffd5b604081018181106001600160401b03821117156109e7576109e76109b4565b60405250565b601f8201601f191681016001600160401b0381118282101715610a1257610a126109b4565b6040525050565b604051610a2760a0826109ed565b90565b5f82601f830112610a39575f5ffd5b81356001600160401b03811115610a5257610a526109b4565b604051610a69601f8301601f1916602001826109ed565b818152846020838601011115610a7d575f5ffd5b816020850160208301375f918101602001919091529392505050565b5f82601f830112610aa8575f5ffd5b81356001600160401b03811115610ac157610ac16109b4565b604051610ad460208360051b01826109ed565b8082825260208201905060208360061b860101925085831115610af5575f5ffd5b602085015b83811015610b445760408188031215610b11575f5ffd5b604051610b1d816109c8565b8135610b28816108f0565b8152602082810135818301529083529190910190604001610afa565b509095945050505050565b5f60a08236031215610b5f575f5ffd5b610b67610a19565b82358152610b7760208401610893565b602082015260408301356001600160401b03811115610b94575f5ffd5b610ba036828601610a2a565b60408301525060608301356001600160401b03811115610bbe575f5ffd5b610bca36828601610a2a565b60608301525060808301356001600160401b03811115610be8575f5ffd5b610bf436828601610a99565b60808301525092915050565b5f60208284031215610c10575f5ffd5b815161088c816108f0565b5f5f5f5f5f5f60c08789031215610c30575f5ffd5b8651610c3b816108f0565b602088015160408901519197509550610c53816108f0565b6060880151909450610c64816108ae565b608088015160a090980151969995985093969395939492505050565b5f60033d1115610a275760045f5f3e505f5160e01c90565b5f60443d1015610ca55790565b6040513d600319016004823e80513d60248201116001600160401b0382111715610cce57505090565b80820180516001600160401b03811115610ce9575050505090565b3d8401600319018282016020011115610d03575050505090565b610d12602082850101856109ed565b509392505050565b602081525f82518060208401528060208501604085015e5f604082850101526040601f19601f8301168401019150509291505056fea26469706673582212209d32804f2ac618ce5e63e053a913568a33fe0283c0992523acb5ab789b1d749964736f6c634300081e0033",
        "linkReferences": {}
    },
    "methodIdentifiers": {
        "ccipReceive((bytes32,uint64,bytes,bytes,(address,uint256)[]))": "85572ffb",
        "getRouter()": "b0f479a1",
        "owner()": "8da5cb5b",
        "positionManager()": "791b98bc",
        "processedNonces(address,uint256)": "7cc70240",
        "renounceOwnership()": "715018a6",
        "setWhitelistedSender(address,bool)": "29923838",
        "setWhitelistedSourceChain(uint64,bool)": "1495807e",
        "supportsInterface(bytes4)": "01ffc9a7",
        "transferOwnership(address)": "f2fde38b",
        "updatePositionManager(address)": "6881d8cb",
        "whitelistedSenders(address)": "272efc69",
        "whitelistedSourceChains(uint64)": "7dc91a02"
    },
    "id": 60
}