{
    "abi": [
        {
            "type": "constructor",
            "inputs": [
                {
                    "name": "_entryPoint",
                    "type": "address",
                    "internalType": "address"
                }
            ],
            "stateMutability": "nonpayable"
        },
        {
            "type": "receive",
            "stateMutability": "payable"
        },
        {
            "type": "function",
            "name": "ENTRY_POINT",
            "inputs": [],
            "outputs": [
                {
                    "name": "",
                    "type": "address",
                    "internalType": "address"
                }
            ],
            "stateMutability": "view"
        },
        {
            "type": "function",
            "name": "USER_OP_TYPEHASH",
            "inputs": [],
            "outputs": [
                {
                    "name": "",
                    "type": "bytes32",
                    "internalType": "bytes32"
                }
            ],
            "stateMutability": "view"
        },
        {
            "type": "function",
            "name": "eip712Domain",
            "inputs": [],
            "outputs": [
                {
                    "name": "fields",
                    "type": "bytes1",
                    "internalType": "bytes1"
                },
                {
                    "name": "name",
                    "type": "string",
                    "internalType": "string"
                },
                {
                    "name": "version",
                    "type": "string",
                    "internalType": "string"
                },
                {
                    "name": "chainId",
                    "type": "uint256",
                    "internalType": "uint256"
                },
                {
                    "name": "verifyingContract",
                    "type": "address",
                    "internalType": "address"
                },
                {
                    "name": "salt",
                    "type": "bytes32",
                    "internalType": "bytes32"
                },
                {
                    "name": "extensions",
                    "type": "uint256[]",
                    "internalType": "uint256[]"
                }
            ],
            "stateMutability": "view"
        },
        {
            "type": "function",
            "name": "execute",
            "inputs": [
                {
                    "name": "dest",
                    "type": "address",
                    "internalType": "address"
                },
                {
                    "name": "value",
                    "type": "uint256",
                    "internalType": "uint256"
                },
                {
                    "name": "func",
                    "type": "bytes",
                    "internalType": "bytes"
                }
            ],
            "outputs": [],
            "stateMutability": "nonpayable"
        },
        {
            "type": "function",
            "name": "executeBatch",
            "inputs": [
                {
                    "name": "dests",
                    "type": "address[]",
                    "internalType": "address[]"
                },
                {
                    "name": "values",
                    "type": "uint256[]",
                    "internalType": "uint256[]"
                },
                {
                    "name": "funcs",
                    "type": "bytes[]",
                    "internalType": "bytes[]"
                }
            ],
            "outputs": [],
            "stateMutability": "nonpayable"
        },
        {
            "type": "function",
            "name": "initialize",
            "inputs": [
                {
                    "name": "_owner",
                    "type": "address",
                    "internalType": "address"
                }
            ],
            "outputs": [],
            "stateMutability": "nonpayable"
        },
        {
            "type": "function",
            "name": "nonce",
            "inputs": [],
            "outputs": [
                {
                    "name": "",
                    "type": "uint256",
                    "internalType": "uint256"
                }
            ],
            "stateMutability": "view"
        },
        {
            "type": "function",
            "name": "owner",
            "inputs": [],
            "outputs": [
                {
                    "name": "",
                    "type": "address",
                    "internalType": "address"
                }
            ],
            "stateMutability": "view"
        },
        {
            "type": "function",
            "name": "transferOwnership",
            "inputs": [
                {
                    "name": "newOwner",
                    "type": "address",
                    "internalType": "address"
                }
            ],
            "outputs": [],
            "stateMutability": "nonpayable"
        },
        {
            "type": "function",
            "name": "validateUserOp",
            "inputs": [
                {
                    "name": "userOp",
                    "type": "tuple",
                    "internalType": "struct SmartAccount.UserOperation",
                    "components": [
                        {
                            "name": "sender",
                            "type": "address",
                            "internalType": "address"
                        },
                        {
                            "name": "nonce",
                            "type": "uint256",
                            "internalType": "uint256"
                        },
                        {
                            "name": "initCode",
                            "type": "bytes",
                            "internalType": "bytes"
                        },
                        {
                            "name": "callData",
                            "type": "bytes",
                            "internalType": "bytes"
                        },
                        {
                            "name": "callGasLimit",
                            "type": "uint256",
                            "internalType": "uint256"
                        },
                        {
                            "name": "verificationGasLimit",
                            "type": "uint256",
                            "internalType": "uint256"
                        },
                        {
                            "name": "preVerificationGas",
                            "type": "uint256",
                            "internalType": "uint256"
                        },
                        {
                            "name": "maxFeePerGas",
                            "type": "uint256",
                            "internalType": "uint256"
                        },
                        {
                            "name": "maxPriorityFeePerGas",
                            "type": "uint256",
                            "internalType": "uint256"
                        },
                        {
                            "name": "paymasterAndData",
                            "type": "bytes",
                            "internalType": "bytes"
                        },
                        {
                            "name": "signature",
                            "type": "bytes",
                            "internalType": "bytes"
                        }
                    ]
                },
                {
                    "name": "",
                    "type": "bytes32",
                    "internalType": "bytes32"
                },
                {
                    "name": "missingAccountFunds",
                    "type": "uint256",
                    "internalType": "uint256"
                }
            ],
            "outputs": [
                {
                    "name": "validationData",
                    "type": "uint256",
                    "internalType": "uint256"
                }
            ],
            "stateMutability": "nonpayable"
        },
        {
            "type": "event",
            "name": "EIP712DomainChanged",
            "inputs": [],
            "anonymous": false
        },
        {
            "type": "event",
            "name": "Initialized",
            "inputs": [
                {
                    "name": "version",
                    "type": "uint64",
                    "indexed": false,
                    "internalType": "uint64"
                }
            ],
            "anonymous": false
        },
        {
            "type": "event",
            "name": "OwnerChanged",
            "inputs": [
                {
                    "name": "oldOwner",
                    "type": "address",
                    "indexed": true,
                    "internalType": "address"
                },
                {
                    "name": "newOwner",
                    "type": "address",
                    "indexed": true,
                    "internalType": "address"
                }
            ],
            "anonymous": false
        },
        {
            "type": "event",
            "name": "Received",
            "inputs": [
                {
                    "name": "sender",
                    "type": "address",
                    "indexed": true,
                    "internalType": "address"
                },
                {
                    "name": "amount",
                    "type": "uint256",
                    "indexed": false,
                    "internalType": "uint256"
                }
            ],
            "anonymous": false
        },
        {
            "type": "event",
            "name": "SmartAccountExecuted",
            "inputs": [
                {
                    "name": "target",
                    "type": "address",
                    "indexed": true,
                    "internalType": "address"
                },
                {
                    "name": "value",
                    "type": "uint256",
                    "indexed": false,
                    "internalType": "uint256"
                },
                {
                    "name": "data",
                    "type": "bytes",
                    "indexed": false,
                    "internalType": "bytes"
                }
            ],
            "anonymous": false
        },
        {
            "type": "error",
            "name": "CallFailed",
            "inputs": []
        },
        {
            "type": "error",
            "name": "InvalidEntryPoint",
            "inputs": []
        },
        {
            "type": "error",
            "name": "InvalidInitialization",
            "inputs": []
        },
        {
            "type": "error",
            "name": "InvalidNonce",
            "inputs": []
        },
        {
            "type": "error",
            "name": "InvalidOwner",
            "inputs": []
        },
        {
            "type": "error",
            "name": "InvalidShortString",
            "inputs": []
        },
        {
            "type": "error",
            "name": "InvalidTarget",
            "inputs": []
        },
        {
            "type": "error",
            "name": "LengthMismatch",
            "inputs": []
        },
        {
            "type": "error",
            "name": "NotInitializing",
            "inputs": []
        },
        {
            "type": "error",
            "name": "ReentrancyGuardReentrantCall",
            "inputs": []
        },
        {
            "type": "error",
            "name": "StringTooLong",
            "inputs": [
                {
                    "name": "str",
                    "type": "string",
                    "internalType": "string"
                }
            ]
        },
        {
            "type": "error",
            "name": "Unauthorized",
            "inputs": []
        }
    ],
    "bytecode": {
        "object": "0x610180604052348015610010575f5ffd5b506040516116ff3803806116ff83398101604081905261002f916102d8565b6040518060400160405280600d81526020016c13995e151958da15d85b1b195d609a1b815250604051806040016040528060018152602001603160f81b815250600161008561008261017760201b60201c565b90565b55610090825f61019b565b6101205261009f81600161019b565b61014052815160208084019190912060e052815190820120610100524660a05261012b60e05161010051604080517f8b73c3c69bb8fe3d512ecc4cf759cc79239f7b179b0ffacaa9a75d522b39400f60208201529081019290925260608201524660808201523060a08201525f9060c00160405160208183030381529060405280519060200120905090565b60805250503060c0526001600160a01b03811661015b57604051632039d3c960e01b815260040160405180910390fd5b6001600160a01b038116610160526101716101cd565b506104af565b7f9b779b17422d0df92223018b32b4d1fa46e071723d6817e2486d003becc55f0090565b5f6020835110156101b6576101af8361026a565b90506101c7565b816101c1848261039d565b5060ff90505b92915050565b5f6101d66102b0565b805490915068010000000000000000900460ff16156102085760405163f92ee8a960e01b815260040160405180910390fd5b80546001600160401b03908116146102675780546001600160401b0319166001600160401b0390811782556040519081527fc7f505b2f371ae2175ee4913f4499e1f2633a7b5936321eed1cdaeb6115181d29060200160405180910390a15b50565b5f5f829050601f8151111561029d578260405163305a27a960e01b81526004016102949190610457565b60405180910390fd5b80516102a88261048c565b179392505050565b5f807ff0c57e16840df040f15088dc2f81fe391c3923bec73e23a9662efc9c229c6a006101c7565b5f602082840312156102e8575f5ffd5b81516001600160a01b03811681146102fe575f5ffd5b9392505050565b634e487b7160e01b5f52604160045260245ffd5b600181811c9082168061032d57607f821691505b60208210810361034b57634e487b7160e01b5f52602260045260245ffd5b50919050565b601f82111561039857805f5260205f20601f840160051c810160208510156103765750805b601f840160051c820191505b81811015610395575f8155600101610382565b50505b505050565b81516001600160401b038111156103b6576103b6610305565b6103ca816103c48454610319565b84610351565b6020601f8211600181146103fc575f83156103e55750848201515b5f19600385901b1c1916600184901b178455610395565b5f84815260208120601f198516915b8281101561042b578785015182556020948501946001909201910161040b565b508482101561044857868401515f19600387901b60f8161c191681555b50505050600190811b01905550565b602081525f82518060208401528060208501604085015e5f604082850101526040601f19601f83011684010191505092915050565b8051602080830151919081101561034b575f1960209190910360031b1b16919050565b60805160a05160c05160e051610100516101205161014051610160516111ee6105115f395f81816101c7015261083901525f610a2801525f6109f701525f610b8701525f610b5f01525f610aba01525f610ae401525f610b0e01526111ee5ff3fe608060405260043610610092575f3560e01c806394430fa51161005757806394430fa5146101b6578063affed0e0146101e9578063b61d27f6146101fe578063c4d66de81461021d578063f2fde38b1461023c575f5ffd5b80633a871cdd146100d257806347e1da2a1461010457806384b0196e14610125578063874dfaaf1461014c5780638da5cb5b1461017f575f5ffd5b366100ce5760405134815233907f88a5966d370b9919b20f3e2c13ff65706f196a4e32cc2c12bf57088f885258749060200160405180910390a2005b5f5ffd5b3480156100dd575f5ffd5b506100f16100ec366004610ddc565b61025b565b6040519081526020015b60405180910390f35b34801561010f575f5ffd5b5061012361011e366004610e73565b6104ef565b005b348015610130575f5ffd5b506101396105cc565b6040516100fb9796959493929190610f40565b348015610157575f5ffd5b506100f17ff81bea993d11db0909d00c3af86d2329d5a9069b5297725281150d0eca35413981565b34801561018a575f5ffd5b5060025461019e906001600160a01b031681565b6040516001600160a01b0390911681526020016100fb565b3480156101c1575f5ffd5b5061019e7f000000000000000000000000000000000000000000000000000000000000000081565b3480156101f4575f5ffd5b506100f160035481565b348015610209575f5ffd5b50610123610218366004610ff1565b61060e565b348015610228575f5ffd5b50610123610237366004611074565b610646565b348015610247575f5ffd5b50610123610256366004611074565b6107a4565b5f61026461082e565b60035484602001351461028a57604051633ab3447f60e11b815260040160405180910390fd5b60038054905f6102998361108d565b909155505f90507ff81bea993d11db0909d00c3af86d2329d5a9069b5297725281150d0eca3541396102ce6020870187611074565b60208701356102e060408901896110b1565b6040516102ee9291906110f4565b60405190819003902061030460608a018a6110b1565b6040516103129291906110f4565b604051809103902089608001358a60a001358b60c001358c60e001358d61010001358e80610120019061034591906110b1565b6040516103539291906110f4565b60408051918290038220602083019c909c526001600160a01b03909a16998101999099526060890197909752608088019590955260a087019390935260c086019190915260e0850152610100840152610120830152610140820152610160810191909152610180016040516020818303038152906040528051906020012090505f6103dd82610878565b90505f8061042c836103f36101408b018b6110b1565b8080601f0160208091040260200160405190810160405280939291908181526020018383808284375f920191909152506108aa92505050565b5090925090505f81600381111561044557610445611103565b14158061046057506002546001600160a01b03838116911614155b156104725760019450505050506104e8565b85156104e0576040515f90339088908381818185875af1925050503d805f81146104b7576040519150601f19603f3d011682016040523d82523d5f602084013e6104bc565b606091505b50509050806104de57604051633204506f60e01b815260040160405180910390fd5b505b5f9450505050505b9392505050565b6104f761082e565b6104ff6108f3565b848314158061050e5750828114155b1561052f576040516001621398b960e31b0319815260040160405180910390fd5b5f5b858110156105ad576105a587878381811061054e5761054e611117565b90506020020160208101906105639190611074565b86868481811061057557610575611117565b9050602002013585858581811061058e5761058e611117565b90506020028101906105a091906110b1565b61090e565b600101610531565b506105c460015f5160206111995f395f51905f5255565b505050505050565b5f6060805f5f5f60606105dd6109f0565b6105e5610a21565b604080515f80825260208201909252600f60f81b9b939a50919850469750309650945092509050565b61061661082e565b61061e6108f3565b61062a8484848461090e565b61064060015f5160206111995f395f51905f5255565b50505050565b5f61064f610a4e565b805490915060ff600160401b820416159067ffffffffffffffff165f811580156106765750825b90505f8267ffffffffffffffff1660011480156106925750303b155b9050811580156106a0575080155b156106be5760405163f92ee8a960e01b815260040160405180910390fd5b845467ffffffffffffffff1916600117855583156106e857845460ff60401b1916600160401b1785555b6001600160a01b03861661070f576040516349e27cff60e01b815260040160405180910390fd5b600280546001600160a01b0319166001600160a01b0388169081179091556040515f907fb532073b38c83145e3e5135377a08bf9aab55bc0fd7c1179cd4fb995d2a5159c908290a383156105c457845460ff60401b19168555604051600181527fc7f505b2f371ae2175ee4913f4499e1f2633a7b5936321eed1cdaeb6115181d29060200160405180910390a1505050505050565b6107ac610a76565b6001600160a01b0381166107d3576040516349e27cff60e01b815260040160405180910390fd5b6002546040516001600160a01b038084169216907fb532073b38c83145e3e5135377a08bf9aab55bc0fd7c1179cd4fb995d2a5159c905f90a3600280546001600160a01b0319166001600160a01b0392909216919091179055565b336001600160a01b037f00000000000000000000000000000000000000000000000000000000000000001614610876576040516282b42960e81b815260040160405180910390fd5b565b5f6108a4610884610aae565b8360405161190160f01b8152600281019290925260228201526042902090565b92915050565b5f5f5f83516041036108e1576020840151604085015160608601515f1a6108d388828585610bd7565b9550955095505050506108ec565b505081515f91506002905b9250925092565b6108fb610c9f565b60025f5160206111995f395f51905f5255565b6001600160a01b0384166109355760405163416aebb560e11b815260040160405180910390fd5b5f5f856001600160a01b03168585856040516109529291906110f4565b5f6040518083038185875af1925050503d805f811461098c576040519150601f19603f3d011682016040523d82523d5f602084013e610991565b606091505b5091509150816109a357805160208201fd5b856001600160a01b03167f75933001663b7623504acb7f21f217d942bf91bececb26345d6ee969c0c723008686866040516109e09392919061112b565b60405180910390a2505050505050565b6060610a1c7f00000000000000000000000000000000000000000000000000000000000000005f610cce565b905090565b6060610a1c7f00000000000000000000000000000000000000000000000000000000000000006001610cce565b5f807ff0c57e16840df040f15088dc2f81fe391c3923bec73e23a9662efc9c229c6a006108a4565b6002546001600160a01b03163314801590610a915750333014155b15610876576040516282b42960e81b815260040160405180910390fd5b5f306001600160a01b037f000000000000000000000000000000000000000000000000000000000000000016148015610b0657507f000000000000000000000000000000000000000000000000000000000000000046145b15610b3057507f000000000000000000000000000000000000000000000000000000000000000090565b610a1c604080517f8b73c3c69bb8fe3d512ecc4cf759cc79239f7b179b0ffacaa9a75d522b39400f60208201527f0000000000000000000000000000000000000000000000000000000000000000918101919091527f000000000000000000000000000000000000000000000000000000000000000060608201524660808201523060a08201525f9060c00160405160208183030381529060405280519060200120905090565b5f80807f7fffffffffffffffffffffffffffffff5d576e7357a4501ddfe92f46681b20a0841115610c1057505f91506003905082610c95565b604080515f808252602082018084528a905260ff891692820192909252606081018790526080810186905260019060a0016020604051602081039080840390855afa158015610c61573d5f5f3e3d5ffd5b5050604051601f1901519150506001600160a01b038116610c8c57505f925060019150829050610c95565b92505f91508190505b9450945094915050565b5f5160206111995f395f51905f525460020361087657604051633ee5aeb560e01b815260040160405180910390fd5b606060ff8314610ce857610ce183610d78565b90506108a4565b818054610cf490611160565b80601f0160208091040260200160405190810160405280929190818152602001828054610d2090611160565b8015610d6b5780601f10610d4257610100808354040283529160200191610d6b565b820191905f5260205f20905b815481529060010190602001808311610d4e57829003601f168201915b5050505050905092915050565b60605f610d8483610db5565b6040805160208082528183019092529192505f91906020820181803683375050509182525060208101929092525090565b5f60ff8216601f8111156108a457604051632cd44ac360e21b815260040160405180910390fd5b5f5f5f60608486031215610dee575f5ffd5b833567ffffffffffffffff811115610e04575f5ffd5b84016101608187031215610e16575f5ffd5b95602085013595506040909401359392505050565b5f5f83601f840112610e3b575f5ffd5b50813567ffffffffffffffff811115610e52575f5ffd5b6020830191508360208260051b8501011115610e6c575f5ffd5b9250929050565b5f5f5f5f5f5f60608789031215610e88575f5ffd5b863567ffffffffffffffff811115610e9e575f5ffd5b610eaa89828a01610e2b565b909750955050602087013567ffffffffffffffff811115610ec9575f5ffd5b610ed589828a01610e2b565b909550935050604087013567ffffffffffffffff811115610ef4575f5ffd5b610f0089828a01610e2b565b979a9699509497509295939492505050565b5f81518084528060208401602086015e5f602082860101526020601f19601f83011685010191505092915050565b60ff60f81b8816815260e060208201525f610f5e60e0830189610f12565b8281036040840152610f708189610f12565b606084018890526001600160a01b038716608085015260a0840186905283810360c0850152845180825260208087019350909101905f5b81811015610fc5578351835260209384019390920191600101610fa7565b50909b9a5050505050505050505050565b80356001600160a01b0381168114610fec575f5ffd5b919050565b5f5f5f5f60608587031215611004575f5ffd5b61100d85610fd6565b935060208501359250604085013567ffffffffffffffff81111561102f575f5ffd5b8501601f8101871361103f575f5ffd5b803567ffffffffffffffff811115611055575f5ffd5b876020828401011115611066575f5ffd5b949793965060200194505050565b5f60208284031215611084575f5ffd5b6104e882610fd6565b5f600182016110aa57634e487b7160e01b5f52601160045260245ffd5b5060010190565b5f5f8335601e198436030181126110c6575f5ffd5b83018035915067ffffffffffffffff8211156110e0575f5ffd5b602001915036819003821315610e6c575f5ffd5b818382375f9101908152919050565b634e487b7160e01b5f52602160045260245ffd5b634e487b7160e01b5f52603260045260245ffd5b83815260406020820152816040820152818360608301375f818301606090810191909152601f909201601f1916010192915050565b600181811c9082168061117457607f821691505b60208210810361119257634e487b7160e01b5f52602260045260245ffd5b5091905056fe9b779b17422d0df92223018b32b4d1fa46e071723d6817e2486d003becc55f00a2646970667358221220f760f2c8753a87aa6e3ce34e9718779252fcd1dc16822dbe913b94bfc0b6c1c064736f6c634300081e0033",
        "linkReferences": {}
    },
    "methodIdentifiers": {
        "ENTRY_POINT()": "94430fa5",
        "USER_OP_TYPEHASH()": "874dfaaf",
        "eip712Domain()": "84b0196e",
        "execute(address,uint256,bytes)": "b61d27f6",
        "executeBatch(address[],uint256[],bytes[])": "47e1da2a",
        "initialize(address)": "c4d66de8",
        "nonce()": "affed0e0",
        "owner()": "8da5cb5b",
        "transferOwnership(address)": "f2fde38b",
        "validateUserOp((address,uint256,bytes,bytes,uint256,uint256,uint256,uint256,uint256,bytes,bytes),bytes32,uint256)": "3a871cdd"
    },
    "id": 55
}